{"contracts/TransparentSubsidySystem.sol":{"TransparentSubsidySystem":{"abi":[{"inputs":[],"stateMutability":"nonpayable","type":"constructor"},{"inputs":[],"name":"AccessControlBadConfirmation","type":"error"},{"inputs":[{"internalType":"address","name":"account","type":"address"},{"internalType":"bytes32","name":"neededRole","type":"bytes32"}],"name":"AccessControlUnauthorizedAccount","type":"error"},{"anonymous":false,"inputs":[{"indexed":true,"internalType":"uint256","name":"itemId","type":"uint256"},{"indexed":true,"internalType":"enum TransparentSubsidySystem.Stage","name":"stage","type":"uint8"},{"indexed":false,"internalType":"bytes32","name":"merkleRoot","type":"bytes32"}],"name":"DocumentBatchVerified","type":"event"},{"anonymous":false,"inputs":[{"indexed":true,"internalType":"uint256","name":"itemId","type":"uint256"},{"indexed":false,"internalType":"enum TransparentSubsidySystem.Stage","name":"stage","type":"uint8"},{"indexed":false,"internalType":"string","name":"ipfsHash","type":"string"},{"indexed":false,"internalType":"address","name":"uploader","type":"address"}],"name":"DocumentUploaded","type":"event"},{"anonymous":false,"inputs":[{"indexed":true,"internalType":"uint256","name":"itemId","type":"uint256"}],"name":"ItemCancelled","type":"event"},{"anonymous":false,"inputs":[{"indexed":true,"internalType":"uint256","name":"itemId","type":"uint256"},{"indexed":true,"internalType":"address","name":"beneficiary","type":"address"},{"indexed":false,"internalType":"string","name":"ipfsHash","type":"string"}],"name":"ItemCreated","type":"event"},{"anonymous":false,"inputs":[{"indexed":true,"internalType":"uint256","name":"itemId","type":"uint256"},{"indexed":false,"internalType":"enum TransparentSubsidySystem.Stage","name":"newStage","type":"uint8"}],"name":"ItemVerified","type":"event"},{"anonymous":false,"inputs":[{"indexed":true,"internalType":"uint256","name":"itemId","type":"uint256"},{"indexed":true,"internalType":"enum TransparentSubsidySystem.Stage","name":"stage","type":"uint8"},{"indexed":false,"internalType":"bytes32","name":"merkleRoot","type":"bytes32"}],"name":"MerkleRootSet","type":"event"},{"anonymous":false,"inputs":[{"indexed":true,"internalType":"bytes32","name":"role","type":"bytes32"},{"indexed":true,"internalType":"bytes32","name":"previousAdminRole","type":"bytes32"},{"indexed":true,"internalType":"bytes32","name":"newAdminRole","type":"bytes32"}],"name":"RoleAdminChanged","type":"event"},{"anonymous":false,"inputs":[{"indexed":true,"internalType":"bytes32","name":"role","type":"bytes32"},{"indexed":true,"internalType":"address","name":"account","type":"address"},{"indexed":true,"internalType":"address","name":"sender","type":"address"}],"name":"RoleGranted","type":"event"},{"anonymous":false,"inputs":[{"indexed":true,"internalType":"bytes32","name":"role","type":"bytes32"},{"indexed":true,"internalType":"address","name":"account","type":"address"},{"indexed":true,"internalType":"address","name":"sender","type":"address"}],"name":"RoleRevoked","type":"event"},{"anonymous":false,"inputs":[{"indexed":true,"internalType":"uint256","name":"itemId","type":"uint256"},{"indexed":true,"internalType":"address","name":"beneficiary","type":"address"},{"indexed":false,"internalType":"address","name":"claimedBy","type":"address"}],"name":"SubsidyClaimed","type":"event"},{"inputs":[],"name":"ADMIN_ROLE","outputs":[{"internalType":"bytes32","name":"","type":"bytes32"}],"stateMutability":"view","type":"function"},{"inputs":[],"name":"DEFAULT_ADMIN_ROLE","outputs":[{"internalType":"bytes32","name":"","type":"bytes32"}],"stateMutability":"view","type":"function"},{"inputs":[],"name":"DISTRIBUTOR_ROLE","outputs":[{"internalType":"bytes32","name":"","type":"bytes32"}],"stateMutability":"view","type":"function"},{"inputs":[],"name":"PROCESSOR_ROLE","outputs":[{"internalType":"bytes32","name":"","type":"bytes32"}],"stateMutability":"view","type":"function"},{"inputs":[],"name":"TRANSPORTER_ROLE","outputs":[{"internalType":"bytes32","name":"","type":"bytes32"}],"stateMutability":"view","type":"function"},{"inputs":[{"internalType":"uint256","name":"itemId","type":"uint256"},{"internalType":"enum TransparentSubsidySystem.Stage","name":"expectedCurrentStage","type":"uint8"}],"name":"adminVerify","outputs":[],"stateMutability":"nonpayable","type":"function"},{"inputs":[{"internalType":"uint256","name":"itemId","type":"uint256"},{"internalType":"enum TransparentSubsidySystem.Stage","name":"stage","type":"uint8"},{"internalType":"bytes32[]","name":"documentHashes","type":"bytes32[]"},{"internalType":"bytes32[][]","name":"proofs","type":"bytes32[][]"}],"name":"batchVerifyDocuments","outputs":[{"internalType":"bool","name":"allValid","type":"bool"}],"stateMutability":"view","type":"function"},{"inputs":[{"internalType":"uint256","name":"itemId","type":"uint256"}],"name":"beneficiaryClaim","outputs":[],"stateMutability":"nonpayable","type":"function"},{"inputs":[{"internalType":"uint256","name":"itemId","type":"uint256"}],"name":"cancelItem","outputs":[],"stateMutability":"nonpayable","type":"function"},{"inputs":[{"internalType":"address","name":"beneficiary","type":"address"},{"internalType":"string","name":"ipfsHash","type":"string"}],"name":"createItem","outputs":[],"stateMutability":"nonpayable","type":"function"},{"inputs":[{"internalType":"uint256","name":"itemId","type":"uint256"},{"internalType":"string","name":"ipfsHash","type":"string"}],"name":"distributorSubmit","outputs":[],"stateMutability":"nonpayable","type":"function"},{"inputs":[{"internalType":"uint256","name":"itemId","type":"uint256"}],"name":"getDocuments","outputs":[{"components":[{"internalType":"enum TransparentSubsidySystem.Stage","name":"stage","type":"uint8"},{"internalType":"string","name":"ipfsHash","type":"string"},{"internalType":"address","name":"uploader","type":"address"},{"internalType":"uint256","name":"timestamp","type":"uint256"}],"internalType":"struct TransparentSubsidySystem.Document[]","name":"","type":"tuple[]"}],"stateMutability":"view","type":"function"},{"inputs":[{"internalType":"uint256","name":"itemId","type":"uint256"}],"name":"getItem","outputs":[{"components":[{"internalType":"address","name":"beneficiary","type":"address"},{"internalType":"enum TransparentSubsidySystem.Stage","name":"stage","type":"uint8"},{"internalType":"bool","name":"claimed","type":"bool"},{"internalType":"string","name":"currentIpfsHash","type":"string"}],"internalType":"struct TransparentSubsidySystem.Item","name":"","type":"tuple"}],"stateMutability":"view","type":"function"},{"inputs":[{"internalType":"uint256","name":"itemId","type":"uint256"}],"name":"getItemMerkleRoot","outputs":[{"internalType":"bytes32","name":"root","type":"bytes32"}],"stateMutability":"view","type":"function"},{"inputs":[{"internalType":"uint256","name":"itemId","type":"uint256"},{"internalType":"enum TransparentSubsidySystem.Stage","name":"stage","type":"uint8"}],"name":"getMerkleRoot","outputs":[{"internalType":"bytes32","name":"root","type":"bytes32"}],"stateMutability":"view","type":"function"},{"inputs":[{"internalType":"bytes32","name":"role","type":"bytes32"}],"name":"getRoleAdmin","outputs":[{"internalType":"bytes32","name":"","type":"bytes32"}],"stateMutability":"view","type":"function"},{"inputs":[{"internalType":"bytes32","name":"role","type":"bytes32"},{"internalType":"address","name":"account","type":"address"}],"name":"grantRole","outputs":[],"stateMutability":"nonpayable","type":"function"},{"inputs":[{"internalType":"bytes32","name":"role","type":"bytes32"},{"internalType":"address","name":"account","type":"address"}],"name":"hasRole","outputs":[{"internalType":"bool","name":"","type":"bool"}],"stateMutability":"view","type":"function"},{"inputs":[],"name":"itemCount","outputs":[{"internalType":"uint256","name":"","type":"uint256"}],"stateMutability":"view","type":"function"},{"inputs":[{"internalType":"uint256","name":"","type":"uint256"}],"name":"itemMerkleRoots","outputs":[{"internalType":"bytes32","name":"","type":"bytes32"}],"stateMutability":"view","type":"function"},{"inputs":[{"internalType":"uint256","name":"","type":"uint256"}],"name":"items","outputs":[{"internalType":"address","name":"beneficiary","type":"address"},{"internalType":"enum TransparentSubsidySystem.Stage","name":"stage","type":"uint8"},{"internalType":"bool","name":"claimed","type":"bool"},{"internalType":"string","name":"currentIpfsHash","type":"string"}],"stateMutability":"view","type":"function"},{"inputs":[{"internalType":"bytes32","name":"role","type":"bytes32"},{"internalType":"address","name":"callerConfirmation","type":"address"}],"name":"renounceRole","outputs":[],"stateMutability":"nonpayable","type":"function"},{"inputs":[{"internalType":"bytes32","name":"role","type":"bytes32"},{"internalType":"address","name":"account","type":"address"}],"name":"revokeRole","outputs":[],"stateMutability":"nonpayable","type":"function"},{"inputs":[{"internalType":"uint256","name":"itemId","type":"uint256"},{"internalType":"enum TransparentSubsidySystem.Stage","name":"stage","type":"uint8"},{"internalType":"bytes32","name":"merkleRoot","type":"bytes32"}],"name":"setMerkleRoot","outputs":[],"stateMutability":"nonpayable","type":"function"},{"inputs":[{"internalType":"uint256","name":"","type":"uint256"},{"internalType":"enum TransparentSubsidySystem.Stage","name":"","type":"uint8"}],"name":"stageMerkleRoots","outputs":[{"internalType":"bytes32","name":"","type":"bytes32"}],"stateMutability":"view","type":"function"},{"inputs":[{"internalType":"bytes4","name":"interfaceId","type":"bytes4"}],"name":"supportsInterface","outputs":[{"internalType":"bool","name":"","type":"bool"}],"stateMutability":"view","type":"function"},{"inputs":[{"internalType":"uint256","name":"itemId","type":"uint256"},{"internalType":"string","name":"ipfsHash","type":"string"}],"name":"transporterSubmit","outputs":[],"stateMutability":"nonpayable","type":"function"},{"inputs":[{"internalType":"uint256","name":"itemId","type":"uint256"},{"internalType":"enum TransparentSubsidySystem.Stage","name":"stage","type":"uint8"},{"internalType":"bytes32","name":"documentHash","type":"bytes32"},{"internalType":"bytes32[]","name":"proof","type":"bytes32[]"}],"name":"verifyDocumentInclusion","outputs":[{"internalType":"bool","name":"valid","type":"bool"}],"stateMutability":"view","type":"function"}],"evm":{"bytecode":{"linkReferences":{},"object":"608060405234801561001057600080fd5b506100246000801b3361014b60201b60201c565b506100557fa49807205ce4d355092ef5a8a18f56e8913cf4a201fbe287825b095693c217753361014b60201b60201c565b506100a67fe61decff6e4a5c6b5a3d3cbd28f882e595173563b49353ce5f31dba2de7f05ee7fa49807205ce4d355092ef5a8a18f56e8913cf4a201fbe287825b095693c2177561024860201b60201c565b6100f67fddaa901e2fe3bda354fe0ede2785152d5c109282a613fe024a056a3e66c41bb37fa49807205ce4d355092ef5a8a18f56e8913cf4a201fbe287825b095693c2177561024860201b60201c565b6101467ffbd454f36a7e1a388bd6fc3ab10d434aa4578f811acbbcf33afb1c697486313c7fa49807205ce4d355092ef5a8a18f56e8913cf4a201fbe287825b095693c2177561024860201b60201c565b61033a565b600061015d83836102a960201b60201c565b61023d57600160008085815260200190815260200160002060000160008473ffffffffffffffffffffffffffffffffffffffff1673ffffffffffffffffffffffffffffffffffffffff16815260200190815260200160002060006101000a81548160ff0219169083151502179055506101da61031360201b60201c565b73ffffffffffffffffffffffffffffffffffffffff168273ffffffffffffffffffffffffffffffffffffffff16847f2f8788117e7eff1d82e926ec794901d17c78024a50270940304540a733656f0d60405160405180910390a460019050610242565b600090505b92915050565b60006102598361031b60201b60201c565b905081600080858152602001908152602001600020600101819055508181847fbd79b86ffe0ab8e8776151514217cd7cacd52c909f66475c3af44e129f0b00ff60405160405180910390a4505050565b600080600084815260200190815260200160002060000160008373ffffffffffffffffffffffffffffffffffffffff1673ffffffffffffffffffffffffffffffffffffffff16815260200190815260200160002060009054906101000a900460ff16905092915050565b600033905090565b6000806000838152602001908152602001600020600101549050919050565b613977806103496000396000f3fe608060405234801561001057600080fd5b50600436106101c45760003560e01c806375b238fc116100f9578063bfb231d211610097578063d547741f11610071578063d547741f14610552578063e9472e311461056e578063f0bd87cc1461058a578063f3ece9b7146105a8576101c4565b8063bfb231d2146104d3578063c0a78dc814610506578063c1b80a0814610522576101c4565b80639145325c116100d35780639145325c1461043957806391d1485414610455578063a211b17614610485578063a217fddf146104b5576101c4565b806375b238fc146103cd5780638222bdb2146103eb5780638b52700414610409576101c4565b80634eabbe771161016657806366e70a431161014057806366e70a43146103475780636bfb0d01146103635780636eb3b4e9146103815780637570f460146103b1576101c4565b80634eabbe77146102dd57806351563f8e146102fb57806360d9963114610317576101c4565b80632f2ff15d116101a25780632f2ff15d146102455780633129e7731461026157806336568abe146102915780634bb35279146102ad576101c4565b806301ffc9a7146101c9578063248a9ca3146101f957806326fb76c214610229575b600080fd5b6101e360048036038101906101de9190612443565b6105d8565b6040516101f0919061248b565b60405180910390f35b610213600480360381019061020e91906124dc565b610652565b6040516102209190612518565b60405180910390f35b610243600480360381019061023e91906125f6565b610671565b005b61025f600480360381019061025a9190612656565b610a77565b005b61027b600480360381019061027691906126cc565b610a99565b6040516102889190612881565b60405180910390f35b6102ab60048036038101906102a69190612656565b610c04565b005b6102c760048036038101906102c2919061291e565b610c7f565b6040516102d4919061248b565b60405180910390f35b6102e5610d3a565b6040516102f29190612518565b60405180910390f35b610315600480360381019061031091906126cc565b610d5e565b005b610331600480360381019061032c91906129a6565b610e50565b60405161033e9190612518565b60405180910390f35b610361600480360381019061035c91906129e6565b610e75565b005b61036b61112a565b6040516103789190612a55565b60405180910390f35b61039b600480360381019061039691906126cc565b611130565b6040516103a89190612ba4565b60405180910390f35b6103cb60048036038101906103c691906129e6565b6112cf565b005b6103d5611584565b6040516103e29190612518565b60405180910390f35b6103f36115a8565b6040516104009190612518565b60405180910390f35b610423600480360381019061041e91906126cc565b6115cc565b6040516104309190612518565b60405180910390f35b610453600480360381019061044e91906126cc565b6115e4565b005b61046f600480360381019061046a9190612656565b6118c1565b60405161047c919061248b565b60405180910390f35b61049f600480360381019061049a91906126cc565b61192b565b6040516104ac9190612518565b60405180910390f35b6104bd611948565b6040516104ca9190612518565b60405180910390f35b6104ed60048036038101906104e891906126cc565b61194f565b6040516104fd9493929190612c2e565b60405180910390f35b610520600480360381019061051b91906129a6565b611a41565b005b61053c600480360381019061053791906129a6565b611c9f565b6040516105499190612518565b60405180910390f35b61056c60048036038101906105679190612656565b611cf2565b005b61058860048036038101906105839190612c7a565b611d14565b005b610592611e99565b60405161059f9190612518565b60405180910390f35b6105c260048036038101906105bd9190612d23565b611ebd565b6040516105cf919061248b565b60405180910390f35b60007f7965db0b000000000000000000000000000000000000000000000000000000007bffffffffffffffffffffffffffffffffffffffffffffffffffffffff1916827bffffffffffffffffffffffffffffffffffffffffffffffffffffffff1916148061064b575061064a8261202c565b5b9050919050565b6000806000838152602001908152602001600020600101549050919050565b7fe61decff6e4a5c6b5a3d3cbd28f882e595173563b49353ce5f31dba2de7f05ee61069b81612096565b600073ffffffffffffffffffffffffffffffffffffffff168473ffffffffffffffffffffffffffffffffffffffff160361070a576040517f08c379a000000000000000000000000000000000000000000000000000000000815260040161070190612e16565b60405180910390fd5b6001600081548092919061071d90612e65565b919050555060405180608001604052808573ffffffffffffffffffffffffffffffffffffffff1681526020016000600781111561075d5761075c612708565b5b815260200160001515815260200184848080601f016020809104026020016040519081016040528093929190818152602001838380828437600081840152601f19601f8201169050808301925050505050505081525060026000600154815260200190815260200160002060008201518160000160006101000a81548173ffffffffffffffffffffffffffffffffffffffff021916908373ffffffffffffffffffffffffffffffffffffffff16021790555060208201518160000160146101000a81548160ff0219169083600781111561083a57610839612708565b5b021790555060408201518160000160156101000a81548160ff021916908315150217905550606082015181600101908161087491906130e8565b509050506005600060015481526020019081526020016000206040518060800160405280600060078111156108ac576108ab612708565b5b815260200185858080601f016020809104026020016040519081016040528093929190818152602001838380828437600081840152601f19601f8201169050808301925050505050505081526020013373ffffffffffffffffffffffffffffffffffffffff16815260200142815250908060018154018082558091505060019003906000526020600020906004020160009091909190915060008201518160000160006101000a81548160ff0219169083600781111561096f5761096e612708565b5b0217905550602082015181600101908161098991906130e8565b5060408201518160020160006101000a81548173ffffffffffffffffffffffffffffffffffffffff021916908373ffffffffffffffffffffffffffffffffffffffff1602179055506060820151816003015550508373ffffffffffffffffffffffffffffffffffffffff166001547f8ca92c70182d3487a5ee73b708d09ac562962a6ecffa317d6cd4f6beb31cae2c8585604051610a289291906131f6565b60405180910390a36001547f79fffd55b843ee7c60c7ee872ba77121146675737a0798438b7b57a44ac2cbe86000858533604051610a69949392919061321a565b60405180910390a250505050565b610a8082610652565b610a8981612096565b610a9383836120aa565b50505050565b610aa161238f565b600260008381526020019081526020016000206040518060800160405290816000820160009054906101000a900473ffffffffffffffffffffffffffffffffffffffff1673ffffffffffffffffffffffffffffffffffffffff1673ffffffffffffffffffffffffffffffffffffffff1681526020016000820160149054906101000a900460ff166007811115610b3a57610b39612708565b5b6007811115610b4c57610b4b612708565b5b81526020016000820160159054906101000a900460ff16151515158152602001600182018054610b7b90612f0b565b80601f0160208091040260200160405190810160405280929190818152602001828054610ba790612f0b565b8015610bf45780601f10610bc957610100808354040283529160200191610bf4565b820191906000526020600020905b815481529060010190602001808311610bd757829003601f168201915b5050505050815250509050919050565b610c0c61219b565b73ffffffffffffffffffffffffffffffffffffffff168173ffffffffffffffffffffffffffffffffffffffff1614610c70576040517f6697b23200000000000000000000000000000000000000000000000000000000815260040160405180910390fd5b610c7a82826121a3565b505050565b600080600460008881526020019081526020016000206000876007811115610caa57610ca9612708565b5b6007811115610cbc57610cbb612708565b5b81526020019081526020016000205490506000801b8103610ce1576000915050610d31565b610d2d848480806020026020016040519081016040528093929190818152602001838360200280828437600081840152601f19601f820116905080830192505050505050508287612295565b9150505b95945050505050565b7fddaa901e2fe3bda354fe0ede2785152d5c109282a613fe024a056a3e66c41bb381565b7fa49807205ce4d355092ef5a8a18f56e8913cf4a201fbe287825b095693c21775610d8881612096565b60006002600084815260200190815260200160002090508060000160159054906101000a900460ff1615610df1576040517f08c379a0000000000000000000000000000000000000000000000000000000008152600401610de8906132a6565b60405180910390fd5b60078160000160146101000a81548160ff02191690836007811115610e1957610e18612708565b5b0217905550827f6875ab0cd79fc59886259e999e56eb8da549fa524709389bc624972a5896995860405160405180910390a2505050565b6004602052816000526040600020602052806000526040600020600091509150505481565b7fddaa901e2fe3bda354fe0ede2785152d5c109282a613fe024a056a3e66c41bb3610e9f81612096565b60016007811115610eb357610eb2612708565b5b6002600086815260200190815260200160002060000160149054906101000a900460ff166007811115610ee957610ee8612708565b5b14610f29576040517f08c379a0000000000000000000000000000000000000000000000000000000008152600401610f2090613312565b60405180910390fd5b600060026000868152602001908152602001600020905060028160000160146101000a81548160ff02191690836007811115610f6857610f67612708565b5b02179055508383826001019182610f8092919061333d565b5060056000868152602001908152602001600020604051806080016040528060026007811115610fb357610fb2612708565b5b815260200186868080601f016020809104026020016040519081016040528093929190818152602001838380828437600081840152601f19601f8201169050808301925050505050505081526020013373ffffffffffffffffffffffffffffffffffffffff16815260200142815250908060018154018082558091505060019003906000526020600020906004020160009091909190915060008201518160000160006101000a81548160ff0219169083600781111561107657611075612708565b5b0217905550602082015181600101908161109091906130e8565b5060408201518160020160006101000a81548173ffffffffffffffffffffffffffffffffffffffff021916908373ffffffffffffffffffffffffffffffffffffffff160217905550606082015181600301555050847f79fffd55b843ee7c60c7ee872ba77121146675737a0798438b7b57a44ac2cbe8600286863360405161111b949392919061321a565b60405180910390a25050505050565b60015481565b606060056000838152602001908152602001600020805480602002602001604051908101604052809291908181526020016000905b828210156112c457838290600052602060002090600402016040518060800160405290816000820160009054906101000a900460ff1660078111156111ad576111ac612708565b5b60078111156111bf576111be612708565b5b81526020016001820180546111d390612f0b565b80601f01602080910402602001604051908101604052809291908181526020018280546111ff90612f0b565b801561124c5780601f106112215761010080835404028352916020019161124c565b820191906000526020600020905b81548152906001019060200180831161122f57829003601f168201915b505050505081526020016002820160009054906101000a900473ffffffffffffffffffffffffffffffffffffffff1673ffffffffffffffffffffffffffffffffffffffff1673ffffffffffffffffffffffffffffffffffffffff16815260200160038201548152505081526020019060010190611165565b505050509050919050565b7ffbd454f36a7e1a388bd6fc3ab10d434aa4578f811acbbcf33afb1c697486313c6112f981612096565b6003600781111561130d5761130c612708565b5b6002600086815260200190815260200160002060000160149054906101000a900460ff16600781111561134357611342612708565b5b14611383576040517f08c379a000000000000000000000000000000000000000000000000000000000815260040161137a90613459565b60405180910390fd5b600060026000868152602001908152602001600020905060048160000160146101000a81548160ff021916908360078111156113c2576113c1612708565b5b021790555083838260010191826113da92919061333d565b506005600086815260200190815260200160002060405180608001604052806004600781111561140d5761140c612708565b5b815260200186868080601f016020809104026020016040519081016040528093929190818152602001838380828437600081840152601f19601f8201169050808301925050505050505081526020013373ffffffffffffffffffffffffffffffffffffffff16815260200142815250908060018154018082558091505060019003906000526020600020906004020160009091909190915060008201518160000160006101000a81548160ff021916908360078111156114d0576114cf612708565b5b021790555060208201518160010190816114ea91906130e8565b5060408201518160020160006101000a81548173ffffffffffffffffffffffffffffffffffffffff021916908373ffffffffffffffffffffffffffffffffffffffff160217905550606082015181600301555050847f79fffd55b843ee7c60c7ee872ba77121146675737a0798438b7b57a44ac2cbe86004868633604051611575949392919061321a565b60405180910390a25050505050565b7fa49807205ce4d355092ef5a8a18f56e8913cf4a201fbe287825b095693c2177581565b7fe61decff6e4a5c6b5a3d3cbd28f882e595173563b49353ce5f31dba2de7f05ee81565b60036020528060005260406000206000915090505481565b60006002600083815260200190815260200160002090506005600781111561160f5761160e612708565b5b8160000160149054906101000a900460ff16600781111561163357611632612708565b5b14611673576040517f08c379a000000000000000000000000000000000000000000000000000000000815260040161166a906134eb565b60405180910390fd5b8060000160159054906101000a900460ff16156116c5576040517f08c379a00000000000000000000000000000000000000000000000000000000081526004016116bc90613557565b60405180910390fd5b60008160000160009054906101000a900473ffffffffffffffffffffffffffffffffffffffff1673ffffffffffffffffffffffffffffffffffffffff163373ffffffffffffffffffffffffffffffffffffffff1614905060006117487fa49807205ce4d355092ef5a8a18f56e8913cf4a201fbe287825b095693c21775336118c1565b8061177957506117787ffbd454f36a7e1a388bd6fc3ab10d434aa4578f811acbbcf33afb1c697486313c336118c1565b5b905081806117845750805b6117c3576040517f08c379a00000000000000000000000000000000000000000000000000000000081526004016117ba906135c3565b60405180910390fd5b60018360000160156101000a81548160ff02191690831515021790555060068360000160146101000a81548160ff0219169083600781111561180857611807612708565b5b02179055508260000160009054906101000a900473ffffffffffffffffffffffffffffffffffffffff1673ffffffffffffffffffffffffffffffffffffffff16847f6891ddc79eacea5f551daea1b822722765b992ed866f26698d8d31fa1982197e3360405161187891906135e3565b60405180910390a3837f79fffd55b843ee7c60c7ee872ba77121146675737a0798438b7b57a44ac2cbe86006336040516118b392919061364a565b60405180910390a250505050565b600080600084815260200190815260200160002060000160008373ffffffffffffffffffffffffffffffffffffffff1673ffffffffffffffffffffffffffffffffffffffff16815260200190815260200160002060009054906101000a900460ff16905092915050565b600060036000838152602001908152602001600020549050919050565b6000801b81565b60026020528060005260406000206000915090508060000160009054906101000a900473ffffffffffffffffffffffffffffffffffffffff16908060000160149054906101000a900460ff16908060000160159054906101000a900460ff16908060010180546119be90612f0b565b80601f01602080910402602001604051908101604052809291908181526020018280546119ea90612f0b565b8015611a375780601f10611a0c57610100808354040283529160200191611a37565b820191906000526020600020905b815481529060010190602001808311611a1a57829003601f168201915b5050505050905084565b7fa49807205ce4d355092ef5a8a18f56e8913cf4a201fbe287825b095693c21775611a6b81612096565b6000600260008581526020019081526020016000209050826007811115611a9557611a94612708565b5b8160000160149054906101000a900460ff166007811115611ab957611ab8612708565b5b14611af9576040517f08c379a0000000000000000000000000000000000000000000000000000000008152600401611af0906136d2565b60405180910390fd5b60006007811115611b0d57611b0c612708565b5b836007811115611b2057611b1f612708565b5b03611b575760018160000160146101000a81548160ff02191690836007811115611b4d57611b4c612708565b5b0217905550611c50565b60026007811115611b6b57611b6a612708565b5b836007811115611b7e57611b7d612708565b5b03611bb55760038160000160146101000a81548160ff02191690836007811115611bab57611baa612708565b5b0217905550611c4f565b60046007811115611bc957611bc8612708565b5b836007811115611bdc57611bdb612708565b5b03611c135760058160000160146101000a81548160ff02191690836007811115611c0957611c08612708565b5b0217905550611c4e565b6040517f08c379a0000000000000000000000000000000000000000000000000000000008152600401611c4590613764565b60405180910390fd5b5b5b837ff32674b104c9036b14a2a04e80d007566495fdd06961275efcf1016491d6cd078260000160149054906101000a900460ff16604051611c919190613784565b60405180910390a250505050565b6000600460008481526020019081526020016000206000836007811115611cc957611cc8612708565b5b6007811115611cdb57611cda612708565b5b815260200190815260200160002054905092915050565b611cfb82610652565b611d0481612096565b611d0e83836121a3565b50505050565b7fa49807205ce4d355092ef5a8a18f56e8913cf4a201fbe287825b095693c21775611d3e81612096565b600073ffffffffffffffffffffffffffffffffffffffff166002600086815260200190815260200160002060000160009054906101000a900473ffffffffffffffffffffffffffffffffffffffff1673ffffffffffffffffffffffffffffffffffffffff1603611de3576040517f08c379a0000000000000000000000000000000000000000000000000000000008152600401611dda906137eb565b60405180910390fd5b81600460008681526020019081526020016000206000856007811115611e0c57611e0b612708565b5b6007811115611e1e57611e1d612708565b5b815260200190815260200160002081905550816003600086815260200190815260200160002081905550826007811115611e5b57611e5a612708565b5b847f56eb2385ade678af1e07640803bf289be7b35bca5e06e93e08f8a2f5b936d0d884604051611e8b9190612518565b60405180910390a350505050565b7ffbd454f36a7e1a388bd6fc3ab10d434aa4578f811acbbcf33afb1c697486313c81565b6000828290508585905014611f07576040517f08c379a0000000000000000000000000000000000000000000000000000000008152600401611efe90613857565b60405180910390fd5b60005b8585905081101561201c576000600460008a81526020019081526020016000206000896007811115611f3f57611f3e612708565b5b6007811115611f5157611f50612708565b5b81526020019081526020016000205490506000801b8103611f7757600092505050612022565b611fff858584818110611f8d57611f8c613877565b5b9050602002810190611f9f91906138b5565b80806020026020016040519081016040528093929190818152602001838360200280828437600081840152601f19601f8201169050808301925050505050505082898986818110611ff357611ff2613877565b5b90506020020135612295565b61200e57600092505050612022565b508080600101915050611f0a565b50600190505b9695505050505050565b60007f01ffc9a7000000000000000000000000000000000000000000000000000000007bffffffffffffffffffffffffffffffffffffffffffffffffffffffff1916827bffffffffffffffffffffffffffffffffffffffffffffffffffffffff1916149050919050565b6120a7816120a261219b565b6122ac565b50565b60006120b683836118c1565b61219057600160008085815260200190815260200160002060000160008473ffffffffffffffffffffffffffffffffffffffff1673ffffffffffffffffffffffffffffffffffffffff16815260200190815260200160002060006101000a81548160ff02191690831515021790555061212d61219b565b73ffffffffffffffffffffffffffffffffffffffff168273ffffffffffffffffffffffffffffffffffffffff16847f2f8788117e7eff1d82e926ec794901d17c78024a50270940304540a733656f0d60405160405180910390a460019050612195565b600090505b92915050565b600033905090565b60006121af83836118c1565b1561228a57600080600085815260200190815260200160002060000160008473ffffffffffffffffffffffffffffffffffffffff1673ffffffffffffffffffffffffffffffffffffffff16815260200190815260200160002060006101000a81548160ff02191690831515021790555061222761219b565b73ffffffffffffffffffffffffffffffffffffffff168273ffffffffffffffffffffffffffffffffffffffff16847ff6391f5c32d9c69d2a47ea670b442974b53935d1edc7fd64eb21e047a839171b60405160405180910390a46001905061228f565b600090505b92915050565b6000826122a285846122fd565b1490509392505050565b6122b682826118c1565b6122f95780826040517fe2517d3f0000000000000000000000000000000000000000000000000000000081526004016122f0929190613918565b60405180910390fd5b5050565b60008082905060005b8451811015612342576123338286838151811061232657612325613877565b5b602002602001015161234d565b91508080600101915050612306565b508091505092915050565b6000818310612365576123608284612378565b612370565b61236f8383612378565b5b905092915050565b600082600052816020526040600020905092915050565b6040518060800160405280600073ffffffffffffffffffffffffffffffffffffffff168152602001600060078111156123cb576123ca612708565b5b8152602001600015158152602001606081525090565b600080fd5b600080fd5b60007fffffffff0000000000000000000000000000000000000000000000000000000082169050919050565b612420816123eb565b811461242b57600080fd5b50565b60008135905061243d81612417565b92915050565b600060208284031215612459576124586123e1565b5b60006124678482850161242e565b91505092915050565b60008115159050919050565b61248581612470565b82525050565b60006020820190506124a0600083018461247c565b92915050565b6000819050919050565b6124b9816124a6565b81146124c457600080fd5b50565b6000813590506124d6816124b0565b92915050565b6000602082840312156124f2576124f16123e1565b5b6000612500848285016124c7565b91505092915050565b612512816124a6565b82525050565b600060208201905061252d6000830184612509565b92915050565b600073ffffffffffffffffffffffffffffffffffffffff82169050919050565b600061255e82612533565b9050919050565b61256e81612553565b811461257957600080fd5b50565b60008135905061258b81612565565b92915050565b600080fd5b600080fd5b600080fd5b60008083601f8401126125b6576125b5612591565b5b8235905067ffffffffffffffff8111156125d3576125d2612596565b5b6020830191508360018202830111156125ef576125ee61259b565b5b9250929050565b60008060006040848603121561260f5761260e6123e1565b5b600061261d8682870161257c565b935050602084013567ffffffffffffffff81111561263e5761263d6123e6565b5b61264a868287016125a0565b92509250509250925092565b6000806040838503121561266d5761266c6123e1565b5b600061267b858286016124c7565b925050602061268c8582860161257c565b9150509250929050565b6000819050919050565b6126a981612696565b81146126b457600080fd5b50565b6000813590506126c6816126a0565b92915050565b6000602082840312156126e2576126e16123e1565b5b60006126f0848285016126b7565b91505092915050565b61270281612553565b82525050565b7f4e487b7100000000000000000000000000000000000000000000000000000000600052602160045260246000fd5b6008811061274857612747612708565b5b50565b600081905061275982612737565b919050565b60006127698261274b565b9050919050565b6127798161275e565b82525050565b61278881612470565b82525050565b600081519050919050565b600082825260208201905092915050565b60005b838110156127c85780820151818401526020810190506127ad565b60008484015250505050565b6000601f19601f8301169050919050565b60006127f08261278e565b6127fa8185612799565b935061280a8185602086016127aa565b612813816127d4565b840191505092915050565b600060808301600083015161283660008601826126f9565b5060208301516128496020860182612770565b50604083015161285c604086018261277f565b506060830151848203606086015261287482826127e5565b9150508091505092915050565b6000602082019050818103600083015261289b818461281e565b905092915050565b600881106128b057600080fd5b50565b6000813590506128c2816128a3565b92915050565b60008083601f8401126128de576128dd612591565b5b8235905067ffffffffffffffff8111156128fb576128fa612596565b5b6020830191508360208202830111156129175761291661259b565b5b9250929050565b60008060008060006080868803121561293a576129396123e1565b5b6000612948888289016126b7565b9550506020612959888289016128b3565b945050604061296a888289016124c7565b935050606086013567ffffffffffffffff81111561298b5761298a6123e6565b5b612997888289016128c8565b92509250509295509295909350565b600080604083850312156129bd576129bc6123e1565b5b60006129cb858286016126b7565b92505060206129dc858286016128b3565b9150509250929050565b6000806000604084860312156129ff576129fe6123e1565b5b6000612a0d868287016126b7565b935050602084013567ffffffffffffffff811115612a2e57612a2d6123e6565b5b612a3a868287016125a0565b92509250509250925092565b612a4f81612696565b82525050565b6000602082019050612a6a6000830184612a46565b92915050565b600081519050919050565b600082825260208201905092915050565b6000819050602082019050919050565b612aa581612696565b82525050565b6000608083016000830151612ac36000860182612770565b5060208301518482036020860152612adb82826127e5565b9150506040830151612af060408601826126f9565b506060830151612b036060860182612a9c565b508091505092915050565b6000612b1a8383612aab565b905092915050565b6000602082019050919050565b6000612b3a82612a70565b612b448185612a7b565b935083602082028501612b5685612a8c565b8060005b85811015612b925784840389528151612b738582612b0e565b9450612b7e83612b22565b925060208a01995050600181019050612b5a565b50829750879550505050505092915050565b60006020820190508181036000830152612bbe8184612b2f565b905092915050565b612bcf81612553565b82525050565b612bde8161275e565b82525050565b600082825260208201905092915050565b6000612c008261278e565b612c0a8185612be4565b9350612c1a8185602086016127aa565b612c23816127d4565b840191505092915050565b6000608082019050612c436000830187612bc6565b612c506020830186612bd5565b612c5d604083018561247c565b8181036060830152612c6f8184612bf5565b905095945050505050565b600080600060608486031215612c9357612c926123e1565b5b6000612ca1868287016126b7565b9350506020612cb2868287016128b3565b9250506040612cc3868287016124c7565b9150509250925092565b60008083601f840112612ce357612ce2612591565b5b8235905067ffffffffffffffff811115612d0057612cff612596565b5b602083019150836020820283011115612d1c57612d1b61259b565b5b9250929050565b60008060008060008060808789031215612d4057612d3f6123e1565b5b6000612d4e89828a016126b7565b9650506020612d5f89828a016128b3565b955050604087013567ffffffffffffffff811115612d8057612d7f6123e6565b5b612d8c89828a016128c8565b9450945050606087013567ffffffffffffffff811115612daf57612dae6123e6565b5b612dbb89828a01612ccd565b92509250509295509295509295565b7f496e76616c69642062656e656669636961727900000000000000000000000000600082015250565b6000612e00601383612be4565b9150612e0b82612dca565b602082019050919050565b60006020820190508181036000830152612e2f81612df3565b9050919050565b7f4e487b7100000000000000000000000000000000000000000000000000000000600052601160045260246000fd5b6000612e7082612696565b91507fffffffffffffffffffffffffffffffffffffffffffffffffffffffffffffffff8203612ea257612ea1612e36565b5b600182019050919050565b7f4e487b7100000000000000000000000000000000000000000000000000000000600052604160045260246000fd5b7f4e487b7100000000000000000000000000000000000000000000000000000000600052602260045260246000fd5b60006002820490506001821680612f2357607f821691505b602082108103612f3657612f35612edc565b5b50919050565b60008190508160005260206000209050919050565b60006020601f8301049050919050565b600082821b905092915050565b600060088302612f9e7fffffffffffffffffffffffffffffffffffffffffffffffffffffffffffffffff82612f61565b612fa88683612f61565b95508019841693508086168417925050509392505050565b6000819050919050565b6000612fe5612fe0612fdb84612696565b612fc0565b612696565b9050919050565b6000819050919050565b612fff83612fca565b61301361300b82612fec565b848454612f6e565b825550505050565b600090565b61302861301b565b613033818484612ff6565b505050565b5b818110156130575761304c600082613020565b600181019050613039565b5050565b601f82111561309c5761306d81612f3c565b61307684612f51565b81016020851015613085578190505b61309961309185612f51565b830182613038565b50505b505050565b600082821c905092915050565b60006130bf600019846008026130a1565b1980831691505092915050565b60006130d883836130ae565b9150826002028217905092915050565b6130f18261278e565b67ffffffffffffffff81111561310a57613109612ead565b5b6131148254612f0b565b61311f82828561305b565b600060209050601f8311600181146131525760008415613140578287015190505b61314a85826130cc565b8655506131b2565b601f19841661316086612f3c565b60005b8281101561318857848901518255600182019150602085019450602081019050613163565b868310156131a557848901516131a1601f8916826130ae565b8355505b6001600288020188555050505b505050505050565b82818337600083830152505050565b60006131d58385612be4565b93506131e28385846131ba565b6131eb836127d4565b840190509392505050565b600060208201905081810360008301526132118184866131c9565b90509392505050565b600060608201905061322f6000830187612bd5565b81810360208301526132428185876131c9565b90506132516040830184612bc6565b95945050505050565b7f43616e6e6f742063616e63656c206120636c61696d6564206974656d00000000600082015250565b6000613290601c83612be4565b915061329b8261325a565b602082019050919050565b600060208201905081810360008301526132bf81613283565b9050919050565b7f48616e646f766572206e6f742076657269666965642062792041646d696e0000600082015250565b60006132fc601e83612be4565b9150613307826132c6565b602082019050919050565b6000602082019050818103600083015261332b816132ef565b9050919050565b600082905092915050565b6133478383613332565b67ffffffffffffffff8111156133605761335f612ead565b5b61336a8254612f0b565b61337582828561305b565b6000601f8311600181146133a45760008415613392578287013590505b61339c85826130cc565b865550613404565b601f1984166133b286612f3c565b60005b828110156133da578489013582556001820191506020850194506020810190506133b5565b868310156133f757848901356133f3601f8916826130ae565b8355505b6001600288020188555050505b50505050505050565b7f4974656d206e6f7420696e207472616e73697400000000000000000000000000600082015250565b6000613443601383612be4565b915061344e8261340d565b602082019050919050565b6000602082019050818103600083015261347281613436565b9050919050565b7f44656c6976657279206e6f742076657269666965642062792041646d696e207960008201527f6574000000000000000000000000000000000000000000000000000000000000602082015250565b60006134d5602283612be4565b91506134e082613479565b604082019050919050565b60006020820190508181036000830152613504816134c8565b9050919050565b7f416c726561647920636c61696d65640000000000000000000000000000000000600082015250565b6000613541600f83612be4565b915061354c8261350b565b602082019050919050565b6000602082019050818103600083015261357081613534565b9050919050565b7f556e617574686f72697a65640000000000000000000000000000000000000000600082015250565b60006135ad600c83612be4565b91506135b882613577565b602082019050919050565b600060208201905081810360008301526135dc816135a0565b9050919050565b60006020820190506135f86000830184612bc6565b92915050565b7f697066733a2f2f436c61696d6564000000000000000000000000000000000000600082015250565b6000613634600e83612be4565b915061363f826135fe565b602082019050919050565b600060608201905061365f6000830185612bd5565b818103602083015261367081613627565b905061367f6040830184612bc6565b9392505050565b7f5374616765206d69736d6174636820666f7220766572696669636174696f6e00600082015250565b60006136bc601f83612be4565b91506136c782613686565b602082019050919050565b600060208201905081810360008301526136eb816136af565b9050919050565b7f546869732073746167652063616e6e6f7420626520766572696669656420627960008201527f2041646d696e206469726563746c790000000000000000000000000000000000602082015250565b600061374e602f83612be4565b9150613759826136f2565b604082019050919050565b6000602082019050818103600083015261377d81613741565b9050919050565b60006020820190506137996000830184612bd5565b92915050565b7f4974656d20646f6573206e6f7420657869737400000000000000000000000000600082015250565b60006137d5601383612be4565b91506137e08261379f565b602082019050919050565b60006020820190508181036000830152613804816137c8565b9050919050565b7f4172726179206c656e677468206d69736d617463680000000000000000000000600082015250565b6000613841601583612be4565b915061384c8261380b565b602082019050919050565b6000602082019050818103600083015261387081613834565b9050919050565b7f4e487b7100000000000000000000000000000000000000000000000000000000600052603260045260246000fd5b600080fd5b600080fd5b600080fd5b600080833560016020038436030381126138d2576138d16138a6565b5b80840192508235915067ffffffffffffffff8211156138f4576138f36138ab565b5b6020830192506020820236038313156139105761390f6138b0565b5b509250929050565b600060408201905061392d6000830185612bc6565b61393a6020830184612509565b939250505056fea26469706673582212206f98a8cd52ced176f48b6e29ba20fe7d1f3d11199016afe57b771a0dab75a59764736f6c634300081c0033","opcodes":"PUSH1 0x80 PUSH1 0x40 MSTORE CALLVALUE DUP1 ISZERO PUSH2 0x10 JUMPI PUSH1 0x0 DUP1 REVERT JUMPDEST POP PUSH2 0x24 PUSH1 0x0 DUP1 SHL CALLER PUSH2 0x14B PUSH1 0x20 SHL PUSH1 0x20 SHR JUMP JUMPDEST POP PUSH2 0x55 PUSH32 0xA49807205CE4D355092EF5A8A18F56E8913CF4A201FBE287825B095693C21775 CALLER PUSH2 0x14B PUSH1 0x20 SHL PUSH1 0x20 SHR JUMP JUMPDEST POP PUSH2 0xA6 PUSH32 0xE61DECFF6E4A5C6B5A3D3CBD28F882E595173563B49353CE5F31DBA2DE7F05EE PUSH32 0xA49807205CE4D355092EF5A8A18F56E8913CF4A201FBE287825B095693C21775 PUSH2 0x248 PUSH1 0x20 SHL PUSH1 0x20 SHR JUMP JUMPDEST PUSH2 0xF6 PUSH32 0xDDAA901E2FE3BDA354FE0EDE2785152D5C109282A613FE024A056A3E66C41BB3 PUSH32 0xA49807205CE4D355092EF5A8A18F56E8913CF4A201FBE287825B095693C21775 PUSH2 0x248 PUSH1 0x20 SHL PUSH1 0x20 SHR JUMP JUMPDEST PUSH2 0x146 PUSH32 0xFBD454F36A7E1A388BD6FC3AB10D434AA4578F811ACBBCF33AFB1C697486313C PUSH32 0xA49807205CE4D355092EF5A8A18F56E8913CF4A201FBE287825B095693C21775 PUSH2 0x248 PUSH1 0x20 SHL PUSH1 0x20 SHR JUMP JUMPDEST PUSH2 0x33A JUMP JUMPDEST PUSH1 0x0 PUSH2 0x15D DUP4 DUP4 PUSH2 0x2A9 PUSH1 0x20 SHL PUSH1 0x20 SHR JUMP JUMPDEST PUSH2 0x23D JUMPI PUSH1 0x1 PUSH1 0x0 DUP1 DUP6 DUP2 MSTORE PUSH1 0x20 ADD SWAP1 DUP2 MSTORE PUSH1 0x20 ADD PUSH1 0x0 KECCAK256 PUSH1 0x0 ADD PUSH1 0x0 DUP5 PUSH20 0xFFFFFFFFFFFFFFFFFFFFFFFFFFFFFFFFFFFFFFFF AND PUSH20 0xFFFFFFFFFFFFFFFFFFFFFFFFFFFFFFFFFFFFFFFF AND DUP2 MSTORE PUSH1 0x20 ADD SWAP1 DUP2 MSTORE PUSH1 0x20 ADD PUSH1 0x0 KECCAK256 PUSH1 0x0 PUSH2 0x100 EXP DUP2 SLOAD DUP2 PUSH1 0xFF MUL NOT AND SWAP1 DUP4 ISZERO ISZERO MUL OR SWAP1 SSTORE POP PUSH2 0x1DA PUSH2 0x313 PUSH1 0x20 SHL PUSH1 0x20 SHR JUMP JUMPDEST PUSH20 0xFFFFFFFFFFFFFFFFFFFFFFFFFFFFFFFFFFFFFFFF AND DUP3 PUSH20 0xFFFFFFFFFFFFFFFFFFFFFFFFFFFFFFFFFFFFFFFF AND DUP5 PUSH32 0x2F8788117E7EFF1D82E926EC794901D17C78024A50270940304540A733656F0D PUSH1 0x40 MLOAD PUSH1 0x40 MLOAD DUP1 SWAP2 SUB SWAP1 LOG4 PUSH1 0x1 SWAP1 POP PUSH2 0x242 JUMP JUMPDEST PUSH1 0x0 SWAP1 POP JUMPDEST SWAP3 SWAP2 POP POP JUMP JUMPDEST PUSH1 0x0 PUSH2 0x259 DUP4 PUSH2 0x31B PUSH1 0x20 SHL PUSH1 0x20 SHR JUMP JUMPDEST SWAP1 POP DUP2 PUSH1 0x0 DUP1 DUP6 DUP2 MSTORE PUSH1 0x20 ADD SWAP1 DUP2 MSTORE PUSH1 0x20 ADD PUSH1 0x0 KECCAK256 PUSH1 0x1 ADD DUP2 SWAP1 SSTORE POP DUP2 DUP2 DUP5 PUSH32 0xBD79B86FFE0AB8E8776151514217CD7CACD52C909F66475C3AF44E129F0B00FF PUSH1 0x40 MLOAD PUSH1 0x40 MLOAD DUP1 SWAP2 SUB SWAP1 LOG4 POP POP POP JUMP JUMPDEST PUSH1 0x0 DUP1 PUSH1 0x0 DUP5 DUP2 MSTORE PUSH1 0x20 ADD SWAP1 DUP2 MSTORE PUSH1 0x20 ADD PUSH1 0x0 KECCAK256 PUSH1 0x0 ADD PUSH1 0x0 DUP4 PUSH20 0xFFFFFFFFFFFFFFFFFFFFFFFFFFFFFFFFFFFFFFFF AND PUSH20 0xFFFFFFFFFFFFFFFFFFFFFFFFFFFFFFFFFFFFFFFF AND DUP2 MSTORE PUSH1 0x20 ADD SWAP1 DUP2 MSTORE PUSH1 0x20 ADD PUSH1 0x0 KECCAK256 PUSH1 0x0 SWAP1 SLOAD SWAP1 PUSH2 0x100 EXP SWAP1 DIV PUSH1 0xFF AND SWAP1 POP SWAP3 SWAP2 POP POP JUMP JUMPDEST PUSH1 0x0 CALLER SWAP1 POP SWAP1 JUMP JUMPDEST PUSH1 0x0 DUP1 PUSH1 0x0 DUP4 DUP2 MSTORE PUSH1 0x20 ADD SWAP1 DUP2 MSTORE PUSH1 0x20 ADD PUSH1 0x0 KECCAK256 PUSH1 0x1 ADD SLOAD SWAP1 POP SWAP2 SWAP1 POP JUMP JUMPDEST PUSH2 0x3977 DUP1 PUSH2 0x349 PUSH1 0x0 CODECOPY PUSH1 0x0 RETURN INVALID PUSH1 0x80 PUSH1 0x40 MSTORE CALLVALUE DUP1 ISZERO PUSH2 0x10 JUMPI PUSH1 0x0 DUP1 REVERT JUMPDEST POP PUSH1 0x4 CALLDATASIZE LT PUSH2 0x1C4 JUMPI PUSH1 0x0 CALLDATALOAD PUSH1 0xE0 SHR DUP1 PUSH4 0x75B238FC GT PUSH2 0xF9 JUMPI DUP1 PUSH4 0xBFB231D2 GT PUSH2 0x97 JUMPI DUP1 PUSH4 0xD547741F GT PUSH2 0x71 JUMPI DUP1 PUSH4 0xD547741F EQ PUSH2 0x552 JUMPI DUP1 PUSH4 0xE9472E31 EQ PUSH2 0x56E JUMPI DUP1 PUSH4 0xF0BD87CC EQ PUSH2 0x58A JUMPI DUP1 PUSH4 0xF3ECE9B7 EQ PUSH2 0x5A8 JUMPI PUSH2 0x1C4 JUMP JUMPDEST DUP1 PUSH4 0xBFB231D2 EQ PUSH2 0x4D3 JUMPI DUP1 PUSH4 0xC0A78DC8 EQ PUSH2 0x506 JUMPI DUP1 PUSH4 0xC1B80A08 EQ PUSH2 0x522 JUMPI PUSH2 0x1C4 JUMP JUMPDEST DUP1 PUSH4 0x9145325C GT PUSH2 0xD3 JUMPI DUP1 PUSH4 0x9145325C EQ PUSH2 0x439 JUMPI DUP1 PUSH4 0x91D14854 EQ PUSH2 0x455 JUMPI DUP1 PUSH4 0xA211B176 EQ PUSH2 0x485 JUMPI DUP1 PUSH4 0xA217FDDF EQ PUSH2 0x4B5 JUMPI PUSH2 0x1C4 JUMP JUMPDEST DUP1 PUSH4 0x75B238FC EQ PUSH2 0x3CD JUMPI DUP1 PUSH4 0x8222BDB2 EQ PUSH2 0x3EB JUMPI DUP1 PUSH4 0x8B527004 EQ PUSH2 0x409 JUMPI PUSH2 0x1C4 JUMP JUMPDEST DUP1 PUSH4 0x4EABBE77 GT PUSH2 0x166 JUMPI DUP1 PUSH4 0x66E70A43 GT PUSH2 0x140 JUMPI DUP1 PUSH4 0x66E70A43 EQ PUSH2 0x347 JUMPI DUP1 PUSH4 0x6BFB0D01 EQ PUSH2 0x363 JUMPI DUP1 PUSH4 0x6EB3B4E9 EQ PUSH2 0x381 JUMPI DUP1 PUSH4 0x7570F460 EQ PUSH2 0x3B1 JUMPI PUSH2 0x1C4 JUMP JUMPDEST DUP1 PUSH4 0x4EABBE77 EQ PUSH2 0x2DD JUMPI DUP1 PUSH4 0x51563F8E EQ PUSH2 0x2FB JUMPI DUP1 PUSH4 0x60D99631 EQ PUSH2 0x317 JUMPI PUSH2 0x1C4 JUMP JUMPDEST DUP1 PUSH4 0x2F2FF15D GT PUSH2 0x1A2 JUMPI DUP1 PUSH4 0x2F2FF15D EQ PUSH2 0x245 JUMPI DUP1 PUSH4 0x3129E773 EQ PUSH2 0x261 JUMPI DUP1 PUSH4 0x36568ABE EQ PUSH2 0x291 JUMPI DUP1 PUSH4 0x4BB35279 EQ PUSH2 0x2AD JUMPI PUSH2 0x1C4 JUMP JUMPDEST DUP1 PUSH4 0x1FFC9A7 EQ PUSH2 0x1C9 JUMPI DUP1 PUSH4 0x248A9CA3 EQ PUSH2 0x1F9 JUMPI DUP1 PUSH4 0x26FB76C2 EQ PUSH2 0x229 JUMPI JUMPDEST PUSH1 0x0 DUP1 REVERT JUMPDEST PUSH2 0x1E3 PUSH1 0x4 DUP1 CALLDATASIZE SUB DUP2 ADD SWAP1 PUSH2 0x1DE SWAP2 SWAP1 PUSH2 0x2443 JUMP JUMPDEST PUSH2 0x5D8 JUMP JUMPDEST PUSH1 0x40 MLOAD PUSH2 0x1F0 SWAP2 SWAP1 PUSH2 0x248B JUMP JUMPDEST PUSH1 0x40 MLOAD DUP1 SWAP2 SUB SWAP1 RETURN JUMPDEST PUSH2 0x213 PUSH1 0x4 DUP1 CALLDATASIZE SUB DUP2 ADD SWAP1 PUSH2 0x20E SWAP2 SWAP1 PUSH2 0x24DC JUMP JUMPDEST PUSH2 0x652 JUMP JUMPDEST PUSH1 0x40 MLOAD PUSH2 0x220 SWAP2 SWAP1 PUSH2 0x2518 JUMP JUMPDEST PUSH1 0x40 MLOAD DUP1 SWAP2 SUB SWAP1 RETURN JUMPDEST PUSH2 0x243 PUSH1 0x4 DUP1 CALLDATASIZE SUB DUP2 ADD SWAP1 PUSH2 0x23E SWAP2 SWAP1 PUSH2 0x25F6 JUMP JUMPDEST PUSH2 0x671 JUMP JUMPDEST STOP JUMPDEST PUSH2 0x25F PUSH1 0x4 DUP1 CALLDATASIZE SUB DUP2 ADD SWAP1 PUSH2 0x25A SWAP2 SWAP1 PUSH2 0x2656 JUMP JUMPDEST PUSH2 0xA77 JUMP JUMPDEST STOP JUMPDEST PUSH2 0x27B PUSH1 0x4 DUP1 CALLDATASIZE SUB DUP2 ADD SWAP1 PUSH2 0x276 SWAP2 SWAP1 PUSH2 0x26CC JUMP JUMPDEST PUSH2 0xA99 JUMP JUMPDEST PUSH1 0x40 MLOAD PUSH2 0x288 SWAP2 SWAP1 PUSH2 0x2881 JUMP JUMPDEST PUSH1 0x40 MLOAD DUP1 SWAP2 SUB SWAP1 RETURN JUMPDEST PUSH2 0x2AB PUSH1 0x4 DUP1 CALLDATASIZE SUB DUP2 ADD SWAP1 PUSH2 0x2A6 SWAP2 SWAP1 PUSH2 0x2656 JUMP JUMPDEST PUSH2 0xC04 JUMP JUMPDEST STOP JUMPDEST PUSH2 0x2C7 PUSH1 0x4 DUP1 CALLDATASIZE SUB DUP2 ADD SWAP1 PUSH2 0x2C2 SWAP2 SWAP1 PUSH2 0x291E JUMP JUMPDEST PUSH2 0xC7F JUMP JUMPDEST PUSH1 0x40 MLOAD PUSH2 0x2D4 SWAP2 SWAP1 PUSH2 0x248B JUMP JUMPDEST PUSH1 0x40 MLOAD DUP1 SWAP2 SUB SWAP1 RETURN JUMPDEST PUSH2 0x2E5 PUSH2 0xD3A JUMP JUMPDEST PUSH1 0x40 MLOAD PUSH2 0x2F2 SWAP2 SWAP1 PUSH2 0x2518 JUMP JUMPDEST PUSH1 0x40 MLOAD DUP1 SWAP2 SUB SWAP1 RETURN JUMPDEST PUSH2 0x315 PUSH1 0x4 DUP1 CALLDATASIZE SUB DUP2 ADD SWAP1 PUSH2 0x310 SWAP2 SWAP1 PUSH2 0x26CC JUMP JUMPDEST PUSH2 0xD5E JUMP JUMPDEST STOP JUMPDEST PUSH2 0x331 PUSH1 0x4 DUP1 CALLDATASIZE SUB DUP2 ADD SWAP1 PUSH2 0x32C SWAP2 SWAP1 PUSH2 0x29A6 JUMP JUMPDEST PUSH2 0xE50 JUMP JUMPDEST PUSH1 0x40 MLOAD PUSH2 0x33E SWAP2 SWAP1 PUSH2 0x2518 JUMP JUMPDEST PUSH1 0x40 MLOAD DUP1 SWAP2 SUB SWAP1 RETURN JUMPDEST PUSH2 0x361 PUSH1 0x4 DUP1 CALLDATASIZE SUB DUP2 ADD SWAP1 PUSH2 0x35C SWAP2 SWAP1 PUSH2 0x29E6 JUMP JUMPDEST PUSH2 0xE75 JUMP JUMPDEST STOP JUMPDEST PUSH2 0x36B PUSH2 0x112A JUMP JUMPDEST PUSH1 0x40 MLOAD PUSH2 0x378 SWAP2 SWAP1 PUSH2 0x2A55 JUMP JUMPDEST PUSH1 0x40 MLOAD DUP1 SWAP2 SUB SWAP1 RETURN JUMPDEST PUSH2 0x39B PUSH1 0x4 DUP1 CALLDATASIZE SUB DUP2 ADD SWAP1 PUSH2 0x396 SWAP2 SWAP1 PUSH2 0x26CC JUMP JUMPDEST PUSH2 0x1130 JUMP JUMPDEST PUSH1 0x40 MLOAD PUSH2 0x3A8 SWAP2 SWAP1 PUSH2 0x2BA4 JUMP JUMPDEST PUSH1 0x40 MLOAD DUP1 SWAP2 SUB SWAP1 RETURN JUMPDEST PUSH2 0x3CB PUSH1 0x4 DUP1 CALLDATASIZE SUB DUP2 ADD SWAP1 PUSH2 0x3C6 SWAP2 SWAP1 PUSH2 0x29E6 JUMP JUMPDEST PUSH2 0x12CF JUMP JUMPDEST STOP JUMPDEST PUSH2 0x3D5 PUSH2 0x1584 JUMP JUMPDEST PUSH1 0x40 MLOAD PUSH2 0x3E2 SWAP2 SWAP1 PUSH2 0x2518 JUMP JUMPDEST PUSH1 0x40 MLOAD DUP1 SWAP2 SUB SWAP1 RETURN JUMPDEST PUSH2 0x3F3 PUSH2 0x15A8 JUMP JUMPDEST PUSH1 0x40 MLOAD PUSH2 0x400 SWAP2 SWAP1 PUSH2 0x2518 JUMP JUMPDEST PUSH1 0x40 MLOAD DUP1 SWAP2 SUB SWAP1 RETURN JUMPDEST PUSH2 0x423 PUSH1 0x4 DUP1 CALLDATASIZE SUB DUP2 ADD SWAP1 PUSH2 0x41E SWAP2 SWAP1 PUSH2 0x26CC JUMP JUMPDEST PUSH2 0x15CC JUMP JUMPDEST PUSH1 0x40 MLOAD PUSH2 0x430 SWAP2 SWAP1 PUSH2 0x2518 JUMP JUMPDEST PUSH1 0x40 MLOAD DUP1 SWAP2 SUB SWAP1 RETURN JUMPDEST PUSH2 0x453 PUSH1 0x4 DUP1 CALLDATASIZE SUB DUP2 ADD SWAP1 PUSH2 0x44E SWAP2 SWAP1 PUSH2 0x26CC JUMP JUMPDEST PUSH2 0x15E4 JUMP JUMPDEST STOP JUMPDEST PUSH2 0x46F PUSH1 0x4 DUP1 CALLDATASIZE SUB DUP2 ADD SWAP1 PUSH2 0x46A SWAP2 SWAP1 PUSH2 0x2656 JUMP JUMPDEST PUSH2 0x18C1 JUMP JUMPDEST PUSH1 0x40 MLOAD PUSH2 0x47C SWAP2 SWAP1 PUSH2 0x248B JUMP JUMPDEST PUSH1 0x40 MLOAD DUP1 SWAP2 SUB SWAP1 RETURN JUMPDEST PUSH2 0x49F PUSH1 0x4 DUP1 CALLDATASIZE SUB DUP2 ADD SWAP1 PUSH2 0x49A SWAP2 SWAP1 PUSH2 0x26CC JUMP JUMPDEST PUSH2 0x192B JUMP JUMPDEST PUSH1 0x40 MLOAD PUSH2 0x4AC SWAP2 SWAP1 PUSH2 0x2518 JUMP JUMPDEST PUSH1 0x40 MLOAD DUP1 SWAP2 SUB SWAP1 RETURN JUMPDEST PUSH2 0x4BD PUSH2 0x1948 JUMP JUMPDEST PUSH1 0x40 MLOAD PUSH2 0x4CA SWAP2 SWAP1 PUSH2 0x2518 JUMP JUMPDEST PUSH1 0x40 MLOAD DUP1 SWAP2 SUB SWAP1 RETURN JUMPDEST PUSH2 0x4ED PUSH1 0x4 DUP1 CALLDATASIZE SUB DUP2 ADD SWAP1 PUSH2 0x4E8 SWAP2 SWAP1 PUSH2 0x26CC JUMP JUMPDEST PUSH2 0x194F JUMP JUMPDEST PUSH1 0x40 MLOAD PUSH2 0x4FD SWAP5 SWAP4 SWAP3 SWAP2 SWAP1 PUSH2 0x2C2E JUMP JUMPDEST PUSH1 0x40 MLOAD DUP1 SWAP2 SUB SWAP1 RETURN JUMPDEST PUSH2 0x520 PUSH1 0x4 DUP1 CALLDATASIZE SUB DUP2 ADD SWAP1 PUSH2 0x51B SWAP2 SWAP1 PUSH2 0x29A6 JUMP JUMPDEST PUSH2 0x1A41 JUMP JUMPDEST STOP JUMPDEST PUSH2 0x53C PUSH1 0x4 DUP1 CALLDATASIZE SUB DUP2 ADD SWAP1 PUSH2 0x537 SWAP2 SWAP1 PUSH2 0x29A6 JUMP JUMPDEST PUSH2 0x1C9F JUMP JUMPDEST PUSH1 0x40 MLOAD PUSH2 0x549 SWAP2 SWAP1 PUSH2 0x2518 JUMP JUMPDEST PUSH1 0x40 MLOAD DUP1 SWAP2 SUB SWAP1 RETURN JUMPDEST PUSH2 0x56C PUSH1 0x4 DUP1 CALLDATASIZE SUB DUP2 ADD SWAP1 PUSH2 0x567 SWAP2 SWAP1 PUSH2 0x2656 JUMP JUMPDEST PUSH2 0x1CF2 JUMP JUMPDEST STOP JUMPDEST PUSH2 0x588 PUSH1 0x4 DUP1 CALLDATASIZE SUB DUP2 ADD SWAP1 PUSH2 0x583 SWAP2 SWAP1 PUSH2 0x2C7A JUMP JUMPDEST PUSH2 0x1D14 JUMP JUMPDEST STOP JUMPDEST PUSH2 0x592 PUSH2 0x1E99 JUMP JUMPDEST PUSH1 0x40 MLOAD PUSH2 0x59F SWAP2 SWAP1 PUSH2 0x2518 JUMP JUMPDEST PUSH1 0x40 MLOAD DUP1 SWAP2 SUB SWAP1 RETURN JUMPDEST PUSH2 0x5C2 PUSH1 0x4 DUP1 CALLDATASIZE SUB DUP2 ADD SWAP1 PUSH2 0x5BD SWAP2 SWAP1 PUSH2 0x2D23 JUMP JUMPDEST PUSH2 0x1EBD JUMP JUMPDEST PUSH1 0x40 MLOAD PUSH2 0x5CF SWAP2 SWAP1 PUSH2 0x248B JUMP JUMPDEST PUSH1 0x40 MLOAD DUP1 SWAP2 SUB SWAP1 RETURN JUMPDEST PUSH1 0x0 PUSH32 0x7965DB0B00000000000000000000000000000000000000000000000000000000 PUSH28 0xFFFFFFFFFFFFFFFFFFFFFFFFFFFFFFFFFFFFFFFFFFFFFFFFFFFFFFFF NOT AND DUP3 PUSH28 0xFFFFFFFFFFFFFFFFFFFFFFFFFFFFFFFFFFFFFFFFFFFFFFFFFFFFFFFF NOT AND EQ DUP1 PUSH2 0x64B JUMPI POP PUSH2 0x64A DUP3 PUSH2 0x202C JUMP JUMPDEST JUMPDEST SWAP1 POP SWAP2 SWAP1 POP JUMP JUMPDEST PUSH1 0x0 DUP1 PUSH1 0x0 DUP4 DUP2 MSTORE PUSH1 0x20 ADD SWAP1 DUP2 MSTORE PUSH1 0x20 ADD PUSH1 0x0 KECCAK256 PUSH1 0x1 ADD SLOAD SWAP1 POP SWAP2 SWAP1 POP JUMP JUMPDEST PUSH32 0xE61DECFF6E4A5C6B5A3D3CBD28F882E595173563B49353CE5F31DBA2DE7F05EE PUSH2 0x69B DUP2 PUSH2 0x2096 JUMP JUMPDEST PUSH1 0x0 PUSH20 0xFFFFFFFFFFFFFFFFFFFFFFFFFFFFFFFFFFFFFFFF AND DUP5 PUSH20 0xFFFFFFFFFFFFFFFFFFFFFFFFFFFFFFFFFFFFFFFF AND SUB PUSH2 0x70A JUMPI PUSH1 0x40 MLOAD PUSH32 0x8C379A000000000000000000000000000000000000000000000000000000000 DUP2 MSTORE PUSH1 0x4 ADD PUSH2 0x701 SWAP1 PUSH2 0x2E16 JUMP JUMPDEST PUSH1 0x40 MLOAD DUP1 SWAP2 SUB SWAP1 REVERT JUMPDEST PUSH1 0x1 PUSH1 0x0 DUP2 SLOAD DUP1 SWAP3 SWAP2 SWAP1 PUSH2 0x71D SWAP1 PUSH2 0x2E65 JUMP JUMPDEST SWAP2 SWAP1 POP SSTORE POP PUSH1 0x40 MLOAD DUP1 PUSH1 0x80 ADD PUSH1 0x40 MSTORE DUP1 DUP6 PUSH20 0xFFFFFFFFFFFFFFFFFFFFFFFFFFFFFFFFFFFFFFFF AND DUP2 MSTORE PUSH1 0x20 ADD PUSH1 0x0 PUSH1 0x7 DUP2 GT ISZERO PUSH2 0x75D JUMPI PUSH2 0x75C PUSH2 0x2708 JUMP JUMPDEST JUMPDEST DUP2 MSTORE PUSH1 0x20 ADD PUSH1 0x0 ISZERO ISZERO DUP2 MSTORE PUSH1 0x20 ADD DUP5 DUP5 DUP1 DUP1 PUSH1 0x1F ADD PUSH1 0x20 DUP1 SWAP2 DIV MUL PUSH1 0x20 ADD PUSH1 0x40 MLOAD SWAP1 DUP2 ADD PUSH1 0x40 MSTORE DUP1 SWAP4 SWAP3 SWAP2 SWAP1 DUP2 DUP2 MSTORE PUSH1 0x20 ADD DUP4 DUP4 DUP1 DUP3 DUP5 CALLDATACOPY PUSH1 0x0 DUP2 DUP5 ADD MSTORE PUSH1 0x1F NOT PUSH1 0x1F DUP3 ADD AND SWAP1 POP DUP1 DUP4 ADD SWAP3 POP POP POP POP POP POP POP DUP2 MSTORE POP PUSH1 0x2 PUSH1 0x0 PUSH1 0x1 SLOAD DUP2 MSTORE PUSH1 0x20 ADD SWAP1 DUP2 MSTORE PUSH1 0x20 ADD PUSH1 0x0 KECCAK256 PUSH1 0x0 DUP3 ADD MLOAD DUP2 PUSH1 0x0 ADD PUSH1 0x0 PUSH2 0x100 EXP DUP2 SLOAD DUP2 PUSH20 0xFFFFFFFFFFFFFFFFFFFFFFFFFFFFFFFFFFFFFFFF MUL NOT AND SWAP1 DUP4 PUSH20 0xFFFFFFFFFFFFFFFFFFFFFFFFFFFFFFFFFFFFFFFF AND MUL OR SWAP1 SSTORE POP PUSH1 0x20 DUP3 ADD MLOAD DUP2 PUSH1 0x0 ADD PUSH1 0x14 PUSH2 0x100 EXP DUP2 SLOAD DUP2 PUSH1 0xFF MUL NOT AND SWAP1 DUP4 PUSH1 0x7 DUP2 GT ISZERO PUSH2 0x83A JUMPI PUSH2 0x839 PUSH2 0x2708 JUMP JUMPDEST JUMPDEST MUL OR SWAP1 SSTORE POP PUSH1 0x40 DUP3 ADD MLOAD DUP2 PUSH1 0x0 ADD PUSH1 0x15 PUSH2 0x100 EXP DUP2 SLOAD DUP2 PUSH1 0xFF MUL NOT AND SWAP1 DUP4 ISZERO ISZERO MUL OR SWAP1 SSTORE POP PUSH1 0x60 DUP3 ADD MLOAD DUP2 PUSH1 0x1 ADD SWAP1 DUP2 PUSH2 0x874 SWAP2 SWAP1 PUSH2 0x30E8 JUMP JUMPDEST POP SWAP1 POP POP PUSH1 0x5 PUSH1 0x0 PUSH1 0x1 SLOAD DUP2 MSTORE PUSH1 0x20 ADD SWAP1 DUP2 MSTORE PUSH1 0x20 ADD PUSH1 0x0 KECCAK256 PUSH1 0x40 MLOAD DUP1 PUSH1 0x80 ADD PUSH1 0x40 MSTORE DUP1 PUSH1 0x0 PUSH1 0x7 DUP2 GT ISZERO PUSH2 0x8AC JUMPI PUSH2 0x8AB PUSH2 0x2708 JUMP JUMPDEST JUMPDEST DUP2 MSTORE PUSH1 0x20 ADD DUP6 DUP6 DUP1 DUP1 PUSH1 0x1F ADD PUSH1 0x20 DUP1 SWAP2 DIV MUL PUSH1 0x20 ADD PUSH1 0x40 MLOAD SWAP1 DUP2 ADD PUSH1 0x40 MSTORE DUP1 SWAP4 SWAP3 SWAP2 SWAP1 DUP2 DUP2 MSTORE PUSH1 0x20 ADD DUP4 DUP4 DUP1 DUP3 DUP5 CALLDATACOPY PUSH1 0x0 DUP2 DUP5 ADD MSTORE PUSH1 0x1F NOT PUSH1 0x1F DUP3 ADD AND SWAP1 POP DUP1 DUP4 ADD SWAP3 POP POP POP POP POP POP POP DUP2 MSTORE PUSH1 0x20 ADD CALLER PUSH20 0xFFFFFFFFFFFFFFFFFFFFFFFFFFFFFFFFFFFFFFFF AND DUP2 MSTORE PUSH1 0x20 ADD TIMESTAMP DUP2 MSTORE POP SWAP1 DUP1 PUSH1 0x1 DUP2 SLOAD ADD DUP1 DUP3 SSTORE DUP1 SWAP2 POP POP PUSH1 0x1 SWAP1 SUB SWAP1 PUSH1 0x0 MSTORE PUSH1 0x20 PUSH1 0x0 KECCAK256 SWAP1 PUSH1 0x4 MUL ADD PUSH1 0x0 SWAP1 SWAP2 SWAP1 SWAP2 SWAP1 SWAP2 POP PUSH1 0x0 DUP3 ADD MLOAD DUP2 PUSH1 0x0 ADD PUSH1 0x0 PUSH2 0x100 EXP DUP2 SLOAD DUP2 PUSH1 0xFF MUL NOT AND SWAP1 DUP4 PUSH1 0x7 DUP2 GT ISZERO PUSH2 0x96F JUMPI PUSH2 0x96E PUSH2 0x2708 JUMP JUMPDEST JUMPDEST MUL OR SWAP1 SSTORE POP PUSH1 0x20 DUP3 ADD MLOAD DUP2 PUSH1 0x1 ADD SWAP1 DUP2 PUSH2 0x989 SWAP2 SWAP1 PUSH2 0x30E8 JUMP JUMPDEST POP PUSH1 0x40 DUP3 ADD MLOAD DUP2 PUSH1 0x2 ADD PUSH1 0x0 PUSH2 0x100 EXP DUP2 SLOAD DUP2 PUSH20 0xFFFFFFFFFFFFFFFFFFFFFFFFFFFFFFFFFFFFFFFF MUL NOT AND SWAP1 DUP4 PUSH20 0xFFFFFFFFFFFFFFFFFFFFFFFFFFFFFFFFFFFFFFFF AND MUL OR SWAP1 SSTORE POP PUSH1 0x60 DUP3 ADD MLOAD DUP2 PUSH1 0x3 ADD SSTORE POP POP DUP4 PUSH20 0xFFFFFFFFFFFFFFFFFFFFFFFFFFFFFFFFFFFFFFFF AND PUSH1 0x1 SLOAD PUSH32 0x8CA92C70182D3487A5EE73B708D09AC562962A6ECFFA317D6CD4F6BEB31CAE2C DUP6 DUP6 PUSH1 0x40 MLOAD PUSH2 0xA28 SWAP3 SWAP2 SWAP1 PUSH2 0x31F6 JUMP JUMPDEST PUSH1 0x40 MLOAD DUP1 SWAP2 SUB SWAP1 LOG3 PUSH1 0x1 SLOAD PUSH32 0x79FFFD55B843EE7C60C7EE872BA77121146675737A0798438B7B57A44AC2CBE8 PUSH1 0x0 DUP6 DUP6 CALLER PUSH1 0x40 MLOAD PUSH2 0xA69 SWAP5 SWAP4 SWAP3 SWAP2 SWAP1 PUSH2 0x321A JUMP JUMPDEST PUSH1 0x40 MLOAD DUP1 SWAP2 SUB SWAP1 LOG2 POP POP POP POP JUMP JUMPDEST PUSH2 0xA80 DUP3 PUSH2 0x652 JUMP JUMPDEST PUSH2 0xA89 DUP2 PUSH2 0x2096 JUMP JUMPDEST PUSH2 0xA93 DUP4 DUP4 PUSH2 0x20AA JUMP JUMPDEST POP POP POP POP JUMP JUMPDEST PUSH2 0xAA1 PUSH2 0x238F JUMP JUMPDEST PUSH1 0x2 PUSH1 0x0 DUP4 DUP2 MSTORE PUSH1 0x20 ADD SWAP1 DUP2 MSTORE PUSH1 0x20 ADD PUSH1 0x0 KECCAK256 PUSH1 0x40 MLOAD DUP1 PUSH1 0x80 ADD PUSH1 0x40 MSTORE SWAP1 DUP2 PUSH1 0x0 DUP3 ADD PUSH1 0x0 SWAP1 SLOAD SWAP1 PUSH2 0x100 EXP SWAP1 DIV PUSH20 0xFFFFFFFFFFFFFFFFFFFFFFFFFFFFFFFFFFFFFFFF AND PUSH20 0xFFFFFFFFFFFFFFFFFFFFFFFFFFFFFFFFFFFFFFFF AND PUSH20 0xFFFFFFFFFFFFFFFFFFFFFFFFFFFFFFFFFFFFFFFF AND DUP2 MSTORE PUSH1 0x20 ADD PUSH1 0x0 DUP3 ADD PUSH1 0x14 SWAP1 SLOAD SWAP1 PUSH2 0x100 EXP SWAP1 DIV PUSH1 0xFF AND PUSH1 0x7 DUP2 GT ISZERO PUSH2 0xB3A JUMPI PUSH2 0xB39 PUSH2 0x2708 JUMP JUMPDEST JUMPDEST PUSH1 0x7 DUP2 GT ISZERO PUSH2 0xB4C JUMPI PUSH2 0xB4B PUSH2 0x2708 JUMP JUMPDEST JUMPDEST DUP2 MSTORE PUSH1 0x20 ADD PUSH1 0x0 DUP3 ADD PUSH1 0x15 SWAP1 SLOAD SWAP1 PUSH2 0x100 EXP SWAP1 DIV PUSH1 0xFF AND ISZERO ISZERO ISZERO ISZERO DUP2 MSTORE PUSH1 0x20 ADD PUSH1 0x1 DUP3 ADD DUP1 SLOAD PUSH2 0xB7B SWAP1 PUSH2 0x2F0B JUMP JUMPDEST DUP1 PUSH1 0x1F ADD PUSH1 0x20 DUP1 SWAP2 DIV MUL PUSH1 0x20 ADD PUSH1 0x40 MLOAD SWAP1 DUP2 ADD PUSH1 0x40 MSTORE DUP1 SWAP3 SWAP2 SWAP1 DUP2 DUP2 MSTORE PUSH1 0x20 ADD DUP3 DUP1 SLOAD PUSH2 0xBA7 SWAP1 PUSH2 0x2F0B JUMP JUMPDEST DUP1 ISZERO PUSH2 0xBF4 JUMPI DUP1 PUSH1 0x1F LT PUSH2 0xBC9 JUMPI PUSH2 0x100 DUP1 DUP4 SLOAD DIV MUL DUP4 MSTORE SWAP2 PUSH1 0x20 ADD SWAP2 PUSH2 0xBF4 JUMP JUMPDEST DUP3 ADD SWAP2 SWAP1 PUSH1 0x0 MSTORE PUSH1 0x20 PUSH1 0x0 KECCAK256 SWAP1 JUMPDEST DUP2 SLOAD DUP2 MSTORE SWAP1 PUSH1 0x1 ADD SWAP1 PUSH1 0x20 ADD DUP1 DUP4 GT PUSH2 0xBD7 JUMPI DUP3 SWAP1 SUB PUSH1 0x1F AND DUP3 ADD SWAP2 JUMPDEST POP POP POP POP POP DUP2 MSTORE POP POP SWAP1 POP SWAP2 SWAP1 POP JUMP JUMPDEST PUSH2 0xC0C PUSH2 0x219B JUMP JUMPDEST PUSH20 0xFFFFFFFFFFFFFFFFFFFFFFFFFFFFFFFFFFFFFFFF AND DUP2 PUSH20 0xFFFFFFFFFFFFFFFFFFFFFFFFFFFFFFFFFFFFFFFF AND EQ PUSH2 0xC70 JUMPI PUSH1 0x40 MLOAD PUSH32 0x6697B23200000000000000000000000000000000000000000000000000000000 DUP2 MSTORE PUSH1 0x4 ADD PUSH1 0x40 MLOAD DUP1 SWAP2 SUB SWAP1 REVERT JUMPDEST PUSH2 0xC7A DUP3 DUP3 PUSH2 0x21A3 JUMP JUMPDEST POP POP POP JUMP JUMPDEST PUSH1 0x0 DUP1 PUSH1 0x4 PUSH1 0x0 DUP9 DUP2 MSTORE PUSH1 0x20 ADD SWAP1 DUP2 MSTORE PUSH1 0x20 ADD PUSH1 0x0 KECCAK256 PUSH1 0x0 DUP8 PUSH1 0x7 DUP2 GT ISZERO PUSH2 0xCAA JUMPI PUSH2 0xCA9 PUSH2 0x2708 JUMP JUMPDEST JUMPDEST PUSH1 0x7 DUP2 GT ISZERO PUSH2 0xCBC JUMPI PUSH2 0xCBB PUSH2 0x2708 JUMP JUMPDEST JUMPDEST DUP2 MSTORE PUSH1 0x20 ADD SWAP1 DUP2 MSTORE PUSH1 0x20 ADD PUSH1 0x0 KECCAK256 SLOAD SWAP1 POP PUSH1 0x0 DUP1 SHL DUP2 SUB PUSH2 0xCE1 JUMPI PUSH1 0x0 SWAP2 POP POP PUSH2 0xD31 JUMP JUMPDEST PUSH2 0xD2D DUP5 DUP5 DUP1 DUP1 PUSH1 0x20 MUL PUSH1 0x20 ADD PUSH1 0x40 MLOAD SWAP1 DUP2 ADD PUSH1 0x40 MSTORE DUP1 SWAP4 SWAP3 SWAP2 SWAP1 DUP2 DUP2 MSTORE PUSH1 0x20 ADD DUP4 DUP4 PUSH1 0x20 MUL DUP1 DUP3 DUP5 CALLDATACOPY PUSH1 0x0 DUP2 DUP5 ADD MSTORE PUSH1 0x1F NOT PUSH1 0x1F DUP3 ADD AND SWAP1 POP DUP1 DUP4 ADD SWAP3 POP POP POP POP POP POP POP DUP3 DUP8 PUSH2 0x2295 JUMP JUMPDEST SWAP2 POP POP JUMPDEST SWAP6 SWAP5 POP POP POP POP POP JUMP JUMPDEST PUSH32 0xDDAA901E2FE3BDA354FE0EDE2785152D5C109282A613FE024A056A3E66C41BB3 DUP2 JUMP JUMPDEST PUSH32 0xA49807205CE4D355092EF5A8A18F56E8913CF4A201FBE287825B095693C21775 PUSH2 0xD88 DUP2 PUSH2 0x2096 JUMP JUMPDEST PUSH1 0x0 PUSH1 0x2 PUSH1 0x0 DUP5 DUP2 MSTORE PUSH1 0x20 ADD SWAP1 DUP2 MSTORE PUSH1 0x20 ADD PUSH1 0x0 KECCAK256 SWAP1 POP DUP1 PUSH1 0x0 ADD PUSH1 0x15 SWAP1 SLOAD SWAP1 PUSH2 0x100 EXP SWAP1 DIV PUSH1 0xFF AND ISZERO PUSH2 0xDF1 JUMPI PUSH1 0x40 MLOAD PUSH32 0x8C379A000000000000000000000000000000000000000000000000000000000 DUP2 MSTORE PUSH1 0x4 ADD PUSH2 0xDE8 SWAP1 PUSH2 0x32A6 JUMP JUMPDEST PUSH1 0x40 MLOAD DUP1 SWAP2 SUB SWAP1 REVERT JUMPDEST PUSH1 0x7 DUP2 PUSH1 0x0 ADD PUSH1 0x14 PUSH2 0x100 EXP DUP2 SLOAD DUP2 PUSH1 0xFF MUL NOT AND SWAP1 DUP4 PUSH1 0x7 DUP2 GT ISZERO PUSH2 0xE19 JUMPI PUSH2 0xE18 PUSH2 0x2708 JUMP JUMPDEST JUMPDEST MUL OR SWAP1 SSTORE POP DUP3 PUSH32 0x6875AB0CD79FC59886259E999E56EB8DA549FA524709389BC624972A58969958 PUSH1 0x40 MLOAD PUSH1 0x40 MLOAD DUP1 SWAP2 SUB SWAP1 LOG2 POP POP POP JUMP JUMPDEST PUSH1 0x4 PUSH1 0x20 MSTORE DUP2 PUSH1 0x0 MSTORE PUSH1 0x40 PUSH1 0x0 KECCAK256 PUSH1 0x20 MSTORE DUP1 PUSH1 0x0 MSTORE PUSH1 0x40 PUSH1 0x0 KECCAK256 PUSH1 0x0 SWAP2 POP SWAP2 POP POP SLOAD DUP2 JUMP JUMPDEST PUSH32 0xDDAA901E2FE3BDA354FE0EDE2785152D5C109282A613FE024A056A3E66C41BB3 PUSH2 0xE9F DUP2 PUSH2 0x2096 JUMP JUMPDEST PUSH1 0x1 PUSH1 0x7 DUP2 GT ISZERO PUSH2 0xEB3 JUMPI PUSH2 0xEB2 PUSH2 0x2708 JUMP JUMPDEST JUMPDEST PUSH1 0x2 PUSH1 0x0 DUP7 DUP2 MSTORE PUSH1 0x20 ADD SWAP1 DUP2 MSTORE PUSH1 0x20 ADD PUSH1 0x0 KECCAK256 PUSH1 0x0 ADD PUSH1 0x14 SWAP1 SLOAD SWAP1 PUSH2 0x100 EXP SWAP1 DIV PUSH1 0xFF AND PUSH1 0x7 DUP2 GT ISZERO PUSH2 0xEE9 JUMPI PUSH2 0xEE8 PUSH2 0x2708 JUMP JUMPDEST JUMPDEST EQ PUSH2 0xF29 JUMPI PUSH1 0x40 MLOAD PUSH32 0x8C379A000000000000000000000000000000000000000000000000000000000 DUP2 MSTORE PUSH1 0x4 ADD PUSH2 0xF20 SWAP1 PUSH2 0x3312 JUMP JUMPDEST PUSH1 0x40 MLOAD DUP1 SWAP2 SUB SWAP1 REVERT JUMPDEST PUSH1 0x0 PUSH1 0x2 PUSH1 0x0 DUP7 DUP2 MSTORE PUSH1 0x20 ADD SWAP1 DUP2 MSTORE PUSH1 0x20 ADD PUSH1 0x0 KECCAK256 SWAP1 POP PUSH1 0x2 DUP2 PUSH1 0x0 ADD PUSH1 0x14 PUSH2 0x100 EXP DUP2 SLOAD DUP2 PUSH1 0xFF MUL NOT AND SWAP1 DUP4 PUSH1 0x7 DUP2 GT ISZERO PUSH2 0xF68 JUMPI PUSH2 0xF67 PUSH2 0x2708 JUMP JUMPDEST JUMPDEST MUL OR SWAP1 SSTORE POP DUP4 DUP4 DUP3 PUSH1 0x1 ADD SWAP2 DUP3 PUSH2 0xF80 SWAP3 SWAP2 SWAP1 PUSH2 0x333D JUMP JUMPDEST POP PUSH1 0x5 PUSH1 0x0 DUP7 DUP2 MSTORE PUSH1 0x20 ADD SWAP1 DUP2 MSTORE PUSH1 0x20 ADD PUSH1 0x0 KECCAK256 PUSH1 0x40 MLOAD DUP1 PUSH1 0x80 ADD PUSH1 0x40 MSTORE DUP1 PUSH1 0x2 PUSH1 0x7 DUP2 GT ISZERO PUSH2 0xFB3 JUMPI PUSH2 0xFB2 PUSH2 0x2708 JUMP JUMPDEST JUMPDEST DUP2 MSTORE PUSH1 0x20 ADD DUP7 DUP7 DUP1 DUP1 PUSH1 0x1F ADD PUSH1 0x20 DUP1 SWAP2 DIV MUL PUSH1 0x20 ADD PUSH1 0x40 MLOAD SWAP1 DUP2 ADD PUSH1 0x40 MSTORE DUP1 SWAP4 SWAP3 SWAP2 SWAP1 DUP2 DUP2 MSTORE PUSH1 0x20 ADD DUP4 DUP4 DUP1 DUP3 DUP5 CALLDATACOPY PUSH1 0x0 DUP2 DUP5 ADD MSTORE PUSH1 0x1F NOT PUSH1 0x1F DUP3 ADD AND SWAP1 POP DUP1 DUP4 ADD SWAP3 POP POP POP POP POP POP POP DUP2 MSTORE PUSH1 0x20 ADD CALLER PUSH20 0xFFFFFFFFFFFFFFFFFFFFFFFFFFFFFFFFFFFFFFFF AND DUP2 MSTORE PUSH1 0x20 ADD TIMESTAMP DUP2 MSTORE POP SWAP1 DUP1 PUSH1 0x1 DUP2 SLOAD ADD DUP1 DUP3 SSTORE DUP1 SWAP2 POP POP PUSH1 0x1 SWAP1 SUB SWAP1 PUSH1 0x0 MSTORE PUSH1 0x20 PUSH1 0x0 KECCAK256 SWAP1 PUSH1 0x4 MUL ADD PUSH1 0x0 SWAP1 SWAP2 SWAP1 SWAP2 SWAP1 SWAP2 POP PUSH1 0x0 DUP3 ADD MLOAD DUP2 PUSH1 0x0 ADD PUSH1 0x0 PUSH2 0x100 EXP DUP2 SLOAD DUP2 PUSH1 0xFF MUL NOT AND SWAP1 DUP4 PUSH1 0x7 DUP2 GT ISZERO PUSH2 0x1076 JUMPI PUSH2 0x1075 PUSH2 0x2708 JUMP JUMPDEST JUMPDEST MUL OR SWAP1 SSTORE POP PUSH1 0x20 DUP3 ADD MLOAD DUP2 PUSH1 0x1 ADD SWAP1 DUP2 PUSH2 0x1090 SWAP2 SWAP1 PUSH2 0x30E8 JUMP JUMPDEST POP PUSH1 0x40 DUP3 ADD MLOAD DUP2 PUSH1 0x2 ADD PUSH1 0x0 PUSH2 0x100 EXP DUP2 SLOAD DUP2 PUSH20 0xFFFFFFFFFFFFFFFFFFFFFFFFFFFFFFFFFFFFFFFF MUL NOT AND SWAP1 DUP4 PUSH20 0xFFFFFFFFFFFFFFFFFFFFFFFFFFFFFFFFFFFFFFFF AND MUL OR SWAP1 SSTORE POP PUSH1 0x60 DUP3 ADD MLOAD DUP2 PUSH1 0x3 ADD SSTORE POP POP DUP5 PUSH32 0x79FFFD55B843EE7C60C7EE872BA77121146675737A0798438B7B57A44AC2CBE8 PUSH1 0x2 DUP7 DUP7 CALLER PUSH1 0x40 MLOAD PUSH2 0x111B SWAP5 SWAP4 SWAP3 SWAP2 SWAP1 PUSH2 0x321A JUMP JUMPDEST PUSH1 0x40 MLOAD DUP1 SWAP2 SUB SWAP1 LOG2 POP POP POP POP POP JUMP JUMPDEST PUSH1 0x1 SLOAD DUP2 JUMP JUMPDEST PUSH1 0x60 PUSH1 0x5 PUSH1 0x0 DUP4 DUP2 MSTORE PUSH1 0x20 ADD SWAP1 DUP2 MSTORE PUSH1 0x20 ADD PUSH1 0x0 KECCAK256 DUP1 SLOAD DUP1 PUSH1 0x20 MUL PUSH1 0x20 ADD PUSH1 0x40 MLOAD SWAP1 DUP2 ADD PUSH1 0x40 MSTORE DUP1 SWAP3 SWAP2 SWAP1 DUP2 DUP2 MSTORE PUSH1 0x20 ADD PUSH1 0x0 SWAP1 JUMPDEST DUP3 DUP3 LT ISZERO PUSH2 0x12C4 JUMPI DUP4 DUP3 SWAP1 PUSH1 0x0 MSTORE PUSH1 0x20 PUSH1 0x0 KECCAK256 SWAP1 PUSH1 0x4 MUL ADD PUSH1 0x40 MLOAD DUP1 PUSH1 0x80 ADD PUSH1 0x40 MSTORE SWAP1 DUP2 PUSH1 0x0 DUP3 ADD PUSH1 0x0 SWAP1 SLOAD SWAP1 PUSH2 0x100 EXP SWAP1 DIV PUSH1 0xFF AND PUSH1 0x7 DUP2 GT ISZERO PUSH2 0x11AD JUMPI PUSH2 0x11AC PUSH2 0x2708 JUMP JUMPDEST JUMPDEST PUSH1 0x7 DUP2 GT ISZERO PUSH2 0x11BF JUMPI PUSH2 0x11BE PUSH2 0x2708 JUMP JUMPDEST JUMPDEST DUP2 MSTORE PUSH1 0x20 ADD PUSH1 0x1 DUP3 ADD DUP1 SLOAD PUSH2 0x11D3 SWAP1 PUSH2 0x2F0B JUMP JUMPDEST DUP1 PUSH1 0x1F ADD PUSH1 0x20 DUP1 SWAP2 DIV MUL PUSH1 0x20 ADD PUSH1 0x40 MLOAD SWAP1 DUP2 ADD PUSH1 0x40 MSTORE DUP1 SWAP3 SWAP2 SWAP1 DUP2 DUP2 MSTORE PUSH1 0x20 ADD DUP3 DUP1 SLOAD PUSH2 0x11FF SWAP1 PUSH2 0x2F0B JUMP JUMPDEST DUP1 ISZERO PUSH2 0x124C JUMPI DUP1 PUSH1 0x1F LT PUSH2 0x1221 JUMPI PUSH2 0x100 DUP1 DUP4 SLOAD DIV MUL DUP4 MSTORE SWAP2 PUSH1 0x20 ADD SWAP2 PUSH2 0x124C JUMP JUMPDEST DUP3 ADD SWAP2 SWAP1 PUSH1 0x0 MSTORE PUSH1 0x20 PUSH1 0x0 KECCAK256 SWAP1 JUMPDEST DUP2 SLOAD DUP2 MSTORE SWAP1 PUSH1 0x1 ADD SWAP1 PUSH1 0x20 ADD DUP1 DUP4 GT PUSH2 0x122F JUMPI DUP3 SWAP1 SUB PUSH1 0x1F AND DUP3 ADD SWAP2 JUMPDEST POP POP POP POP POP DUP2 MSTORE PUSH1 0x20 ADD PUSH1 0x2 DUP3 ADD PUSH1 0x0 SWAP1 SLOAD SWAP1 PUSH2 0x100 EXP SWAP1 DIV PUSH20 0xFFFFFFFFFFFFFFFFFFFFFFFFFFFFFFFFFFFFFFFF AND PUSH20 0xFFFFFFFFFFFFFFFFFFFFFFFFFFFFFFFFFFFFFFFF AND PUSH20 0xFFFFFFFFFFFFFFFFFFFFFFFFFFFFFFFFFFFFFFFF AND DUP2 MSTORE PUSH1 0x20 ADD PUSH1 0x3 DUP3 ADD SLOAD DUP2 MSTORE POP POP DUP2 MSTORE PUSH1 0x20 ADD SWAP1 PUSH1 0x1 ADD SWAP1 PUSH2 0x1165 JUMP JUMPDEST POP POP POP POP SWAP1 POP SWAP2 SWAP1 POP JUMP JUMPDEST PUSH32 0xFBD454F36A7E1A388BD6FC3AB10D434AA4578F811ACBBCF33AFB1C697486313C PUSH2 0x12F9 DUP2 PUSH2 0x2096 JUMP JUMPDEST PUSH1 0x3 PUSH1 0x7 DUP2 GT ISZERO PUSH2 0x130D JUMPI PUSH2 0x130C PUSH2 0x2708 JUMP JUMPDEST JUMPDEST PUSH1 0x2 PUSH1 0x0 DUP7 DUP2 MSTORE PUSH1 0x20 ADD SWAP1 DUP2 MSTORE PUSH1 0x20 ADD PUSH1 0x0 KECCAK256 PUSH1 0x0 ADD PUSH1 0x14 SWAP1 SLOAD SWAP1 PUSH2 0x100 EXP SWAP1 DIV PUSH1 0xFF AND PUSH1 0x7 DUP2 GT ISZERO PUSH2 0x1343 JUMPI PUSH2 0x1342 PUSH2 0x2708 JUMP JUMPDEST JUMPDEST EQ PUSH2 0x1383 JUMPI PUSH1 0x40 MLOAD PUSH32 0x8C379A000000000000000000000000000000000000000000000000000000000 DUP2 MSTORE PUSH1 0x4 ADD PUSH2 0x137A SWAP1 PUSH2 0x3459 JUMP JUMPDEST PUSH1 0x40 MLOAD DUP1 SWAP2 SUB SWAP1 REVERT JUMPDEST PUSH1 0x0 PUSH1 0x2 PUSH1 0x0 DUP7 DUP2 MSTORE PUSH1 0x20 ADD SWAP1 DUP2 MSTORE PUSH1 0x20 ADD PUSH1 0x0 KECCAK256 SWAP1 POP PUSH1 0x4 DUP2 PUSH1 0x0 ADD PUSH1 0x14 PUSH2 0x100 EXP DUP2 SLOAD DUP2 PUSH1 0xFF MUL NOT AND SWAP1 DUP4 PUSH1 0x7 DUP2 GT ISZERO PUSH2 0x13C2 JUMPI PUSH2 0x13C1 PUSH2 0x2708 JUMP JUMPDEST JUMPDEST MUL OR SWAP1 SSTORE POP DUP4 DUP4 DUP3 PUSH1 0x1 ADD SWAP2 DUP3 PUSH2 0x13DA SWAP3 SWAP2 SWAP1 PUSH2 0x333D JUMP JUMPDEST POP PUSH1 0x5 PUSH1 0x0 DUP7 DUP2 MSTORE PUSH1 0x20 ADD SWAP1 DUP2 MSTORE PUSH1 0x20 ADD PUSH1 0x0 KECCAK256 PUSH1 0x40 MLOAD DUP1 PUSH1 0x80 ADD PUSH1 0x40 MSTORE DUP1 PUSH1 0x4 PUSH1 0x7 DUP2 GT ISZERO PUSH2 0x140D JUMPI PUSH2 0x140C PUSH2 0x2708 JUMP JUMPDEST JUMPDEST DUP2 MSTORE PUSH1 0x20 ADD DUP7 DUP7 DUP1 DUP1 PUSH1 0x1F ADD PUSH1 0x20 DUP1 SWAP2 DIV MUL PUSH1 0x20 ADD PUSH1 0x40 MLOAD SWAP1 DUP2 ADD PUSH1 0x40 MSTORE DUP1 SWAP4 SWAP3 SWAP2 SWAP1 DUP2 DUP2 MSTORE PUSH1 0x20 ADD DUP4 DUP4 DUP1 DUP3 DUP5 CALLDATACOPY PUSH1 0x0 DUP2 DUP5 ADD MSTORE PUSH1 0x1F NOT PUSH1 0x1F DUP3 ADD AND SWAP1 POP DUP1 DUP4 ADD SWAP3 POP POP POP POP POP POP POP DUP2 MSTORE PUSH1 0x20 ADD CALLER PUSH20 0xFFFFFFFFFFFFFFFFFFFFFFFFFFFFFFFFFFFFFFFF AND DUP2 MSTORE PUSH1 0x20 ADD TIMESTAMP DUP2 MSTORE POP SWAP1 DUP1 PUSH1 0x1 DUP2 SLOAD ADD DUP1 DUP3 SSTORE DUP1 SWAP2 POP POP PUSH1 0x1 SWAP1 SUB SWAP1 PUSH1 0x0 MSTORE PUSH1 0x20 PUSH1 0x0 KECCAK256 SWAP1 PUSH1 0x4 MUL ADD PUSH1 0x0 SWAP1 SWAP2 SWAP1 SWAP2 SWAP1 SWAP2 POP PUSH1 0x0 DUP3 ADD MLOAD DUP2 PUSH1 0x0 ADD PUSH1 0x0 PUSH2 0x100 EXP DUP2 SLOAD DUP2 PUSH1 0xFF MUL NOT AND SWAP1 DUP4 PUSH1 0x7 DUP2 GT ISZERO PUSH2 0x14D0 JUMPI PUSH2 0x14CF PUSH2 0x2708 JUMP JUMPDEST JUMPDEST MUL OR SWAP1 SSTORE POP PUSH1 0x20 DUP3 ADD MLOAD DUP2 PUSH1 0x1 ADD SWAP1 DUP2 PUSH2 0x14EA SWAP2 SWAP1 PUSH2 0x30E8 JUMP JUMPDEST POP PUSH1 0x40 DUP3 ADD MLOAD DUP2 PUSH1 0x2 ADD PUSH1 0x0 PUSH2 0x100 EXP DUP2 SLOAD DUP2 PUSH20 0xFFFFFFFFFFFFFFFFFFFFFFFFFFFFFFFFFFFFFFFF MUL NOT AND SWAP1 DUP4 PUSH20 0xFFFFFFFFFFFFFFFFFFFFFFFFFFFFFFFFFFFFFFFF AND MUL OR SWAP1 SSTORE POP PUSH1 0x60 DUP3 ADD MLOAD DUP2 PUSH1 0x3 ADD SSTORE POP POP DUP5 PUSH32 0x79FFFD55B843EE7C60C7EE872BA77121146675737A0798438B7B57A44AC2CBE8 PUSH1 0x4 DUP7 DUP7 CALLER PUSH1 0x40 MLOAD PUSH2 0x1575 SWAP5 SWAP4 SWAP3 SWAP2 SWAP1 PUSH2 0x321A JUMP JUMPDEST PUSH1 0x40 MLOAD DUP1 SWAP2 SUB SWAP1 LOG2 POP POP POP POP POP JUMP JUMPDEST PUSH32 0xA49807205CE4D355092EF5A8A18F56E8913CF4A201FBE287825B095693C21775 DUP2 JUMP JUMPDEST PUSH32 0xE61DECFF6E4A5C6B5A3D3CBD28F882E595173563B49353CE5F31DBA2DE7F05EE DUP2 JUMP JUMPDEST PUSH1 0x3 PUSH1 0x20 MSTORE DUP1 PUSH1 0x0 MSTORE PUSH1 0x40 PUSH1 0x0 KECCAK256 PUSH1 0x0 SWAP2 POP SWAP1 POP SLOAD DUP2 JUMP JUMPDEST PUSH1 0x0 PUSH1 0x2 PUSH1 0x0 DUP4 DUP2 MSTORE PUSH1 0x20 ADD SWAP1 DUP2 MSTORE PUSH1 0x20 ADD PUSH1 0x0 KECCAK256 SWAP1 POP PUSH1 0x5 PUSH1 0x7 DUP2 GT ISZERO PUSH2 0x160F JUMPI PUSH2 0x160E PUSH2 0x2708 JUMP JUMPDEST JUMPDEST DUP2 PUSH1 0x0 ADD PUSH1 0x14 SWAP1 SLOAD SWAP1 PUSH2 0x100 EXP SWAP1 DIV PUSH1 0xFF AND PUSH1 0x7 DUP2 GT ISZERO PUSH2 0x1633 JUMPI PUSH2 0x1632 PUSH2 0x2708 JUMP JUMPDEST JUMPDEST EQ PUSH2 0x1673 JUMPI PUSH1 0x40 MLOAD PUSH32 0x8C379A000000000000000000000000000000000000000000000000000000000 DUP2 MSTORE PUSH1 0x4 ADD PUSH2 0x166A SWAP1 PUSH2 0x34EB JUMP JUMPDEST PUSH1 0x40 MLOAD DUP1 SWAP2 SUB SWAP1 REVERT JUMPDEST DUP1 PUSH1 0x0 ADD PUSH1 0x15 SWAP1 SLOAD SWAP1 PUSH2 0x100 EXP SWAP1 DIV PUSH1 0xFF AND ISZERO PUSH2 0x16C5 JUMPI PUSH1 0x40 MLOAD PUSH32 0x8C379A000000000000000000000000000000000000000000000000000000000 DUP2 MSTORE PUSH1 0x4 ADD PUSH2 0x16BC SWAP1 PUSH2 0x3557 JUMP JUMPDEST PUSH1 0x40 MLOAD DUP1 SWAP2 SUB SWAP1 REVERT JUMPDEST PUSH1 0x0 DUP2 PUSH1 0x0 ADD PUSH1 0x0 SWAP1 SLOAD SWAP1 PUSH2 0x100 EXP SWAP1 DIV PUSH20 0xFFFFFFFFFFFFFFFFFFFFFFFFFFFFFFFFFFFFFFFF AND PUSH20 0xFFFFFFFFFFFFFFFFFFFFFFFFFFFFFFFFFFFFFFFF AND CALLER PUSH20 0xFFFFFFFFFFFFFFFFFFFFFFFFFFFFFFFFFFFFFFFF AND EQ SWAP1 POP PUSH1 0x0 PUSH2 0x1748 PUSH32 0xA49807205CE4D355092EF5A8A18F56E8913CF4A201FBE287825B095693C21775 CALLER PUSH2 0x18C1 JUMP JUMPDEST DUP1 PUSH2 0x1779 JUMPI POP PUSH2 0x1778 PUSH32 0xFBD454F36A7E1A388BD6FC3AB10D434AA4578F811ACBBCF33AFB1C697486313C CALLER PUSH2 0x18C1 JUMP JUMPDEST JUMPDEST SWAP1 POP DUP2 DUP1 PUSH2 0x1784 JUMPI POP DUP1 JUMPDEST PUSH2 0x17C3 JUMPI PUSH1 0x40 MLOAD PUSH32 0x8C379A000000000000000000000000000000000000000000000000000000000 DUP2 MSTORE PUSH1 0x4 ADD PUSH2 0x17BA SWAP1 PUSH2 0x35C3 JUMP JUMPDEST PUSH1 0x40 MLOAD DUP1 SWAP2 SUB SWAP1 REVERT JUMPDEST PUSH1 0x1 DUP4 PUSH1 0x0 ADD PUSH1 0x15 PUSH2 0x100 EXP DUP2 SLOAD DUP2 PUSH1 0xFF MUL NOT AND SWAP1 DUP4 ISZERO ISZERO MUL OR SWAP1 SSTORE POP PUSH1 0x6 DUP4 PUSH1 0x0 ADD PUSH1 0x14 PUSH2 0x100 EXP DUP2 SLOAD DUP2 PUSH1 0xFF MUL NOT AND SWAP1 DUP4 PUSH1 0x7 DUP2 GT ISZERO PUSH2 0x1808 JUMPI PUSH2 0x1807 PUSH2 0x2708 JUMP JUMPDEST JUMPDEST MUL OR SWAP1 SSTORE POP DUP3 PUSH1 0x0 ADD PUSH1 0x0 SWAP1 SLOAD SWAP1 PUSH2 0x100 EXP SWAP1 DIV PUSH20 0xFFFFFFFFFFFFFFFFFFFFFFFFFFFFFFFFFFFFFFFF AND PUSH20 0xFFFFFFFFFFFFFFFFFFFFFFFFFFFFFFFFFFFFFFFF AND DUP5 PUSH32 0x6891DDC79EACEA5F551DAEA1B822722765B992ED866F26698D8D31FA1982197E CALLER PUSH1 0x40 MLOAD PUSH2 0x1878 SWAP2 SWAP1 PUSH2 0x35E3 JUMP JUMPDEST PUSH1 0x40 MLOAD DUP1 SWAP2 SUB SWAP1 LOG3 DUP4 PUSH32 0x79FFFD55B843EE7C60C7EE872BA77121146675737A0798438B7B57A44AC2CBE8 PUSH1 0x6 CALLER PUSH1 0x40 MLOAD PUSH2 0x18B3 SWAP3 SWAP2 SWAP1 PUSH2 0x364A JUMP JUMPDEST PUSH1 0x40 MLOAD DUP1 SWAP2 SUB SWAP1 LOG2 POP POP POP POP JUMP JUMPDEST PUSH1 0x0 DUP1 PUSH1 0x0 DUP5 DUP2 MSTORE PUSH1 0x20 ADD SWAP1 DUP2 MSTORE PUSH1 0x20 ADD PUSH1 0x0 KECCAK256 PUSH1 0x0 ADD PUSH1 0x0 DUP4 PUSH20 0xFFFFFFFFFFFFFFFFFFFFFFFFFFFFFFFFFFFFFFFF AND PUSH20 0xFFFFFFFFFFFFFFFFFFFFFFFFFFFFFFFFFFFFFFFF AND DUP2 MSTORE PUSH1 0x20 ADD SWAP1 DUP2 MSTORE PUSH1 0x20 ADD PUSH1 0x0 KECCAK256 PUSH1 0x0 SWAP1 SLOAD SWAP1 PUSH2 0x100 EXP SWAP1 DIV PUSH1 0xFF AND SWAP1 POP SWAP3 SWAP2 POP POP JUMP JUMPDEST PUSH1 0x0 PUSH1 0x3 PUSH1 0x0 DUP4 DUP2 MSTORE PUSH1 0x20 ADD SWAP1 DUP2 MSTORE PUSH1 0x20 ADD PUSH1 0x0 KECCAK256 SLOAD SWAP1 POP SWAP2 SWAP1 POP JUMP JUMPDEST PUSH1 0x0 DUP1 SHL DUP2 JUMP JUMPDEST PUSH1 0x2 PUSH1 0x20 MSTORE DUP1 PUSH1 0x0 MSTORE PUSH1 0x40 PUSH1 0x0 KECCAK256 PUSH1 0x0 SWAP2 POP SWAP1 POP DUP1 PUSH1 0x0 ADD PUSH1 0x0 SWAP1 SLOAD SWAP1 PUSH2 0x100 EXP SWAP1 DIV PUSH20 0xFFFFFFFFFFFFFFFFFFFFFFFFFFFFFFFFFFFFFFFF AND SWAP1 DUP1 PUSH1 0x0 ADD PUSH1 0x14 SWAP1 SLOAD SWAP1 PUSH2 0x100 EXP SWAP1 DIV PUSH1 0xFF AND SWAP1 DUP1 PUSH1 0x0 ADD PUSH1 0x15 SWAP1 SLOAD SWAP1 PUSH2 0x100 EXP SWAP1 DIV PUSH1 0xFF AND SWAP1 DUP1 PUSH1 0x1 ADD DUP1 SLOAD PUSH2 0x19BE SWAP1 PUSH2 0x2F0B JUMP JUMPDEST DUP1 PUSH1 0x1F ADD PUSH1 0x20 DUP1 SWAP2 DIV MUL PUSH1 0x20 ADD PUSH1 0x40 MLOAD SWAP1 DUP2 ADD PUSH1 0x40 MSTORE DUP1 SWAP3 SWAP2 SWAP1 DUP2 DUP2 MSTORE PUSH1 0x20 ADD DUP3 DUP1 SLOAD PUSH2 0x19EA SWAP1 PUSH2 0x2F0B JUMP JUMPDEST DUP1 ISZERO PUSH2 0x1A37 JUMPI DUP1 PUSH1 0x1F LT PUSH2 0x1A0C JUMPI PUSH2 0x100 DUP1 DUP4 SLOAD DIV MUL DUP4 MSTORE SWAP2 PUSH1 0x20 ADD SWAP2 PUSH2 0x1A37 JUMP JUMPDEST DUP3 ADD SWAP2 SWAP1 PUSH1 0x0 MSTORE PUSH1 0x20 PUSH1 0x0 KECCAK256 SWAP1 JUMPDEST DUP2 SLOAD DUP2 MSTORE SWAP1 PUSH1 0x1 ADD SWAP1 PUSH1 0x20 ADD DUP1 DUP4 GT PUSH2 0x1A1A JUMPI DUP3 SWAP1 SUB PUSH1 0x1F AND DUP3 ADD SWAP2 JUMPDEST POP POP POP POP POP SWAP1 POP DUP5 JUMP JUMPDEST PUSH32 0xA49807205CE4D355092EF5A8A18F56E8913CF4A201FBE287825B095693C21775 PUSH2 0x1A6B DUP2 PUSH2 0x2096 JUMP JUMPDEST PUSH1 0x0 PUSH1 0x2 PUSH1 0x0 DUP6 DUP2 MSTORE PUSH1 0x20 ADD SWAP1 DUP2 MSTORE PUSH1 0x20 ADD PUSH1 0x0 KECCAK256 SWAP1 POP DUP3 PUSH1 0x7 DUP2 GT ISZERO PUSH2 0x1A95 JUMPI PUSH2 0x1A94 PUSH2 0x2708 JUMP JUMPDEST JUMPDEST DUP2 PUSH1 0x0 ADD PUSH1 0x14 SWAP1 SLOAD SWAP1 PUSH2 0x100 EXP SWAP1 DIV PUSH1 0xFF AND PUSH1 0x7 DUP2 GT ISZERO PUSH2 0x1AB9 JUMPI PUSH2 0x1AB8 PUSH2 0x2708 JUMP JUMPDEST JUMPDEST EQ PUSH2 0x1AF9 JUMPI PUSH1 0x40 MLOAD PUSH32 0x8C379A000000000000000000000000000000000000000000000000000000000 DUP2 MSTORE PUSH1 0x4 ADD PUSH2 0x1AF0 SWAP1 PUSH2 0x36D2 JUMP JUMPDEST PUSH1 0x40 MLOAD DUP1 SWAP2 SUB SWAP1 REVERT JUMPDEST PUSH1 0x0 PUSH1 0x7 DUP2 GT ISZERO PUSH2 0x1B0D JUMPI PUSH2 0x1B0C PUSH2 0x2708 JUMP JUMPDEST JUMPDEST DUP4 PUSH1 0x7 DUP2 GT ISZERO PUSH2 0x1B20 JUMPI PUSH2 0x1B1F PUSH2 0x2708 JUMP JUMPDEST JUMPDEST SUB PUSH2 0x1B57 JUMPI PUSH1 0x1 DUP2 PUSH1 0x0 ADD PUSH1 0x14 PUSH2 0x100 EXP DUP2 SLOAD DUP2 PUSH1 0xFF MUL NOT AND SWAP1 DUP4 PUSH1 0x7 DUP2 GT ISZERO PUSH2 0x1B4D JUMPI PUSH2 0x1B4C PUSH2 0x2708 JUMP JUMPDEST JUMPDEST MUL OR SWAP1 SSTORE POP PUSH2 0x1C50 JUMP JUMPDEST PUSH1 0x2 PUSH1 0x7 DUP2 GT ISZERO PUSH2 0x1B6B JUMPI PUSH2 0x1B6A PUSH2 0x2708 JUMP JUMPDEST JUMPDEST DUP4 PUSH1 0x7 DUP2 GT ISZERO PUSH2 0x1B7E JUMPI PUSH2 0x1B7D PUSH2 0x2708 JUMP JUMPDEST JUMPDEST SUB PUSH2 0x1BB5 JUMPI PUSH1 0x3 DUP2 PUSH1 0x0 ADD PUSH1 0x14 PUSH2 0x100 EXP DUP2 SLOAD DUP2 PUSH1 0xFF MUL NOT AND SWAP1 DUP4 PUSH1 0x7 DUP2 GT ISZERO PUSH2 0x1BAB JUMPI PUSH2 0x1BAA PUSH2 0x2708 JUMP JUMPDEST JUMPDEST MUL OR SWAP1 SSTORE POP PUSH2 0x1C4F JUMP JUMPDEST PUSH1 0x4 PUSH1 0x7 DUP2 GT ISZERO PUSH2 0x1BC9 JUMPI PUSH2 0x1BC8 PUSH2 0x2708 JUMP JUMPDEST JUMPDEST DUP4 PUSH1 0x7 DUP2 GT ISZERO PUSH2 0x1BDC JUMPI PUSH2 0x1BDB PUSH2 0x2708 JUMP JUMPDEST JUMPDEST SUB PUSH2 0x1C13 JUMPI PUSH1 0x5 DUP2 PUSH1 0x0 ADD PUSH1 0x14 PUSH2 0x100 EXP DUP2 SLOAD DUP2 PUSH1 0xFF MUL NOT AND SWAP1 DUP4 PUSH1 0x7 DUP2 GT ISZERO PUSH2 0x1C09 JUMPI PUSH2 0x1C08 PUSH2 0x2708 JUMP JUMPDEST JUMPDEST MUL OR SWAP1 SSTORE POP PUSH2 0x1C4E JUMP JUMPDEST PUSH1 0x40 MLOAD PUSH32 0x8C379A000000000000000000000000000000000000000000000000000000000 DUP2 MSTORE PUSH1 0x4 ADD PUSH2 0x1C45 SWAP1 PUSH2 0x3764 JUMP JUMPDEST PUSH1 0x40 MLOAD DUP1 SWAP2 SUB SWAP1 REVERT JUMPDEST JUMPDEST JUMPDEST DUP4 PUSH32 0xF32674B104C9036B14A2A04E80D007566495FDD06961275EFCF1016491D6CD07 DUP3 PUSH1 0x0 ADD PUSH1 0x14 SWAP1 SLOAD SWAP1 PUSH2 0x100 EXP SWAP1 DIV PUSH1 0xFF AND PUSH1 0x40 MLOAD PUSH2 0x1C91 SWAP2 SWAP1 PUSH2 0x3784 JUMP JUMPDEST PUSH1 0x40 MLOAD DUP1 SWAP2 SUB SWAP1 LOG2 POP POP POP POP JUMP JUMPDEST PUSH1 0x0 PUSH1 0x4 PUSH1 0x0 DUP5 DUP2 MSTORE PUSH1 0x20 ADD SWAP1 DUP2 MSTORE PUSH1 0x20 ADD PUSH1 0x0 KECCAK256 PUSH1 0x0 DUP4 PUSH1 0x7 DUP2 GT ISZERO PUSH2 0x1CC9 JUMPI PUSH2 0x1CC8 PUSH2 0x2708 JUMP JUMPDEST JUMPDEST PUSH1 0x7 DUP2 GT ISZERO PUSH2 0x1CDB JUMPI PUSH2 0x1CDA PUSH2 0x2708 JUMP JUMPDEST JUMPDEST DUP2 MSTORE PUSH1 0x20 ADD SWAP1 DUP2 MSTORE PUSH1 0x20 ADD PUSH1 0x0 KECCAK256 SLOAD SWAP1 POP SWAP3 SWAP2 POP POP JUMP JUMPDEST PUSH2 0x1CFB DUP3 PUSH2 0x652 JUMP JUMPDEST PUSH2 0x1D04 DUP2 PUSH2 0x2096 JUMP JUMPDEST PUSH2 0x1D0E DUP4 DUP4 PUSH2 0x21A3 JUMP JUMPDEST POP POP POP POP JUMP JUMPDEST PUSH32 0xA49807205CE4D355092EF5A8A18F56E8913CF4A201FBE287825B095693C21775 PUSH2 0x1D3E DUP2 PUSH2 0x2096 JUMP JUMPDEST PUSH1 0x0 PUSH20 0xFFFFFFFFFFFFFFFFFFFFFFFFFFFFFFFFFFFFFFFF AND PUSH1 0x2 PUSH1 0x0 DUP7 DUP2 MSTORE PUSH1 0x20 ADD SWAP1 DUP2 MSTORE PUSH1 0x20 ADD PUSH1 0x0 KECCAK256 PUSH1 0x0 ADD PUSH1 0x0 SWAP1 SLOAD SWAP1 PUSH2 0x100 EXP SWAP1 DIV PUSH20 0xFFFFFFFFFFFFFFFFFFFFFFFFFFFFFFFFFFFFFFFF AND PUSH20 0xFFFFFFFFFFFFFFFFFFFFFFFFFFFFFFFFFFFFFFFF AND SUB PUSH2 0x1DE3 JUMPI PUSH1 0x40 MLOAD PUSH32 0x8C379A000000000000000000000000000000000000000000000000000000000 DUP2 MSTORE PUSH1 0x4 ADD PUSH2 0x1DDA SWAP1 PUSH2 0x37EB JUMP JUMPDEST PUSH1 0x40 MLOAD DUP1 SWAP2 SUB SWAP1 REVERT JUMPDEST DUP2 PUSH1 0x4 PUSH1 0x0 DUP7 DUP2 MSTORE PUSH1 0x20 ADD SWAP1 DUP2 MSTORE PUSH1 0x20 ADD PUSH1 0x0 KECCAK256 PUSH1 0x0 DUP6 PUSH1 0x7 DUP2 GT ISZERO PUSH2 0x1E0C JUMPI PUSH2 0x1E0B PUSH2 0x2708 JUMP JUMPDEST JUMPDEST PUSH1 0x7 DUP2 GT ISZERO PUSH2 0x1E1E JUMPI PUSH2 0x1E1D PUSH2 0x2708 JUMP JUMPDEST JUMPDEST DUP2 MSTORE PUSH1 0x20 ADD SWAP1 DUP2 MSTORE PUSH1 0x20 ADD PUSH1 0x0 KECCAK256 DUP2 SWAP1 SSTORE POP DUP2 PUSH1 0x3 PUSH1 0x0 DUP7 DUP2 MSTORE PUSH1 0x20 ADD SWAP1 DUP2 MSTORE PUSH1 0x20 ADD PUSH1 0x0 KECCAK256 DUP2 SWAP1 SSTORE POP DUP3 PUSH1 0x7 DUP2 GT ISZERO PUSH2 0x1E5B JUMPI PUSH2 0x1E5A PUSH2 0x2708 JUMP JUMPDEST JUMPDEST DUP5 PUSH32 0x56EB2385ADE678AF1E07640803BF289BE7B35BCA5E06E93E08F8A2F5B936D0D8 DUP5 PUSH1 0x40 MLOAD PUSH2 0x1E8B SWAP2 SWAP1 PUSH2 0x2518 JUMP JUMPDEST PUSH1 0x40 MLOAD DUP1 SWAP2 SUB SWAP1 LOG3 POP POP POP POP JUMP JUMPDEST PUSH32 0xFBD454F36A7E1A388BD6FC3AB10D434AA4578F811ACBBCF33AFB1C697486313C DUP2 JUMP JUMPDEST PUSH1 0x0 DUP3 DUP3 SWAP1 POP DUP6 DUP6 SWAP1 POP EQ PUSH2 0x1F07 JUMPI PUSH1 0x40 MLOAD PUSH32 0x8C379A000000000000000000000000000000000000000000000000000000000 DUP2 MSTORE PUSH1 0x4 ADD PUSH2 0x1EFE SWAP1 PUSH2 0x3857 JUMP JUMPDEST PUSH1 0x40 MLOAD DUP1 SWAP2 SUB SWAP1 REVERT JUMPDEST PUSH1 0x0 JUMPDEST DUP6 DUP6 SWAP1 POP DUP2 LT ISZERO PUSH2 0x201C JUMPI PUSH1 0x0 PUSH1 0x4 PUSH1 0x0 DUP11 DUP2 MSTORE PUSH1 0x20 ADD SWAP1 DUP2 MSTORE PUSH1 0x20 ADD PUSH1 0x0 KECCAK256 PUSH1 0x0 DUP10 PUSH1 0x7 DUP2 GT ISZERO PUSH2 0x1F3F JUMPI PUSH2 0x1F3E PUSH2 0x2708 JUMP JUMPDEST JUMPDEST PUSH1 0x7 DUP2 GT ISZERO PUSH2 0x1F51 JUMPI PUSH2 0x1F50 PUSH2 0x2708 JUMP JUMPDEST JUMPDEST DUP2 MSTORE PUSH1 0x20 ADD SWAP1 DUP2 MSTORE PUSH1 0x20 ADD PUSH1 0x0 KECCAK256 SLOAD SWAP1 POP PUSH1 0x0 DUP1 SHL DUP2 SUB PUSH2 0x1F77 JUMPI PUSH1 0x0 SWAP3 POP POP POP PUSH2 0x2022 JUMP JUMPDEST PUSH2 0x1FFF DUP6 DUP6 DUP5 DUP2 DUP2 LT PUSH2 0x1F8D JUMPI PUSH2 0x1F8C PUSH2 0x3877 JUMP JUMPDEST JUMPDEST SWAP1 POP PUSH1 0x20 MUL DUP2 ADD SWAP1 PUSH2 0x1F9F SWAP2 SWAP1 PUSH2 0x38B5 JUMP JUMPDEST DUP1 DUP1 PUSH1 0x20 MUL PUSH1 0x20 ADD PUSH1 0x40 MLOAD SWAP1 DUP2 ADD PUSH1 0x40 MSTORE DUP1 SWAP4 SWAP3 SWAP2 SWAP1 DUP2 DUP2 MSTORE PUSH1 0x20 ADD DUP4 DUP4 PUSH1 0x20 MUL DUP1 DUP3 DUP5 CALLDATACOPY PUSH1 0x0 DUP2 DUP5 ADD MSTORE PUSH1 0x1F NOT PUSH1 0x1F DUP3 ADD AND SWAP1 POP DUP1 DUP4 ADD SWAP3 POP POP POP POP POP POP POP DUP3 DUP10 DUP10 DUP7 DUP2 DUP2 LT PUSH2 0x1FF3 JUMPI PUSH2 0x1FF2 PUSH2 0x3877 JUMP JUMPDEST JUMPDEST SWAP1 POP PUSH1 0x20 MUL ADD CALLDATALOAD PUSH2 0x2295 JUMP JUMPDEST PUSH2 0x200E JUMPI PUSH1 0x0 SWAP3 POP POP POP PUSH2 0x2022 JUMP JUMPDEST POP DUP1 DUP1 PUSH1 0x1 ADD SWAP2 POP POP PUSH2 0x1F0A JUMP JUMPDEST POP PUSH1 0x1 SWAP1 POP JUMPDEST SWAP7 SWAP6 POP POP POP POP POP POP JUMP JUMPDEST PUSH1 0x0 PUSH32 0x1FFC9A700000000000000000000000000000000000000000000000000000000 PUSH28 0xFFFFFFFFFFFFFFFFFFFFFFFFFFFFFFFFFFFFFFFFFFFFFFFFFFFFFFFF NOT AND DUP3 PUSH28 0xFFFFFFFFFFFFFFFFFFFFFFFFFFFFFFFFFFFFFFFFFFFFFFFFFFFFFFFF NOT AND EQ SWAP1 POP SWAP2 SWAP1 POP JUMP JUMPDEST PUSH2 0x20A7 DUP2 PUSH2 0x20A2 PUSH2 0x219B JUMP JUMPDEST PUSH2 0x22AC JUMP JUMPDEST POP JUMP JUMPDEST PUSH1 0x0 PUSH2 0x20B6 DUP4 DUP4 PUSH2 0x18C1 JUMP JUMPDEST PUSH2 0x2190 JUMPI PUSH1 0x1 PUSH1 0x0 DUP1 DUP6 DUP2 MSTORE PUSH1 0x20 ADD SWAP1 DUP2 MSTORE PUSH1 0x20 ADD PUSH1 0x0 KECCAK256 PUSH1 0x0 ADD PUSH1 0x0 DUP5 PUSH20 0xFFFFFFFFFFFFFFFFFFFFFFFFFFFFFFFFFFFFFFFF AND PUSH20 0xFFFFFFFFFFFFFFFFFFFFFFFFFFFFFFFFFFFFFFFF AND DUP2 MSTORE PUSH1 0x20 ADD SWAP1 DUP2 MSTORE PUSH1 0x20 ADD PUSH1 0x0 KECCAK256 PUSH1 0x0 PUSH2 0x100 EXP DUP2 SLOAD DUP2 PUSH1 0xFF MUL NOT AND SWAP1 DUP4 ISZERO ISZERO MUL OR SWAP1 SSTORE POP PUSH2 0x212D PUSH2 0x219B JUMP JUMPDEST PUSH20 0xFFFFFFFFFFFFFFFFFFFFFFFFFFFFFFFFFFFFFFFF AND DUP3 PUSH20 0xFFFFFFFFFFFFFFFFFFFFFFFFFFFFFFFFFFFFFFFF AND DUP5 PUSH32 0x2F8788117E7EFF1D82E926EC794901D17C78024A50270940304540A733656F0D PUSH1 0x40 MLOAD PUSH1 0x40 MLOAD DUP1 SWAP2 SUB SWAP1 LOG4 PUSH1 0x1 SWAP1 POP PUSH2 0x2195 JUMP JUMPDEST PUSH1 0x0 SWAP1 POP JUMPDEST SWAP3 SWAP2 POP POP JUMP JUMPDEST PUSH1 0x0 CALLER SWAP1 POP SWAP1 JUMP JUMPDEST PUSH1 0x0 PUSH2 0x21AF DUP4 DUP4 PUSH2 0x18C1 JUMP JUMPDEST ISZERO PUSH2 0x228A JUMPI PUSH1 0x0 DUP1 PUSH1 0x0 DUP6 DUP2 MSTORE PUSH1 0x20 ADD SWAP1 DUP2 MSTORE PUSH1 0x20 ADD PUSH1 0x0 KECCAK256 PUSH1 0x0 ADD PUSH1 0x0 DUP5 PUSH20 0xFFFFFFFFFFFFFFFFFFFFFFFFFFFFFFFFFFFFFFFF AND PUSH20 0xFFFFFFFFFFFFFFFFFFFFFFFFFFFFFFFFFFFFFFFF AND DUP2 MSTORE PUSH1 0x20 ADD SWAP1 DUP2 MSTORE PUSH1 0x20 ADD PUSH1 0x0 KECCAK256 PUSH1 0x0 PUSH2 0x100 EXP DUP2 SLOAD DUP2 PUSH1 0xFF MUL NOT AND SWAP1 DUP4 ISZERO ISZERO MUL OR SWAP1 SSTORE POP PUSH2 0x2227 PUSH2 0x219B JUMP JUMPDEST PUSH20 0xFFFFFFFFFFFFFFFFFFFFFFFFFFFFFFFFFFFFFFFF AND DUP3 PUSH20 0xFFFFFFFFFFFFFFFFFFFFFFFFFFFFFFFFFFFFFFFF AND DUP5 PUSH32 0xF6391F5C32D9C69D2A47EA670B442974B53935D1EDC7FD64EB21E047A839171B PUSH1 0x40 MLOAD PUSH1 0x40 MLOAD DUP1 SWAP2 SUB SWAP1 LOG4 PUSH1 0x1 SWAP1 POP PUSH2 0x228F JUMP JUMPDEST PUSH1 0x0 SWAP1 POP JUMPDEST SWAP3 SWAP2 POP POP JUMP JUMPDEST PUSH1 0x0 DUP3 PUSH2 0x22A2 DUP6 DUP5 PUSH2 0x22FD JUMP JUMPDEST EQ SWAP1 POP SWAP4 SWAP3 POP POP POP JUMP JUMPDEST PUSH2 0x22B6 DUP3 DUP3 PUSH2 0x18C1 JUMP JUMPDEST PUSH2 0x22F9 JUMPI DUP1 DUP3 PUSH1 0x40 MLOAD PUSH32 0xE2517D3F00000000000000000000000000000000000000000000000000000000 DUP2 MSTORE PUSH1 0x4 ADD PUSH2 0x22F0 SWAP3 SWAP2 SWAP1 PUSH2 0x3918 JUMP JUMPDEST PUSH1 0x40 MLOAD DUP1 SWAP2 SUB SWAP1 REVERT JUMPDEST POP POP JUMP JUMPDEST PUSH1 0x0 DUP1 DUP3 SWAP1 POP PUSH1 0x0 JUMPDEST DUP5 MLOAD DUP2 LT ISZERO PUSH2 0x2342 JUMPI PUSH2 0x2333 DUP3 DUP7 DUP4 DUP2 MLOAD DUP2 LT PUSH2 0x2326 JUMPI PUSH2 0x2325 PUSH2 0x3877 JUMP JUMPDEST JUMPDEST PUSH1 0x20 MUL PUSH1 0x20 ADD ADD MLOAD PUSH2 0x234D JUMP JUMPDEST SWAP2 POP DUP1 DUP1 PUSH1 0x1 ADD SWAP2 POP POP PUSH2 0x2306 JUMP JUMPDEST POP DUP1 SWAP2 POP POP SWAP3 SWAP2 POP POP JUMP JUMPDEST PUSH1 0x0 DUP2 DUP4 LT PUSH2 0x2365 JUMPI PUSH2 0x2360 DUP3 DUP5 PUSH2 0x2378 JUMP JUMPDEST PUSH2 0x2370 JUMP JUMPDEST PUSH2 0x236F DUP4 DUP4 PUSH2 0x2378 JUMP JUMPDEST JUMPDEST SWAP1 POP SWAP3 SWAP2 POP POP JUMP JUMPDEST PUSH1 0x0 DUP3 PUSH1 0x0 MSTORE DUP2 PUSH1 0x20 MSTORE PUSH1 0x40 PUSH1 0x0 KECCAK256 SWAP1 POP SWAP3 SWAP2 POP POP JUMP JUMPDEST PUSH1 0x40 MLOAD DUP1 PUSH1 0x80 ADD PUSH1 0x40 MSTORE DUP1 PUSH1 0x0 PUSH20 0xFFFFFFFFFFFFFFFFFFFFFFFFFFFFFFFFFFFFFFFF AND DUP2 MSTORE PUSH1 0x20 ADD PUSH1 0x0 PUSH1 0x7 DUP2 GT ISZERO PUSH2 0x23CB JUMPI PUSH2 0x23CA PUSH2 0x2708 JUMP JUMPDEST JUMPDEST DUP2 MSTORE PUSH1 0x20 ADD PUSH1 0x0 ISZERO ISZERO DUP2 MSTORE PUSH1 0x20 ADD PUSH1 0x60 DUP2 MSTORE POP SWAP1 JUMP JUMPDEST PUSH1 0x0 DUP1 REVERT JUMPDEST PUSH1 0x0 DUP1 REVERT JUMPDEST PUSH1 0x0 PUSH32 0xFFFFFFFF00000000000000000000000000000000000000000000000000000000 DUP3 AND SWAP1 POP SWAP2 SWAP1 POP JUMP JUMPDEST PUSH2 0x2420 DUP2 PUSH2 0x23EB JUMP JUMPDEST DUP2 EQ PUSH2 0x242B JUMPI PUSH1 0x0 DUP1 REVERT JUMPDEST POP JUMP JUMPDEST PUSH1 0x0 DUP2 CALLDATALOAD SWAP1 POP PUSH2 0x243D DUP2 PUSH2 0x2417 JUMP JUMPDEST SWAP3 SWAP2 POP POP JUMP JUMPDEST PUSH1 0x0 PUSH1 0x20 DUP3 DUP5 SUB SLT ISZERO PUSH2 0x2459 JUMPI PUSH2 0x2458 PUSH2 0x23E1 JUMP JUMPDEST JUMPDEST PUSH1 0x0 PUSH2 0x2467 DUP5 DUP3 DUP6 ADD PUSH2 0x242E JUMP JUMPDEST SWAP2 POP POP SWAP3 SWAP2 POP POP JUMP JUMPDEST PUSH1 0x0 DUP2 ISZERO ISZERO SWAP1 POP SWAP2 SWAP1 POP JUMP JUMPDEST PUSH2 0x2485 DUP2 PUSH2 0x2470 JUMP JUMPDEST DUP3 MSTORE POP POP JUMP JUMPDEST PUSH1 0x0 PUSH1 0x20 DUP3 ADD SWAP1 POP PUSH2 0x24A0 PUSH1 0x0 DUP4 ADD DUP5 PUSH2 0x247C JUMP JUMPDEST SWAP3 SWAP2 POP POP JUMP JUMPDEST PUSH1 0x0 DUP2 SWAP1 POP SWAP2 SWAP1 POP JUMP JUMPDEST PUSH2 0x24B9 DUP2 PUSH2 0x24A6 JUMP JUMPDEST DUP2 EQ PUSH2 0x24C4 JUMPI PUSH1 0x0 DUP1 REVERT JUMPDEST POP JUMP JUMPDEST PUSH1 0x0 DUP2 CALLDATALOAD SWAP1 POP PUSH2 0x24D6 DUP2 PUSH2 0x24B0 JUMP JUMPDEST SWAP3 SWAP2 POP POP JUMP JUMPDEST PUSH1 0x0 PUSH1 0x20 DUP3 DUP5 SUB SLT ISZERO PUSH2 0x24F2 JUMPI PUSH2 0x24F1 PUSH2 0x23E1 JUMP JUMPDEST JUMPDEST PUSH1 0x0 PUSH2 0x2500 DUP5 DUP3 DUP6 ADD PUSH2 0x24C7 JUMP JUMPDEST SWAP2 POP POP SWAP3 SWAP2 POP POP JUMP JUMPDEST PUSH2 0x2512 DUP2 PUSH2 0x24A6 JUMP JUMPDEST DUP3 MSTORE POP POP JUMP JUMPDEST PUSH1 0x0 PUSH1 0x20 DUP3 ADD SWAP1 POP PUSH2 0x252D PUSH1 0x0 DUP4 ADD DUP5 PUSH2 0x2509 JUMP JUMPDEST SWAP3 SWAP2 POP POP JUMP JUMPDEST PUSH1 0x0 PUSH20 0xFFFFFFFFFFFFFFFFFFFFFFFFFFFFFFFFFFFFFFFF DUP3 AND SWAP1 POP SWAP2 SWAP1 POP JUMP JUMPDEST PUSH1 0x0 PUSH2 0x255E DUP3 PUSH2 0x2533 JUMP JUMPDEST SWAP1 POP SWAP2 SWAP1 POP JUMP JUMPDEST PUSH2 0x256E DUP2 PUSH2 0x2553 JUMP JUMPDEST DUP2 EQ PUSH2 0x2579 JUMPI PUSH1 0x0 DUP1 REVERT JUMPDEST POP JUMP JUMPDEST PUSH1 0x0 DUP2 CALLDATALOAD SWAP1 POP PUSH2 0x258B DUP2 PUSH2 0x2565 JUMP JUMPDEST SWAP3 SWAP2 POP POP JUMP JUMPDEST PUSH1 0x0 DUP1 REVERT JUMPDEST PUSH1 0x0 DUP1 REVERT JUMPDEST PUSH1 0x0 DUP1 REVERT JUMPDEST PUSH1 0x0 DUP1 DUP4 PUSH1 0x1F DUP5 ADD SLT PUSH2 0x25B6 JUMPI PUSH2 0x25B5 PUSH2 0x2591 JUMP JUMPDEST JUMPDEST DUP3 CALLDATALOAD SWAP1 POP PUSH8 0xFFFFFFFFFFFFFFFF DUP2 GT ISZERO PUSH2 0x25D3 JUMPI PUSH2 0x25D2 PUSH2 0x2596 JUMP JUMPDEST JUMPDEST PUSH1 0x20 DUP4 ADD SWAP2 POP DUP4 PUSH1 0x1 DUP3 MUL DUP4 ADD GT ISZERO PUSH2 0x25EF JUMPI PUSH2 0x25EE PUSH2 0x259B JUMP JUMPDEST JUMPDEST SWAP3 POP SWAP3 SWAP1 POP JUMP JUMPDEST PUSH1 0x0 DUP1 PUSH1 0x0 PUSH1 0x40 DUP5 DUP7 SUB SLT ISZERO PUSH2 0x260F JUMPI PUSH2 0x260E PUSH2 0x23E1 JUMP JUMPDEST JUMPDEST PUSH1 0x0 PUSH2 0x261D DUP7 DUP3 DUP8 ADD PUSH2 0x257C JUMP JUMPDEST SWAP4 POP POP PUSH1 0x20 DUP5 ADD CALLDATALOAD PUSH8 0xFFFFFFFFFFFFFFFF DUP2 GT ISZERO PUSH2 0x263E JUMPI PUSH2 0x263D PUSH2 0x23E6 JUMP JUMPDEST JUMPDEST PUSH2 0x264A DUP7 DUP3 DUP8 ADD PUSH2 0x25A0 JUMP JUMPDEST SWAP3 POP SWAP3 POP POP SWAP3 POP SWAP3 POP SWAP3 JUMP JUMPDEST PUSH1 0x0 DUP1 PUSH1 0x40 DUP4 DUP6 SUB SLT ISZERO PUSH2 0x266D JUMPI PUSH2 0x266C PUSH2 0x23E1 JUMP JUMPDEST JUMPDEST PUSH1 0x0 PUSH2 0x267B DUP6 DUP3 DUP7 ADD PUSH2 0x24C7 JUMP JUMPDEST SWAP3 POP POP PUSH1 0x20 PUSH2 0x268C DUP6 DUP3 DUP7 ADD PUSH2 0x257C JUMP JUMPDEST SWAP2 POP POP SWAP3 POP SWAP3 SWAP1 POP JUMP JUMPDEST PUSH1 0x0 DUP2 SWAP1 POP SWAP2 SWAP1 POP JUMP JUMPDEST PUSH2 0x26A9 DUP2 PUSH2 0x2696 JUMP JUMPDEST DUP2 EQ PUSH2 0x26B4 JUMPI PUSH1 0x0 DUP1 REVERT JUMPDEST POP JUMP JUMPDEST PUSH1 0x0 DUP2 CALLDATALOAD SWAP1 POP PUSH2 0x26C6 DUP2 PUSH2 0x26A0 JUMP JUMPDEST SWAP3 SWAP2 POP POP JUMP JUMPDEST PUSH1 0x0 PUSH1 0x20 DUP3 DUP5 SUB SLT ISZERO PUSH2 0x26E2 JUMPI PUSH2 0x26E1 PUSH2 0x23E1 JUMP JUMPDEST JUMPDEST PUSH1 0x0 PUSH2 0x26F0 DUP5 DUP3 DUP6 ADD PUSH2 0x26B7 JUMP JUMPDEST SWAP2 POP POP SWAP3 SWAP2 POP POP JUMP JUMPDEST PUSH2 0x2702 DUP2 PUSH2 0x2553 JUMP JUMPDEST DUP3 MSTORE POP POP JUMP JUMPDEST PUSH32 0x4E487B7100000000000000000000000000000000000000000000000000000000 PUSH1 0x0 MSTORE PUSH1 0x21 PUSH1 0x4 MSTORE PUSH1 0x24 PUSH1 0x0 REVERT JUMPDEST PUSH1 0x8 DUP2 LT PUSH2 0x2748 JUMPI PUSH2 0x2747 PUSH2 0x2708 JUMP JUMPDEST JUMPDEST POP JUMP JUMPDEST PUSH1 0x0 DUP2 SWAP1 POP PUSH2 0x2759 DUP3 PUSH2 0x2737 JUMP JUMPDEST SWAP2 SWAP1 POP JUMP JUMPDEST PUSH1 0x0 PUSH2 0x2769 DUP3 PUSH2 0x274B JUMP JUMPDEST SWAP1 POP SWAP2 SWAP1 POP JUMP JUMPDEST PUSH2 0x2779 DUP2 PUSH2 0x275E JUMP JUMPDEST DUP3 MSTORE POP POP JUMP JUMPDEST PUSH2 0x2788 DUP2 PUSH2 0x2470 JUMP JUMPDEST DUP3 MSTORE POP POP JUMP JUMPDEST PUSH1 0x0 DUP2 MLOAD SWAP1 POP SWAP2 SWAP1 POP JUMP JUMPDEST PUSH1 0x0 DUP3 DUP3 MSTORE PUSH1 0x20 DUP3 ADD SWAP1 POP SWAP3 SWAP2 POP POP JUMP JUMPDEST PUSH1 0x0 JUMPDEST DUP4 DUP2 LT ISZERO PUSH2 0x27C8 JUMPI DUP1 DUP3 ADD MLOAD DUP2 DUP5 ADD MSTORE PUSH1 0x20 DUP2 ADD SWAP1 POP PUSH2 0x27AD JUMP JUMPDEST PUSH1 0x0 DUP5 DUP5 ADD MSTORE POP POP POP POP JUMP JUMPDEST PUSH1 0x0 PUSH1 0x1F NOT PUSH1 0x1F DUP4 ADD AND SWAP1 POP SWAP2 SWAP1 POP JUMP JUMPDEST PUSH1 0x0 PUSH2 0x27F0 DUP3 PUSH2 0x278E JUMP JUMPDEST PUSH2 0x27FA DUP2 DUP6 PUSH2 0x2799 JUMP JUMPDEST SWAP4 POP PUSH2 0x280A DUP2 DUP6 PUSH1 0x20 DUP7 ADD PUSH2 0x27AA JUMP JUMPDEST PUSH2 0x2813 DUP2 PUSH2 0x27D4 JUMP JUMPDEST DUP5 ADD SWAP2 POP POP SWAP3 SWAP2 POP POP JUMP JUMPDEST PUSH1 0x0 PUSH1 0x80 DUP4 ADD PUSH1 0x0 DUP4 ADD MLOAD PUSH2 0x2836 PUSH1 0x0 DUP7 ADD DUP3 PUSH2 0x26F9 JUMP JUMPDEST POP PUSH1 0x20 DUP4 ADD MLOAD PUSH2 0x2849 PUSH1 0x20 DUP7 ADD DUP3 PUSH2 0x2770 JUMP JUMPDEST POP PUSH1 0x40 DUP4 ADD MLOAD PUSH2 0x285C PUSH1 0x40 DUP7 ADD DUP3 PUSH2 0x277F JUMP JUMPDEST POP PUSH1 0x60 DUP4 ADD MLOAD DUP5 DUP3 SUB PUSH1 0x60 DUP7 ADD MSTORE PUSH2 0x2874 DUP3 DUP3 PUSH2 0x27E5 JUMP JUMPDEST SWAP2 POP POP DUP1 SWAP2 POP POP SWAP3 SWAP2 POP POP JUMP JUMPDEST PUSH1 0x0 PUSH1 0x20 DUP3 ADD SWAP1 POP DUP2 DUP2 SUB PUSH1 0x0 DUP4 ADD MSTORE PUSH2 0x289B DUP2 DUP5 PUSH2 0x281E JUMP JUMPDEST SWAP1 POP SWAP3 SWAP2 POP POP JUMP JUMPDEST PUSH1 0x8 DUP2 LT PUSH2 0x28B0 JUMPI PUSH1 0x0 DUP1 REVERT JUMPDEST POP JUMP JUMPDEST PUSH1 0x0 DUP2 CALLDATALOAD SWAP1 POP PUSH2 0x28C2 DUP2 PUSH2 0x28A3 JUMP JUMPDEST SWAP3 SWAP2 POP POP JUMP JUMPDEST PUSH1 0x0 DUP1 DUP4 PUSH1 0x1F DUP5 ADD SLT PUSH2 0x28DE JUMPI PUSH2 0x28DD PUSH2 0x2591 JUMP JUMPDEST JUMPDEST DUP3 CALLDATALOAD SWAP1 POP PUSH8 0xFFFFFFFFFFFFFFFF DUP2 GT ISZERO PUSH2 0x28FB JUMPI PUSH2 0x28FA PUSH2 0x2596 JUMP JUMPDEST JUMPDEST PUSH1 0x20 DUP4 ADD SWAP2 POP DUP4 PUSH1 0x20 DUP3 MUL DUP4 ADD GT ISZERO PUSH2 0x2917 JUMPI PUSH2 0x2916 PUSH2 0x259B JUMP JUMPDEST JUMPDEST SWAP3 POP SWAP3 SWAP1 POP JUMP JUMPDEST PUSH1 0x0 DUP1 PUSH1 0x0 DUP1 PUSH1 0x0 PUSH1 0x80 DUP7 DUP9 SUB SLT ISZERO PUSH2 0x293A JUMPI PUSH2 0x2939 PUSH2 0x23E1 JUMP JUMPDEST JUMPDEST PUSH1 0x0 PUSH2 0x2948 DUP9 DUP3 DUP10 ADD PUSH2 0x26B7 JUMP JUMPDEST SWAP6 POP POP PUSH1 0x20 PUSH2 0x2959 DUP9 DUP3 DUP10 ADD PUSH2 0x28B3 JUMP JUMPDEST SWAP5 POP POP PUSH1 0x40 PUSH2 0x296A DUP9 DUP3 DUP10 ADD PUSH2 0x24C7 JUMP JUMPDEST SWAP4 POP POP PUSH1 0x60 DUP7 ADD CALLDATALOAD PUSH8 0xFFFFFFFFFFFFFFFF DUP2 GT ISZERO PUSH2 0x298B JUMPI PUSH2 0x298A PUSH2 0x23E6 JUMP JUMPDEST JUMPDEST PUSH2 0x2997 DUP9 DUP3 DUP10 ADD PUSH2 0x28C8 JUMP JUMPDEST SWAP3 POP SWAP3 POP POP SWAP3 SWAP6 POP SWAP3 SWAP6 SWAP1 SWAP4 POP JUMP JUMPDEST PUSH1 0x0 DUP1 PUSH1 0x40 DUP4 DUP6 SUB SLT ISZERO PUSH2 0x29BD JUMPI PUSH2 0x29BC PUSH2 0x23E1 JUMP JUMPDEST JUMPDEST PUSH1 0x0 PUSH2 0x29CB DUP6 DUP3 DUP7 ADD PUSH2 0x26B7 JUMP JUMPDEST SWAP3 POP POP PUSH1 0x20 PUSH2 0x29DC DUP6 DUP3 DUP7 ADD PUSH2 0x28B3 JUMP JUMPDEST SWAP2 POP POP SWAP3 POP SWAP3 SWAP1 POP JUMP JUMPDEST PUSH1 0x0 DUP1 PUSH1 0x0 PUSH1 0x40 DUP5 DUP7 SUB SLT ISZERO PUSH2 0x29FF JUMPI PUSH2 0x29FE PUSH2 0x23E1 JUMP JUMPDEST JUMPDEST PUSH1 0x0 PUSH2 0x2A0D DUP7 DUP3 DUP8 ADD PUSH2 0x26B7 JUMP JUMPDEST SWAP4 POP POP PUSH1 0x20 DUP5 ADD CALLDATALOAD PUSH8 0xFFFFFFFFFFFFFFFF DUP2 GT ISZERO PUSH2 0x2A2E JUMPI PUSH2 0x2A2D PUSH2 0x23E6 JUMP JUMPDEST JUMPDEST PUSH2 0x2A3A DUP7 DUP3 DUP8 ADD PUSH2 0x25A0 JUMP JUMPDEST SWAP3 POP SWAP3 POP POP SWAP3 POP SWAP3 POP SWAP3 JUMP JUMPDEST PUSH2 0x2A4F DUP2 PUSH2 0x2696 JUMP JUMPDEST DUP3 MSTORE POP POP JUMP JUMPDEST PUSH1 0x0 PUSH1 0x20 DUP3 ADD SWAP1 POP PUSH2 0x2A6A PUSH1 0x0 DUP4 ADD DUP5 PUSH2 0x2A46 JUMP JUMPDEST SWAP3 SWAP2 POP POP JUMP JUMPDEST PUSH1 0x0 DUP2 MLOAD SWAP1 POP SWAP2 SWAP1 POP JUMP JUMPDEST PUSH1 0x0 DUP3 DUP3 MSTORE PUSH1 0x20 DUP3 ADD SWAP1 POP SWAP3 SWAP2 POP POP JUMP JUMPDEST PUSH1 0x0 DUP2 SWAP1 POP PUSH1 0x20 DUP3 ADD SWAP1 POP SWAP2 SWAP1 POP JUMP JUMPDEST PUSH2 0x2AA5 DUP2 PUSH2 0x2696 JUMP JUMPDEST DUP3 MSTORE POP POP JUMP JUMPDEST PUSH1 0x0 PUSH1 0x80 DUP4 ADD PUSH1 0x0 DUP4 ADD MLOAD PUSH2 0x2AC3 PUSH1 0x0 DUP7 ADD DUP3 PUSH2 0x2770 JUMP JUMPDEST POP PUSH1 0x20 DUP4 ADD MLOAD DUP5 DUP3 SUB PUSH1 0x20 DUP7 ADD MSTORE PUSH2 0x2ADB DUP3 DUP3 PUSH2 0x27E5 JUMP JUMPDEST SWAP2 POP POP PUSH1 0x40 DUP4 ADD MLOAD PUSH2 0x2AF0 PUSH1 0x40 DUP7 ADD DUP3 PUSH2 0x26F9 JUMP JUMPDEST POP PUSH1 0x60 DUP4 ADD MLOAD PUSH2 0x2B03 PUSH1 0x60 DUP7 ADD DUP3 PUSH2 0x2A9C JUMP JUMPDEST POP DUP1 SWAP2 POP POP SWAP3 SWAP2 POP POP JUMP JUMPDEST PUSH1 0x0 PUSH2 0x2B1A DUP4 DUP4 PUSH2 0x2AAB JUMP JUMPDEST SWAP1 POP SWAP3 SWAP2 POP POP JUMP JUMPDEST PUSH1 0x0 PUSH1 0x20 DUP3 ADD SWAP1 POP SWAP2 SWAP1 POP JUMP JUMPDEST PUSH1 0x0 PUSH2 0x2B3A DUP3 PUSH2 0x2A70 JUMP JUMPDEST PUSH2 0x2B44 DUP2 DUP6 PUSH2 0x2A7B JUMP JUMPDEST SWAP4 POP DUP4 PUSH1 0x20 DUP3 MUL DUP6 ADD PUSH2 0x2B56 DUP6 PUSH2 0x2A8C JUMP JUMPDEST DUP1 PUSH1 0x0 JUMPDEST DUP6 DUP2 LT ISZERO PUSH2 0x2B92 JUMPI DUP5 DUP5 SUB DUP10 MSTORE DUP2 MLOAD PUSH2 0x2B73 DUP6 DUP3 PUSH2 0x2B0E JUMP JUMPDEST SWAP5 POP PUSH2 0x2B7E DUP4 PUSH2 0x2B22 JUMP JUMPDEST SWAP3 POP PUSH1 0x20 DUP11 ADD SWAP10 POP POP PUSH1 0x1 DUP2 ADD SWAP1 POP PUSH2 0x2B5A JUMP JUMPDEST POP DUP3 SWAP8 POP DUP8 SWAP6 POP POP POP POP POP POP SWAP3 SWAP2 POP POP JUMP JUMPDEST PUSH1 0x0 PUSH1 0x20 DUP3 ADD SWAP1 POP DUP2 DUP2 SUB PUSH1 0x0 DUP4 ADD MSTORE PUSH2 0x2BBE DUP2 DUP5 PUSH2 0x2B2F JUMP JUMPDEST SWAP1 POP SWAP3 SWAP2 POP POP JUMP JUMPDEST PUSH2 0x2BCF DUP2 PUSH2 0x2553 JUMP JUMPDEST DUP3 MSTORE POP POP JUMP JUMPDEST PUSH2 0x2BDE DUP2 PUSH2 0x275E JUMP JUMPDEST DUP3 MSTORE POP POP JUMP JUMPDEST PUSH1 0x0 DUP3 DUP3 MSTORE PUSH1 0x20 DUP3 ADD SWAP1 POP SWAP3 SWAP2 POP POP JUMP JUMPDEST PUSH1 0x0 PUSH2 0x2C00 DUP3 PUSH2 0x278E JUMP JUMPDEST PUSH2 0x2C0A DUP2 DUP6 PUSH2 0x2BE4 JUMP JUMPDEST SWAP4 POP PUSH2 0x2C1A DUP2 DUP6 PUSH1 0x20 DUP7 ADD PUSH2 0x27AA JUMP JUMPDEST PUSH2 0x2C23 DUP2 PUSH2 0x27D4 JUMP JUMPDEST DUP5 ADD SWAP2 POP POP SWAP3 SWAP2 POP POP JUMP JUMPDEST PUSH1 0x0 PUSH1 0x80 DUP3 ADD SWAP1 POP PUSH2 0x2C43 PUSH1 0x0 DUP4 ADD DUP8 PUSH2 0x2BC6 JUMP JUMPDEST PUSH2 0x2C50 PUSH1 0x20 DUP4 ADD DUP7 PUSH2 0x2BD5 JUMP JUMPDEST PUSH2 0x2C5D PUSH1 0x40 DUP4 ADD DUP6 PUSH2 0x247C JUMP JUMPDEST DUP2 DUP2 SUB PUSH1 0x60 DUP4 ADD MSTORE PUSH2 0x2C6F DUP2 DUP5 PUSH2 0x2BF5 JUMP JUMPDEST SWAP1 POP SWAP6 SWAP5 POP POP POP POP POP JUMP JUMPDEST PUSH1 0x0 DUP1 PUSH1 0x0 PUSH1 0x60 DUP5 DUP7 SUB SLT ISZERO PUSH2 0x2C93 JUMPI PUSH2 0x2C92 PUSH2 0x23E1 JUMP JUMPDEST JUMPDEST PUSH1 0x0 PUSH2 0x2CA1 DUP7 DUP3 DUP8 ADD PUSH2 0x26B7 JUMP JUMPDEST SWAP4 POP POP PUSH1 0x20 PUSH2 0x2CB2 DUP7 DUP3 DUP8 ADD PUSH2 0x28B3 JUMP JUMPDEST SWAP3 POP POP PUSH1 0x40 PUSH2 0x2CC3 DUP7 DUP3 DUP8 ADD PUSH2 0x24C7 JUMP JUMPDEST SWAP2 POP POP SWAP3 POP SWAP3 POP SWAP3 JUMP JUMPDEST PUSH1 0x0 DUP1 DUP4 PUSH1 0x1F DUP5 ADD SLT PUSH2 0x2CE3 JUMPI PUSH2 0x2CE2 PUSH2 0x2591 JUMP JUMPDEST JUMPDEST DUP3 CALLDATALOAD SWAP1 POP PUSH8 0xFFFFFFFFFFFFFFFF DUP2 GT ISZERO PUSH2 0x2D00 JUMPI PUSH2 0x2CFF PUSH2 0x2596 JUMP JUMPDEST JUMPDEST PUSH1 0x20 DUP4 ADD SWAP2 POP DUP4 PUSH1 0x20 DUP3 MUL DUP4 ADD GT ISZERO PUSH2 0x2D1C JUMPI PUSH2 0x2D1B PUSH2 0x259B JUMP JUMPDEST JUMPDEST SWAP3 POP SWAP3 SWAP1 POP JUMP JUMPDEST PUSH1 0x0 DUP1 PUSH1 0x0 DUP1 PUSH1 0x0 DUP1 PUSH1 0x80 DUP8 DUP10 SUB SLT ISZERO PUSH2 0x2D40 JUMPI PUSH2 0x2D3F PUSH2 0x23E1 JUMP JUMPDEST JUMPDEST PUSH1 0x0 PUSH2 0x2D4E DUP10 DUP3 DUP11 ADD PUSH2 0x26B7 JUMP JUMPDEST SWAP7 POP POP PUSH1 0x20 PUSH2 0x2D5F DUP10 DUP3 DUP11 ADD PUSH2 0x28B3 JUMP JUMPDEST SWAP6 POP POP PUSH1 0x40 DUP8 ADD CALLDATALOAD PUSH8 0xFFFFFFFFFFFFFFFF DUP2 GT ISZERO PUSH2 0x2D80 JUMPI PUSH2 0x2D7F PUSH2 0x23E6 JUMP JUMPDEST JUMPDEST PUSH2 0x2D8C DUP10 DUP3 DUP11 ADD PUSH2 0x28C8 JUMP JUMPDEST SWAP5 POP SWAP5 POP POP PUSH1 0x60 DUP8 ADD CALLDATALOAD PUSH8 0xFFFFFFFFFFFFFFFF DUP2 GT ISZERO PUSH2 0x2DAF JUMPI PUSH2 0x2DAE PUSH2 0x23E6 JUMP JUMPDEST JUMPDEST PUSH2 0x2DBB DUP10 DUP3 DUP11 ADD PUSH2 0x2CCD JUMP JUMPDEST SWAP3 POP SWAP3 POP POP SWAP3 SWAP6 POP SWAP3 SWAP6 POP SWAP3 SWAP6 JUMP JUMPDEST PUSH32 0x496E76616C69642062656E656669636961727900000000000000000000000000 PUSH1 0x0 DUP3 ADD MSTORE POP JUMP JUMPDEST PUSH1 0x0 PUSH2 0x2E00 PUSH1 0x13 DUP4 PUSH2 0x2BE4 JUMP JUMPDEST SWAP2 POP PUSH2 0x2E0B DUP3 PUSH2 0x2DCA JUMP JUMPDEST PUSH1 0x20 DUP3 ADD SWAP1 POP SWAP2 SWAP1 POP JUMP JUMPDEST PUSH1 0x0 PUSH1 0x20 DUP3 ADD SWAP1 POP DUP2 DUP2 SUB PUSH1 0x0 DUP4 ADD MSTORE PUSH2 0x2E2F DUP2 PUSH2 0x2DF3 JUMP JUMPDEST SWAP1 POP SWAP2 SWAP1 POP JUMP JUMPDEST PUSH32 0x4E487B7100000000000000000000000000000000000000000000000000000000 PUSH1 0x0 MSTORE PUSH1 0x11 PUSH1 0x4 MSTORE PUSH1 0x24 PUSH1 0x0 REVERT JUMPDEST PUSH1 0x0 PUSH2 0x2E70 DUP3 PUSH2 0x2696 JUMP JUMPDEST SWAP2 POP PUSH32 0xFFFFFFFFFFFFFFFFFFFFFFFFFFFFFFFFFFFFFFFFFFFFFFFFFFFFFFFFFFFFFFFF DUP3 SUB PUSH2 0x2EA2 JUMPI PUSH2 0x2EA1 PUSH2 0x2E36 JUMP JUMPDEST JUMPDEST PUSH1 0x1 DUP3 ADD SWAP1 POP SWAP2 SWAP1 POP JUMP JUMPDEST PUSH32 0x4E487B7100000000000000000000000000000000000000000000000000000000 PUSH1 0x0 MSTORE PUSH1 0x41 PUSH1 0x4 MSTORE PUSH1 0x24 PUSH1 0x0 REVERT JUMPDEST PUSH32 0x4E487B7100000000000000000000000000000000000000000000000000000000 PUSH1 0x0 MSTORE PUSH1 0x22 PUSH1 0x4 MSTORE PUSH1 0x24 PUSH1 0x0 REVERT JUMPDEST PUSH1 0x0 PUSH1 0x2 DUP3 DIV SWAP1 POP PUSH1 0x1 DUP3 AND DUP1 PUSH2 0x2F23 JUMPI PUSH1 0x7F DUP3 AND SWAP2 POP JUMPDEST PUSH1 0x20 DUP3 LT DUP2 SUB PUSH2 0x2F36 JUMPI PUSH2 0x2F35 PUSH2 0x2EDC JUMP JUMPDEST JUMPDEST POP SWAP2 SWAP1 POP JUMP JUMPDEST PUSH1 0x0 DUP2 SWAP1 POP DUP2 PUSH1 0x0 MSTORE PUSH1 0x20 PUSH1 0x0 KECCAK256 SWAP1 POP SWAP2 SWAP1 POP JUMP JUMPDEST PUSH1 0x0 PUSH1 0x20 PUSH1 0x1F DUP4 ADD DIV SWAP1 POP SWAP2 SWAP1 POP JUMP JUMPDEST PUSH1 0x0 DUP3 DUP3 SHL SWAP1 POP SWAP3 SWAP2 POP POP JUMP JUMPDEST PUSH1 0x0 PUSH1 0x8 DUP4 MUL PUSH2 0x2F9E PUSH32 0xFFFFFFFFFFFFFFFFFFFFFFFFFFFFFFFFFFFFFFFFFFFFFFFFFFFFFFFFFFFFFFFF DUP3 PUSH2 0x2F61 JUMP JUMPDEST PUSH2 0x2FA8 DUP7 DUP4 PUSH2 0x2F61 JUMP JUMPDEST SWAP6 POP DUP1 NOT DUP5 AND SWAP4 POP DUP1 DUP7 AND DUP5 OR SWAP3 POP POP POP SWAP4 SWAP3 POP POP POP JUMP JUMPDEST PUSH1 0x0 DUP2 SWAP1 POP SWAP2 SWAP1 POP JUMP JUMPDEST PUSH1 0x0 PUSH2 0x2FE5 PUSH2 0x2FE0 PUSH2 0x2FDB DUP5 PUSH2 0x2696 JUMP JUMPDEST PUSH2 0x2FC0 JUMP JUMPDEST PUSH2 0x2696 JUMP JUMPDEST SWAP1 POP SWAP2 SWAP1 POP JUMP JUMPDEST PUSH1 0x0 DUP2 SWAP1 POP SWAP2 SWAP1 POP JUMP JUMPDEST PUSH2 0x2FFF DUP4 PUSH2 0x2FCA JUMP JUMPDEST PUSH2 0x3013 PUSH2 0x300B DUP3 PUSH2 0x2FEC JUMP JUMPDEST DUP5 DUP5 SLOAD PUSH2 0x2F6E JUMP JUMPDEST DUP3 SSTORE POP POP POP POP JUMP JUMPDEST PUSH1 0x0 SWAP1 JUMP JUMPDEST PUSH2 0x3028 PUSH2 0x301B JUMP JUMPDEST PUSH2 0x3033 DUP2 DUP5 DUP5 PUSH2 0x2FF6 JUMP JUMPDEST POP POP POP JUMP JUMPDEST JUMPDEST DUP2 DUP2 LT ISZERO PUSH2 0x3057 JUMPI PUSH2 0x304C PUSH1 0x0 DUP3 PUSH2 0x3020 JUMP JUMPDEST PUSH1 0x1 DUP2 ADD SWAP1 POP PUSH2 0x3039 JUMP JUMPDEST POP POP JUMP JUMPDEST PUSH1 0x1F DUP3 GT ISZERO PUSH2 0x309C JUMPI PUSH2 0x306D DUP2 PUSH2 0x2F3C JUMP JUMPDEST PUSH2 0x3076 DUP5 PUSH2 0x2F51 JUMP JUMPDEST DUP2 ADD PUSH1 0x20 DUP6 LT ISZERO PUSH2 0x3085 JUMPI DUP2 SWAP1 POP JUMPDEST PUSH2 0x3099 PUSH2 0x3091 DUP6 PUSH2 0x2F51 JUMP JUMPDEST DUP4 ADD DUP3 PUSH2 0x3038 JUMP JUMPDEST POP POP JUMPDEST POP POP POP JUMP JUMPDEST PUSH1 0x0 DUP3 DUP3 SHR SWAP1 POP SWAP3 SWAP2 POP POP JUMP JUMPDEST PUSH1 0x0 PUSH2 0x30BF PUSH1 0x0 NOT DUP5 PUSH1 0x8 MUL PUSH2 0x30A1 JUMP JUMPDEST NOT DUP1 DUP4 AND SWAP2 POP POP SWAP3 SWAP2 POP POP JUMP JUMPDEST PUSH1 0x0 PUSH2 0x30D8 DUP4 DUP4 PUSH2 0x30AE JUMP JUMPDEST SWAP2 POP DUP3 PUSH1 0x2 MUL DUP3 OR SWAP1 POP SWAP3 SWAP2 POP POP JUMP JUMPDEST PUSH2 0x30F1 DUP3 PUSH2 0x278E JUMP JUMPDEST PUSH8 0xFFFFFFFFFFFFFFFF DUP2 GT ISZERO PUSH2 0x310A JUMPI PUSH2 0x3109 PUSH2 0x2EAD JUMP JUMPDEST JUMPDEST PUSH2 0x3114 DUP3 SLOAD PUSH2 0x2F0B JUMP JUMPDEST PUSH2 0x311F DUP3 DUP3 DUP6 PUSH2 0x305B JUMP JUMPDEST PUSH1 0x0 PUSH1 0x20 SWAP1 POP PUSH1 0x1F DUP4 GT PUSH1 0x1 DUP2 EQ PUSH2 0x3152 JUMPI PUSH1 0x0 DUP5 ISZERO PUSH2 0x3140 JUMPI DUP3 DUP8 ADD MLOAD SWAP1 POP JUMPDEST PUSH2 0x314A DUP6 DUP3 PUSH2 0x30CC JUMP JUMPDEST DUP7 SSTORE POP PUSH2 0x31B2 JUMP JUMPDEST PUSH1 0x1F NOT DUP5 AND PUSH2 0x3160 DUP7 PUSH2 0x2F3C JUMP JUMPDEST PUSH1 0x0 JUMPDEST DUP3 DUP2 LT ISZERO PUSH2 0x3188 JUMPI DUP5 DUP10 ADD MLOAD DUP3 SSTORE PUSH1 0x1 DUP3 ADD SWAP2 POP PUSH1 0x20 DUP6 ADD SWAP5 POP PUSH1 0x20 DUP2 ADD SWAP1 POP PUSH2 0x3163 JUMP JUMPDEST DUP7 DUP4 LT ISZERO PUSH2 0x31A5 JUMPI DUP5 DUP10 ADD MLOAD PUSH2 0x31A1 PUSH1 0x1F DUP10 AND DUP3 PUSH2 0x30AE JUMP JUMPDEST DUP4 SSTORE POP JUMPDEST PUSH1 0x1 PUSH1 0x2 DUP9 MUL ADD DUP9 SSTORE POP POP POP JUMPDEST POP POP POP POP POP POP JUMP JUMPDEST DUP3 DUP2 DUP4 CALLDATACOPY PUSH1 0x0 DUP4 DUP4 ADD MSTORE POP POP POP JUMP JUMPDEST PUSH1 0x0 PUSH2 0x31D5 DUP4 DUP6 PUSH2 0x2BE4 JUMP JUMPDEST SWAP4 POP PUSH2 0x31E2 DUP4 DUP6 DUP5 PUSH2 0x31BA JUMP JUMPDEST PUSH2 0x31EB DUP4 PUSH2 0x27D4 JUMP JUMPDEST DUP5 ADD SWAP1 POP SWAP4 SWAP3 POP POP POP JUMP JUMPDEST PUSH1 0x0 PUSH1 0x20 DUP3 ADD SWAP1 POP DUP2 DUP2 SUB PUSH1 0x0 DUP4 ADD MSTORE PUSH2 0x3211 DUP2 DUP5 DUP7 PUSH2 0x31C9 JUMP JUMPDEST SWAP1 POP SWAP4 SWAP3 POP POP POP JUMP JUMPDEST PUSH1 0x0 PUSH1 0x60 DUP3 ADD SWAP1 POP PUSH2 0x322F PUSH1 0x0 DUP4 ADD DUP8 PUSH2 0x2BD5 JUMP JUMPDEST DUP2 DUP2 SUB PUSH1 0x20 DUP4 ADD MSTORE PUSH2 0x3242 DUP2 DUP6 DUP8 PUSH2 0x31C9 JUMP JUMPDEST SWAP1 POP PUSH2 0x3251 PUSH1 0x40 DUP4 ADD DUP5 PUSH2 0x2BC6 JUMP JUMPDEST SWAP6 SWAP5 POP POP POP POP POP JUMP JUMPDEST PUSH32 0x43616E6E6F742063616E63656C206120636C61696D6564206974656D00000000 PUSH1 0x0 DUP3 ADD MSTORE POP JUMP JUMPDEST PUSH1 0x0 PUSH2 0x3290 PUSH1 0x1C DUP4 PUSH2 0x2BE4 JUMP JUMPDEST SWAP2 POP PUSH2 0x329B DUP3 PUSH2 0x325A JUMP JUMPDEST PUSH1 0x20 DUP3 ADD SWAP1 POP SWAP2 SWAP1 POP JUMP JUMPDEST PUSH1 0x0 PUSH1 0x20 DUP3 ADD SWAP1 POP DUP2 DUP2 SUB PUSH1 0x0 DUP4 ADD MSTORE PUSH2 0x32BF DUP2 PUSH2 0x3283 JUMP JUMPDEST SWAP1 POP SWAP2 SWAP1 POP JUMP JUMPDEST PUSH32 0x48616E646F766572206E6F742076657269666965642062792041646D696E0000 PUSH1 0x0 DUP3 ADD MSTORE POP JUMP JUMPDEST PUSH1 0x0 PUSH2 0x32FC PUSH1 0x1E DUP4 PUSH2 0x2BE4 JUMP JUMPDEST SWAP2 POP PUSH2 0x3307 DUP3 PUSH2 0x32C6 JUMP JUMPDEST PUSH1 0x20 DUP3 ADD SWAP1 POP SWAP2 SWAP1 POP JUMP JUMPDEST PUSH1 0x0 PUSH1 0x20 DUP3 ADD SWAP1 POP DUP2 DUP2 SUB PUSH1 0x0 DUP4 ADD MSTORE PUSH2 0x332B DUP2 PUSH2 0x32EF JUMP JUMPDEST SWAP1 POP SWAP2 SWAP1 POP JUMP JUMPDEST PUSH1 0x0 DUP3 SWAP1 POP SWAP3 SWAP2 POP POP JUMP JUMPDEST PUSH2 0x3347 DUP4 DUP4 PUSH2 0x3332 JUMP JUMPDEST PUSH8 0xFFFFFFFFFFFFFFFF DUP2 GT ISZERO PUSH2 0x3360 JUMPI PUSH2 0x335F PUSH2 0x2EAD JUMP JUMPDEST JUMPDEST PUSH2 0x336A DUP3 SLOAD PUSH2 0x2F0B JUMP JUMPDEST PUSH2 0x3375 DUP3 DUP3 DUP6 PUSH2 0x305B JUMP JUMPDEST PUSH1 0x0 PUSH1 0x1F DUP4 GT PUSH1 0x1 DUP2 EQ PUSH2 0x33A4 JUMPI PUSH1 0x0 DUP5 ISZERO PUSH2 0x3392 JUMPI DUP3 DUP8 ADD CALLDATALOAD SWAP1 POP JUMPDEST PUSH2 0x339C DUP6 DUP3 PUSH2 0x30CC JUMP JUMPDEST DUP7 SSTORE POP PUSH2 0x3404 JUMP JUMPDEST PUSH1 0x1F NOT DUP5 AND PUSH2 0x33B2 DUP7 PUSH2 0x2F3C JUMP JUMPDEST PUSH1 0x0 JUMPDEST DUP3 DUP2 LT ISZERO PUSH2 0x33DA JUMPI DUP5 DUP10 ADD CALLDATALOAD DUP3 SSTORE PUSH1 0x1 DUP3 ADD SWAP2 POP PUSH1 0x20 DUP6 ADD SWAP5 POP PUSH1 0x20 DUP2 ADD SWAP1 POP PUSH2 0x33B5 JUMP JUMPDEST DUP7 DUP4 LT ISZERO PUSH2 0x33F7 JUMPI DUP5 DUP10 ADD CALLDATALOAD PUSH2 0x33F3 PUSH1 0x1F DUP10 AND DUP3 PUSH2 0x30AE JUMP JUMPDEST DUP4 SSTORE POP JUMPDEST PUSH1 0x1 PUSH1 0x2 DUP9 MUL ADD DUP9 SSTORE POP POP POP JUMPDEST POP POP POP POP POP POP POP JUMP JUMPDEST PUSH32 0x4974656D206E6F7420696E207472616E73697400000000000000000000000000 PUSH1 0x0 DUP3 ADD MSTORE POP JUMP JUMPDEST PUSH1 0x0 PUSH2 0x3443 PUSH1 0x13 DUP4 PUSH2 0x2BE4 JUMP JUMPDEST SWAP2 POP PUSH2 0x344E DUP3 PUSH2 0x340D JUMP JUMPDEST PUSH1 0x20 DUP3 ADD SWAP1 POP SWAP2 SWAP1 POP JUMP JUMPDEST PUSH1 0x0 PUSH1 0x20 DUP3 ADD SWAP1 POP DUP2 DUP2 SUB PUSH1 0x0 DUP4 ADD MSTORE PUSH2 0x3472 DUP2 PUSH2 0x3436 JUMP JUMPDEST SWAP1 POP SWAP2 SWAP1 POP JUMP JUMPDEST PUSH32 0x44656C6976657279206E6F742076657269666965642062792041646D696E2079 PUSH1 0x0 DUP3 ADD MSTORE PUSH32 0x6574000000000000000000000000000000000000000000000000000000000000 PUSH1 0x20 DUP3 ADD MSTORE POP JUMP JUMPDEST PUSH1 0x0 PUSH2 0x34D5 PUSH1 0x22 DUP4 PUSH2 0x2BE4 JUMP JUMPDEST SWAP2 POP PUSH2 0x34E0 DUP3 PUSH2 0x3479 JUMP JUMPDEST PUSH1 0x40 DUP3 ADD SWAP1 POP SWAP2 SWAP1 POP JUMP JUMPDEST PUSH1 0x0 PUSH1 0x20 DUP3 ADD SWAP1 POP DUP2 DUP2 SUB PUSH1 0x0 DUP4 ADD MSTORE PUSH2 0x3504 DUP2 PUSH2 0x34C8 JUMP JUMPDEST SWAP1 POP SWAP2 SWAP1 POP JUMP JUMPDEST PUSH32 0x416C726561647920636C61696D65640000000000000000000000000000000000 PUSH1 0x0 DUP3 ADD MSTORE POP JUMP JUMPDEST PUSH1 0x0 PUSH2 0x3541 PUSH1 0xF DUP4 PUSH2 0x2BE4 JUMP JUMPDEST SWAP2 POP PUSH2 0x354C DUP3 PUSH2 0x350B JUMP JUMPDEST PUSH1 0x20 DUP3 ADD SWAP1 POP SWAP2 SWAP1 POP JUMP JUMPDEST PUSH1 0x0 PUSH1 0x20 DUP3 ADD SWAP1 POP DUP2 DUP2 SUB PUSH1 0x0 DUP4 ADD MSTORE PUSH2 0x3570 DUP2 PUSH2 0x3534 JUMP JUMPDEST SWAP1 POP SWAP2 SWAP1 POP JUMP JUMPDEST PUSH32 0x556E617574686F72697A65640000000000000000000000000000000000000000 PUSH1 0x0 DUP3 ADD MSTORE POP JUMP JUMPDEST PUSH1 0x0 PUSH2 0x35AD PUSH1 0xC DUP4 PUSH2 0x2BE4 JUMP JUMPDEST SWAP2 POP PUSH2 0x35B8 DUP3 PUSH2 0x3577 JUMP JUMPDEST PUSH1 0x20 DUP3 ADD SWAP1 POP SWAP2 SWAP1 POP JUMP JUMPDEST PUSH1 0x0 PUSH1 0x20 DUP3 ADD SWAP1 POP DUP2 DUP2 SUB PUSH1 0x0 DUP4 ADD MSTORE PUSH2 0x35DC DUP2 PUSH2 0x35A0 JUMP JUMPDEST SWAP1 POP SWAP2 SWAP1 POP JUMP JUMPDEST PUSH1 0x0 PUSH1 0x20 DUP3 ADD SWAP1 POP PUSH2 0x35F8 PUSH1 0x0 DUP4 ADD DUP5 PUSH2 0x2BC6 JUMP JUMPDEST SWAP3 SWAP2 POP POP JUMP JUMPDEST PUSH32 0x697066733A2F2F436C61696D6564000000000000000000000000000000000000 PUSH1 0x0 DUP3 ADD MSTORE POP JUMP JUMPDEST PUSH1 0x0 PUSH2 0x3634 PUSH1 0xE DUP4 PUSH2 0x2BE4 JUMP JUMPDEST SWAP2 POP PUSH2 0x363F DUP3 PUSH2 0x35FE JUMP JUMPDEST PUSH1 0x20 DUP3 ADD SWAP1 POP SWAP2 SWAP1 POP JUMP JUMPDEST PUSH1 0x0 PUSH1 0x60 DUP3 ADD SWAP1 POP PUSH2 0x365F PUSH1 0x0 DUP4 ADD DUP6 PUSH2 0x2BD5 JUMP JUMPDEST DUP2 DUP2 SUB PUSH1 0x20 DUP4 ADD MSTORE PUSH2 0x3670 DUP2 PUSH2 0x3627 JUMP JUMPDEST SWAP1 POP PUSH2 0x367F PUSH1 0x40 DUP4 ADD DUP5 PUSH2 0x2BC6 JUMP JUMPDEST SWAP4 SWAP3 POP POP POP JUMP JUMPDEST PUSH32 0x5374616765206D69736D6174636820666F7220766572696669636174696F6E00 PUSH1 0x0 DUP3 ADD MSTORE POP JUMP JUMPDEST PUSH1 0x0 PUSH2 0x36BC PUSH1 0x1F DUP4 PUSH2 0x2BE4 JUMP JUMPDEST SWAP2 POP PUSH2 0x36C7 DUP3 PUSH2 0x3686 JUMP JUMPDEST PUSH1 0x20 DUP3 ADD SWAP1 POP SWAP2 SWAP1 POP JUMP JUMPDEST PUSH1 0x0 PUSH1 0x20 DUP3 ADD SWAP1 POP DUP2 DUP2 SUB PUSH1 0x0 DUP4 ADD MSTORE PUSH2 0x36EB DUP2 PUSH2 0x36AF JUMP JUMPDEST SWAP1 POP SWAP2 SWAP1 POP JUMP JUMPDEST PUSH32 0x546869732073746167652063616E6E6F74206265207665726966696564206279 PUSH1 0x0 DUP3 ADD MSTORE PUSH32 0x2041646D696E206469726563746C790000000000000000000000000000000000 PUSH1 0x20 DUP3 ADD MSTORE POP JUMP JUMPDEST PUSH1 0x0 PUSH2 0x374E PUSH1 0x2F DUP4 PUSH2 0x2BE4 JUMP JUMPDEST SWAP2 POP PUSH2 0x3759 DUP3 PUSH2 0x36F2 JUMP JUMPDEST PUSH1 0x40 DUP3 ADD SWAP1 POP SWAP2 SWAP1 POP JUMP JUMPDEST PUSH1 0x0 PUSH1 0x20 DUP3 ADD SWAP1 POP DUP2 DUP2 SUB PUSH1 0x0 DUP4 ADD MSTORE PUSH2 0x377D DUP2 PUSH2 0x3741 JUMP JUMPDEST SWAP1 POP SWAP2 SWAP1 POP JUMP JUMPDEST PUSH1 0x0 PUSH1 0x20 DUP3 ADD SWAP1 POP PUSH2 0x3799 PUSH1 0x0 DUP4 ADD DUP5 PUSH2 0x2BD5 JUMP JUMPDEST SWAP3 SWAP2 POP POP JUMP JUMPDEST PUSH32 0x4974656D20646F6573206E6F7420657869737400000000000000000000000000 PUSH1 0x0 DUP3 ADD MSTORE POP JUMP JUMPDEST PUSH1 0x0 PUSH2 0x37D5 PUSH1 0x13 DUP4 PUSH2 0x2BE4 JUMP JUMPDEST SWAP2 POP PUSH2 0x37E0 DUP3 PUSH2 0x379F JUMP JUMPDEST PUSH1 0x20 DUP3 ADD SWAP1 POP SWAP2 SWAP1 POP JUMP JUMPDEST PUSH1 0x0 PUSH1 0x20 DUP3 ADD SWAP1 POP DUP2 DUP2 SUB PUSH1 0x0 DUP4 ADD MSTORE PUSH2 0x3804 DUP2 PUSH2 0x37C8 JUMP JUMPDEST SWAP1 POP SWAP2 SWAP1 POP JUMP JUMPDEST PUSH32 0x4172726179206C656E677468206D69736D617463680000000000000000000000 PUSH1 0x0 DUP3 ADD MSTORE POP JUMP JUMPDEST PUSH1 0x0 PUSH2 0x3841 PUSH1 0x15 DUP4 PUSH2 0x2BE4 JUMP JUMPDEST SWAP2 POP PUSH2 0x384C DUP3 PUSH2 0x380B JUMP JUMPDEST PUSH1 0x20 DUP3 ADD SWAP1 POP SWAP2 SWAP1 POP JUMP JUMPDEST PUSH1 0x0 PUSH1 0x20 DUP3 ADD SWAP1 POP DUP2 DUP2 SUB PUSH1 0x0 DUP4 ADD MSTORE PUSH2 0x3870 DUP2 PUSH2 0x3834 JUMP JUMPDEST SWAP1 POP SWAP2 SWAP1 POP JUMP JUMPDEST PUSH32 0x4E487B7100000000000000000000000000000000000000000000000000000000 PUSH1 0x0 MSTORE PUSH1 0x32 PUSH1 0x4 MSTORE PUSH1 0x24 PUSH1 0x0 REVERT JUMPDEST PUSH1 0x0 DUP1 REVERT JUMPDEST PUSH1 0x0 DUP1 REVERT JUMPDEST PUSH1 0x0 DUP1 REVERT JUMPDEST PUSH1 0x0 DUP1 DUP4 CALLDATALOAD PUSH1 0x1 PUSH1 0x20 SUB DUP5 CALLDATASIZE SUB SUB DUP2 SLT PUSH2 0x38D2 JUMPI PUSH2 0x38D1 PUSH2 0x38A6 JUMP JUMPDEST JUMPDEST DUP1 DUP5 ADD SWAP3 POP DUP3 CALLDATALOAD SWAP2 POP PUSH8 0xFFFFFFFFFFFFFFFF DUP3 GT ISZERO PUSH2 0x38F4 JUMPI PUSH2 0x38F3 PUSH2 0x38AB JUMP JUMPDEST JUMPDEST PUSH1 0x20 DUP4 ADD SWAP3 POP PUSH1 0x20 DUP3 MUL CALLDATASIZE SUB DUP4 SGT ISZERO PUSH2 0x3910 JUMPI PUSH2 0x390F PUSH2 0x38B0 JUMP JUMPDEST JUMPDEST POP SWAP3 POP SWAP3 SWAP1 POP JUMP JUMPDEST PUSH1 0x0 PUSH1 0x40 DUP3 ADD SWAP1 POP PUSH2 0x392D PUSH1 0x0 DUP4 ADD DUP6 PUSH2 0x2BC6 JUMP JUMPDEST PUSH2 0x393A PUSH1 0x20 DUP4 ADD DUP5 PUSH2 0x2509 JUMP JUMPDEST SWAP4 SWAP3 POP POP POP JUMP INVALID LOG2 PUSH5 0x6970667358 0x22 SLT KECCAK256 PUSH16 0x98A8CD52CED176F48B6E29BA20FE7D1F RETURNDATASIZE GT NOT SWAP1 AND 0xAF 0xE5 PUSH28 0x771A0DAB75A59764736F6C634300081C003300000000000000000000 "},"methodIdentifiers":{"ADMIN_ROLE()":"75b238fc","DEFAULT_ADMIN_ROLE()":"a217fddf","DISTRIBUTOR_ROLE()":"f0bd87cc","PROCESSOR_ROLE()":"8222bdb2","TRANSPORTER_ROLE()":"4eabbe77","adminVerify(uint256,uint8)":"c0a78dc8","batchVerifyDocuments(uint256,uint8,bytes32[],bytes32[][])":"f3ece9b7","beneficiaryClaim(uint256)":"9145325c","cancelItem(uint256)":"51563f8e","createItem(address,string)":"26fb76c2","distributorSubmit(uint256,string)":"7570f460","getDocuments(uint256)":"6eb3b4e9","getItem(uint256)":"3129e773","getItemMerkleRoot(uint256)":"a211b176","getMerkleRoot(uint256,uint8)":"c1b80a08","getRoleAdmin(bytes32)":"248a9ca3","grantRole(bytes32,address)":"2f2ff15d","hasRole(bytes32,address)":"91d14854","itemCount()":"6bfb0d01","itemMerkleRoots(uint256)":"8b527004","items(uint256)":"bfb231d2","renounceRole(bytes32,address)":"36568abe","revokeRole(bytes32,address)":"d547741f","setMerkleRoot(uint256,uint8,bytes32)":"e9472e31","stageMerkleRoots(uint256,uint8)":"60d99631","supportsInterface(bytes4)":"01ffc9a7","transporterSubmit(uint256,string)":"66e70a43","verifyDocumentInclusion(uint256,uint8,bytes32,bytes32[])":"4bb35279"}}}}}