{
  "_format": "hh-sol-artifact-1",
  "contractName": "TransparentSubsidySystem",
  "sourceName": "contracts/TransparentSubsidySystem.sol",
  "abi": [
    {
      "inputs": [],
      "stateMutability": "nonpayable",
      "type": "constructor"
    },
    {
      "inputs": [],
      "name": "AccessControlBadConfirmation",
      "type": "error"
    },
    {
      "inputs": [
        {
          "internalType": "address",
          "name": "account",
          "type": "address"
        },
        {
          "internalType": "bytes32",
          "name": "neededRole",
          "type": "bytes32"
        }
      ],
      "name": "AccessControlUnauthorizedAccount",
      "type": "error"
    },
    {
      "anonymous": false,
      "inputs": [
        {
          "indexed": true,
          "internalType": "uint256",
          "name": "itemId",
          "type": "uint256"
        },
        {
          "indexed": true,
          "internalType": "enum TransparentSubsidySystem.Stage",
          "name": "stage",
          "type": "uint8"
        },
        {
          "indexed": false,
          "internalType": "bytes32",
          "name": "merkleRoot",
          "type": "bytes32"
        }
      ],
      "name": "DocumentBatchVerified",
      "type": "event"
    },
    {
      "anonymous": false,
      "inputs": [
        {
          "indexed": true,
          "internalType": "uint256",
          "name": "itemId",
          "type": "uint256"
        },
        {
          "indexed": false,
          "internalType": "enum TransparentSubsidySystem.Stage",
          "name": "stage",
          "type": "uint8"
        },
        {
          "indexed": false,
          "internalType": "string",
          "name": "ipfsHash",
          "type": "string"
        },
        {
          "indexed": false,
          "internalType": "address",
          "name": "uploader",
          "type": "address"
        }
      ],
      "name": "DocumentUploaded",
      "type": "event"
    },
    {
      "anonymous": false,
      "inputs": [
        {
          "indexed": true,
          "internalType": "uint256",
          "name": "itemId",
          "type": "uint256"
        }
      ],
      "name": "ItemCancelled",
      "type": "event"
    },
    {
      "anonymous": false,
      "inputs": [
        {
          "indexed": true,
          "internalType": "uint256",
          "name": "itemId",
          "type": "uint256"
        },
        {
          "indexed": true,
          "internalType": "address",
          "name": "beneficiary",
          "type": "address"
        },
        {
          "indexed": false,
          "internalType": "string",
          "name": "ipfsHash",
          "type": "string"
        }
      ],
      "name": "ItemCreated",
      "type": "event"
    },
    {
      "anonymous": false,
      "inputs": [
        {
          "indexed": true,
          "internalType": "uint256",
          "name": "itemId",
          "type": "uint256"
        },
        {
          "indexed": false,
          "internalType": "enum TransparentSubsidySystem.Stage",
          "name": "newStage",
          "type": "uint8"
        }
      ],
      "name": "ItemVerified",
      "type": "event"
    },
    {
      "anonymous": false,
      "inputs": [
        {
          "indexed": true,
          "internalType": "uint256",
          "name": "itemId",
          "type": "uint256"
        },
        {
          "indexed": true,
          "internalType": "enum TransparentSubsidySystem.Stage",
          "name": "stage",
          "type": "uint8"
        },
        {
          "indexed": false,
          "internalType": "bytes32",
          "name": "merkleRoot",
          "type": "bytes32"
        }
      ],
      "name": "MerkleRootSet",
      "type": "event"
    },
    {
      "anonymous": false,
      "inputs": [
        {
          "indexed": true,
          "internalType": "bytes32",
          "name": "role",
          "type": "bytes32"
        },
        {
          "indexed": true,
          "internalType": "bytes32",
          "name": "previousAdminRole",
          "type": "bytes32"
        },
        {
          "indexed": true,
          "internalType": "bytes32",
          "name": "newAdminRole",
          "type": "bytes32"
        }
      ],
      "name": "RoleAdminChanged",
      "type": "event"
    },
    {
      "anonymous": false,
      "inputs": [
        {
          "indexed": true,
          "internalType": "bytes32",
          "name": "role",
          "type": "bytes32"
        },
        {
          "indexed": true,
          "internalType": "address",
          "name": "account",
          "type": "address"
        },
        {
          "indexed": true,
          "internalType": "address",
          "name": "sender",
          "type": "address"
        }
      ],
      "name": "RoleGranted",
      "type": "event"
    },
    {
      "anonymous": false,
      "inputs": [
        {
          "indexed": true,
          "internalType": "bytes32",
          "name": "role",
          "type": "bytes32"
        },
        {
          "indexed": true,
          "internalType": "address",
          "name": "account",
          "type": "address"
        },
        {
          "indexed": true,
          "internalType": "address",
          "name": "sender",
          "type": "address"
        }
      ],
      "name": "RoleRevoked",
      "type": "event"
    },
    {
      "anonymous": false,
      "inputs": [
        {
          "indexed": true,
          "internalType": "uint256",
          "name": "itemId",
          "type": "uint256"
        },
        {
          "indexed": true,
          "internalType": "address",
          "name": "beneficiary",
          "type": "address"
        },
        {
          "indexed": false,
          "internalType": "address",
          "name": "claimedBy",
          "type": "address"
        }
      ],
      "name": "SubsidyClaimed",
      "type": "event"
    },
    {
      "anonymous": false,
      "inputs": [
        {
          "indexed": true,
          "internalType": "bytes32",
          "name": "itemId",
          "type": "bytes32"
        },
        {
          "indexed": true,
          "internalType": "address",
          "name": "actor",
          "type": "address"
        },
        {
          "indexed": false,
          "internalType": "string",
          "name": "action",
          "type": "string"
        }
      ],
      "name": "TransactionLogged",
      "type": "event"
    },
    {
      "inputs": [],
      "name": "ADMIN_ROLE",
      "outputs": [
        {
          "internalType": "bytes32",
          "name": "",
          "type": "bytes32"
        }
      ],
      "stateMutability": "view",
      "type": "function"
    },
    {
      "inputs": [],
      "name": "DEFAULT_ADMIN_ROLE",
      "outputs": [
        {
          "internalType": "bytes32",
          "name": "",
          "type": "bytes32"
        }
      ],
      "stateMutability": "view",
      "type": "function"
    },
    {
      "inputs": [],
      "name": "DISTRIBUTOR_ROLE",
      "outputs": [
        {
          "internalType": "bytes32",
          "name": "",
          "type": "bytes32"
        }
      ],
      "stateMutability": "view",
      "type": "function"
    },
    {
      "inputs": [],
      "name": "PROCESSOR_ROLE",
      "outputs": [
        {
          "internalType": "bytes32",
          "name": "",
          "type": "bytes32"
        }
      ],
      "stateMutability": "view",
      "type": "function"
    },
    {
      "inputs": [],
      "name": "TRANSPORTER_ROLE",
      "outputs": [
        {
          "internalType": "bytes32",
          "name": "",
          "type": "bytes32"
        }
      ],
      "stateMutability": "view",
      "type": "function"
    },
    {
      "inputs": [
        {
          "internalType": "uint256",
          "name": "itemId",
          "type": "uint256"
        },
        {
          "internalType": "enum TransparentSubsidySystem.Stage",
          "name": "expectedCurrentStage",
          "type": "uint8"
        }
      ],
      "name": "adminVerify",
      "outputs": [],
      "stateMutability": "nonpayable",
      "type": "function"
    },
    {
      "inputs": [
        {
          "internalType": "uint256",
          "name": "itemId",
          "type": "uint256"
        },
        {
          "internalType": "enum TransparentSubsidySystem.Stage",
          "name": "stage",
          "type": "uint8"
        },
        {
          "internalType": "bytes32[]",
          "name": "documentHashes",
          "type": "bytes32[]"
        },
        {
          "internalType": "bytes32[][]",
          "name": "proofs",
          "type": "bytes32[][]"
        }
      ],
      "name": "batchVerifyDocuments",
      "outputs": [
        {
          "internalType": "bool",
          "name": "allValid",
          "type": "bool"
        }
      ],
      "stateMutability": "view",
      "type": "function"
    },
    {
      "inputs": [
        {
          "internalType": "uint256",
          "name": "itemId",
          "type": "uint256"
        }
      ],
      "name": "beneficiaryClaim",
      "outputs": [],
      "stateMutability": "nonpayable",
      "type": "function"
    },
    {
      "inputs": [
        {
          "internalType": "uint256",
          "name": "itemId",
          "type": "uint256"
        }
      ],
      "name": "cancelItem",
      "outputs": [],
      "stateMutability": "nonpayable",
      "type": "function"
    },
    {
      "inputs": [
        {
          "internalType": "address",
          "name": "beneficiary",
          "type": "address"
        },
        {
          "internalType": "string",
          "name": "ipfsHash",
          "type": "string"
        }
      ],
      "name": "createItem",
      "outputs": [],
      "stateMutability": "nonpayable",
      "type": "function"
    },
    {
      "inputs": [
        {
          "internalType": "uint256",
          "name": "itemId",
          "type": "uint256"
        },
        {
          "internalType": "string",
          "name": "ipfsHash",
          "type": "string"
        }
      ],
      "name": "distributorSubmit",
      "outputs": [],
      "stateMutability": "nonpayable",
      "type": "function"
    },
    {
      "inputs": [
        {
          "internalType": "uint256",
          "name": "itemId",
          "type": "uint256"
        }
      ],
      "name": "getDocuments",
      "outputs": [
        {
          "components": [
            {
              "internalType": "enum TransparentSubsidySystem.Stage",
              "name": "stage",
              "type": "uint8"
            },
            {
              "internalType": "string",
              "name": "ipfsHash",
              "type": "string"
            },
            {
              "internalType": "address",
              "name": "uploader",
              "type": "address"
            },
            {
              "internalType": "uint256",
              "name": "timestamp",
              "type": "uint256"
            }
          ],
          "internalType": "struct TransparentSubsidySystem.Document[]",
          "name": "",
          "type": "tuple[]"
        }
      ],
      "stateMutability": "view",
      "type": "function"
    },
    {
      "inputs": [
        {
          "internalType": "uint256",
          "name": "itemId",
          "type": "uint256"
        }
      ],
      "name": "getItem",
      "outputs": [
        {
          "components": [
            {
              "internalType": "address",
              "name": "beneficiary",
              "type": "address"
            },
            {
              "internalType": "enum TransparentSubsidySystem.Stage",
              "name": "stage",
              "type": "uint8"
            },
            {
              "internalType": "bool",
              "name": "claimed",
              "type": "bool"
            },
            {
              "internalType": "string",
              "name": "currentIpfsHash",
              "type": "string"
            },
            {
              "internalType": "bytes32",
              "name": "itemId",
              "type": "bytes32"
            }
          ],
          "internalType": "struct TransparentSubsidySystem.Item",
          "name": "",
          "type": "tuple"
        }
      ],
      "stateMutability": "view",
      "type": "function"
    },
    {
      "inputs": [
        {
          "internalType": "bytes32",
          "name": "itemId",
          "type": "bytes32"
        }
      ],
      "name": "getItemByBytes32",
      "outputs": [
        {
          "components": [
            {
              "internalType": "address",
              "name": "beneficiary",
              "type": "address"
            },
            {
              "internalType": "enum TransparentSubsidySystem.Stage",
              "name": "stage",
              "type": "uint8"
            },
            {
              "internalType": "bool",
              "name": "claimed",
              "type": "bool"
            },
            {
              "internalType": "string",
              "name": "currentIpfsHash",
              "type": "string"
            },
            {
              "internalType": "bytes32",
              "name": "itemId",
              "type": "bytes32"
            }
          ],
          "internalType": "struct TransparentSubsidySystem.Item",
          "name": "",
          "type": "tuple"
        }
      ],
      "stateMutability": "view",
      "type": "function"
    },
    {
      "inputs": [
        {
          "internalType": "uint256",
          "name": "itemId",
          "type": "uint256"
        }
      ],
      "name": "getItemMerkleRoot",
      "outputs": [
        {
          "internalType": "bytes32",
          "name": "root",
          "type": "bytes32"
        }
      ],
      "stateMutability": "view",
      "type": "function"
    },
    {
      "inputs": [
        {
          "internalType": "uint256",
          "name": "itemId",
          "type": "uint256"
        },
        {
          "internalType": "enum TransparentSubsidySystem.Stage",
          "name": "stage",
          "type": "uint8"
        }
      ],
      "name": "getMerkleRoot",
      "outputs": [
        {
          "internalType": "bytes32",
          "name": "root",
          "type": "bytes32"
        }
      ],
      "stateMutability": "view",
      "type": "function"
    },
    {
      "inputs": [
        {
          "internalType": "bytes32",
          "name": "role",
          "type": "bytes32"
        }
      ],
      "name": "getRoleAdmin",
      "outputs": [
        {
          "internalType": "bytes32",
          "name": "",
          "type": "bytes32"
        }
      ],
      "stateMutability": "view",
      "type": "function"
    },
    {
      "inputs": [
        {
          "internalType": "bytes32",
          "name": "role",
          "type": "bytes32"
        },
        {
          "internalType": "address",
          "name": "account",
          "type": "address"
        }
      ],
      "name": "grantRole",
      "outputs": [],
      "stateMutability": "nonpayable",
      "type": "function"
    },
    {
      "inputs": [
        {
          "internalType": "bytes32",
          "name": "role",
          "type": "bytes32"
        },
        {
          "internalType": "address",
          "name": "account",
          "type": "address"
        }
      ],
      "name": "hasRole",
      "outputs": [
        {
          "internalType": "bool",
          "name": "",
          "type": "bool"
        }
      ],
      "stateMutability": "view",
      "type": "function"
    },
    {
      "inputs": [],
      "name": "itemCount",
      "outputs": [
        {
          "internalType": "uint256",
          "name": "",
          "type": "uint256"
        }
      ],
      "stateMutability": "view",
      "type": "function"
    },
    {
      "inputs": [
        {
          "internalType": "bytes32",
          "name": "",
          "type": "bytes32"
        }
      ],
      "name": "itemIdToUint",
      "outputs": [
        {
          "internalType": "uint256",
          "name": "",
          "type": "uint256"
        }
      ],
      "stateMutability": "view",
      "type": "function"
    },
    {
      "inputs": [
        {
          "internalType": "uint256",
          "name": "",
          "type": "uint256"
        }
      ],
      "name": "itemMerkleRoots",
      "outputs": [
        {
          "internalType": "bytes32",
          "name": "",
          "type": "bytes32"
        }
      ],
      "stateMutability": "view",
      "type": "function"
    },
    {
      "inputs": [
        {
          "internalType": "uint256",
          "name": "",
          "type": "uint256"
        }
      ],
      "name": "items",
      "outputs": [
        {
          "internalType": "address",
          "name": "beneficiary",
          "type": "address"
        },
        {
          "internalType": "enum TransparentSubsidySystem.Stage",
          "name": "stage",
          "type": "uint8"
        },
        {
          "internalType": "bool",
          "name": "claimed",
          "type": "bool"
        },
        {
          "internalType": "string",
          "name": "currentIpfsHash",
          "type": "string"
        },
        {
          "internalType": "bytes32",
          "name": "itemId",
          "type": "bytes32"
        }
      ],
      "stateMutability": "view",
      "type": "function"
    },
    {
      "inputs": [
        {
          "internalType": "bytes32",
          "name": "role",
          "type": "bytes32"
        },
        {
          "internalType": "address",
          "name": "callerConfirmation",
          "type": "address"
        }
      ],
      "name": "renounceRole",
      "outputs": [],
      "stateMutability": "nonpayable",
      "type": "function"
    },
    {
      "inputs": [
        {
          "internalType": "bytes32",
          "name": "role",
          "type": "bytes32"
        },
        {
          "internalType": "address",
          "name": "account",
          "type": "address"
        }
      ],
      "name": "revokeRole",
      "outputs": [],
      "stateMutability": "nonpayable",
      "type": "function"
    },
    {
      "inputs": [
        {
          "internalType": "uint256",
          "name": "itemId",
          "type": "uint256"
        },
        {
          "internalType": "enum TransparentSubsidySystem.Stage",
          "name": "stage",
          "type": "uint8"
        },
        {
          "internalType": "bytes32",
          "name": "merkleRoot",
          "type": "bytes32"
        }
      ],
      "name": "setMerkleRoot",
      "outputs": [],
      "stateMutability": "nonpayable",
      "type": "function"
    },
    {
      "inputs": [
        {
          "internalType": "uint256",
          "name": "",
          "type": "uint256"
        },
        {
          "internalType": "enum TransparentSubsidySystem.Stage",
          "name": "",
          "type": "uint8"
        }
      ],
      "name": "stageMerkleRoots",
      "outputs": [
        {
          "internalType": "bytes32",
          "name": "",
          "type": "bytes32"
        }
      ],
      "stateMutability": "view",
      "type": "function"
    },
    {
      "inputs": [
        {
          "internalType": "bytes4",
          "name": "interfaceId",
          "type": "bytes4"
        }
      ],
      "name": "supportsInterface",
      "outputs": [
        {
          "internalType": "bool",
          "name": "",
          "type": "bool"
        }
      ],
      "stateMutability": "view",
      "type": "function"
    },
    {
      "inputs": [
        {
          "internalType": "uint256",
          "name": "itemId",
          "type": "uint256"
        },
        {
          "internalType": "string",
          "name": "ipfsHash",
          "type": "string"
        }
      ],
      "name": "transporterSubmit",
      "outputs": [],
      "stateMutability": "nonpayable",
      "type": "function"
    },
    {
      "inputs": [
        {
          "internalType": "uint256",
          "name": "itemId",
          "type": "uint256"
        },
        {
          "internalType": "enum TransparentSubsidySystem.Stage",
          "name": "stage",
          "type": "uint8"
        },
        {
          "internalType": "bytes32",
          "name": "documentHash",
          "type": "bytes32"
        },
        {
          "internalType": "bytes32[]",
          "name": "proof",
          "type": "bytes32[]"
        }
      ],
      "name": "verifyDocumentInclusion",
      "outputs": [
        {
          "internalType": "bool",
          "name": "valid",
          "type": "bool"
        }
      ],
      "stateMutability": "view",
      "type": "function"
    }
  ],
  "bytecode": "0x608060405234801561001057600080fd5b506100246000801b3361014b60201b60201c565b506100557fa49807205ce4d355092ef5a8a18f56e8913cf4a201fbe287825b095693c217753361014b60201b60201c565b506100a67fe61decff6e4a5c6b5a3d3cbd28f882e595173563b49353ce5f31dba2de7f05ee7fa49807205ce4d355092ef5a8a18f56e8913cf4a201fbe287825b095693c2177561024860201b60201c565b6100f67fddaa901e2fe3bda354fe0ede2785152d5c109282a613fe024a056a3e66c41bb37fa49807205ce4d355092ef5a8a18f56e8913cf4a201fbe287825b095693c2177561024860201b60201c565b6101467ffbd454f36a7e1a388bd6fc3ab10d434aa4578f811acbbcf33afb1c697486313c7fa49807205ce4d355092ef5a8a18f56e8913cf4a201fbe287825b095693c2177561024860201b60201c565b61033a565b600061015d83836102a960201b60201c565b61023d57600160008085815260200190815260200160002060000160008473ffffffffffffffffffffffffffffffffffffffff1673ffffffffffffffffffffffffffffffffffffffff16815260200190815260200160002060006101000a81548160ff0219169083151502179055506101da61031360201b60201c565b73ffffffffffffffffffffffffffffffffffffffff168273ffffffffffffffffffffffffffffffffffffffff16847f2f8788117e7eff1d82e926ec794901d17c78024a50270940304540a733656f0d60405160405180910390a460019050610242565b600090505b92915050565b60006102598361031b60201b60201c565b905081600080858152602001908152602001600020600101819055508181847fbd79b86ffe0ab8e8776151514217cd7cacd52c909f66475c3af44e129f0b00ff60405160405180910390a4505050565b600080600084815260200190815260200160002060000160008373ffffffffffffffffffffffffffffffffffffffff1673ffffffffffffffffffffffffffffffffffffffff16815260200190815260200160002060009054906101000a900460ff16905092915050565b600033905090565b6000806000838152602001908152602001600020600101549050919050565b6141f9806103496000396000f3fe608060405234801561001057600080fd5b50600436106101da5760003560e01c80637570f46011610104578063a217fddf116100a2578063d547741f11610071578063d547741f146105c9578063e9472e31146105e5578063f0bd87cc14610601578063f3ece9b71461061f576101da565b8063a217fddf1461052b578063bfb231d214610549578063c0a78dc81461057d578063c1b80a0814610599576101da565b80638b527004116100de5780638b5270041461047f5780639145325c146104af57806391d14854146104cb578063a211b176146104fb576101da565b80637570f4601461042757806375b238fc146104435780638222bdb214610461576101da565b80633a15eccd1161017c57806360d996311161014b57806360d996311461038d57806366e70a43146103bd5780636bfb0d01146103d95780636eb3b4e9146103f7576101da565b80633a15eccd146102f35780634bb35279146103235780634eabbe771461035357806351563f8e14610371576101da565b806326fb76c2116101b857806326fb76c21461026f5780632f2ff15d1461028b5780633129e773146102a757806336568abe146102d7576101da565b806301ffc9a7146101df57806304adfcce1461020f578063248a9ca31461023f575b600080fd5b6101f960048036038101906101f491906128fb565b61064f565b6040516102069190612943565b60405180910390f35b61022960048036038101906102249190612994565b6106c9565b6040516102369190612b9d565b60405180910390f35b61025960048036038101906102549190612994565b61089a565b6040516102669190612bce565b60405180910390f35b61028960048036038101906102849190612c7a565b6108b9565b005b6102a560048036038101906102a09190612cda565b610d68565b005b6102c160048036038101906102bc9190612d50565b610d8a565b6040516102ce9190612b9d565b60405180910390f35b6102f160048036038101906102ec9190612cda565b610eff565b005b61030d60048036038101906103089190612994565b610f7a565b60405161031a9190612d8c565b60405180910390f35b61033d60048036038101906103389190612e22565b610f92565b60405161034a9190612943565b60405180910390f35b61035b61104d565b6040516103689190612bce565b60405180910390f35b61038b60048036038101906103869190612d50565b611071565b005b6103a760048036038101906103a29190612eaa565b6111b4565b6040516103b49190612bce565b60405180910390f35b6103d760048036038101906103d29190612eea565b6111d9565b005b6103e16114df565b6040516103ee9190612d8c565b60405180910390f35b610411600480360381019061040c9190612d50565b6114e5565b60405161041e919061307e565b60405180910390f35b610441600480360381019061043c9190612eea565b611684565b005b61044b61198a565b6040516104589190612bce565b60405180910390f35b6104696119ae565b6040516104769190612bce565b60405180910390f35b61049960048036038101906104949190612d50565b6119d2565b6040516104a69190612bce565b60405180910390f35b6104c960048036038101906104c49190612d50565b6119ea565b005b6104e560048036038101906104e09190612cda565b611d18565b6040516104f29190612943565b60405180910390f35b61051560048036038101906105109190612d50565b611d82565b6040516105229190612bce565b60405180910390f35b610533611d9f565b6040516105409190612bce565b60405180910390f35b610563600480360381019061055e9190612d50565b611da6565b604051610574959493929190613108565b60405180910390f35b61059760048036038101906105929190612eaa565b611e9e565b005b6105b360048036038101906105ae9190612eaa565b61214d565b6040516105c09190612bce565b60405180910390f35b6105e360048036038101906105de9190612cda565b6121a0565b005b6105ff60048036038101906105fa9190613162565b6121c2565b005b610609612347565b6040516106169190612bce565b60405180910390f35b6106396004803603810190610634919061320b565b61236b565b6040516106469190612943565b60405180910390f35b60007f7965db0b000000000000000000000000000000000000000000000000000000007bffffffffffffffffffffffffffffffffffffffffffffffffffffffff1916827bffffffffffffffffffffffffffffffffffffffffffffffffffffffff191614806106c257506106c1826124da565b5b9050919050565b6106d161283d565b6000600360008481526020019081526020016000205490506000810361072c576040517f08c379a0000000000000000000000000000000000000000000000000000000008152600401610723906132fe565b60405180910390fd5b600260008281526020019081526020016000206040518060a00160405290816000820160009054906101000a900473ffffffffffffffffffffffffffffffffffffffff1673ffffffffffffffffffffffffffffffffffffffff1673ffffffffffffffffffffffffffffffffffffffff1681526020016000820160149054906101000a900460ff1660078111156107c5576107c4612a02565b5b60078111156107d7576107d6612a02565b5b81526020016000820160159054906101000a900460ff161515151581526020016001820180546108069061334d565b80601f01602080910402602001604051908101604052809291908181526020018280546108329061334d565b801561087f5780601f106108545761010080835404028352916020019161087f565b820191906000526020600020905b81548152906001019060200180831161086257829003601f168201915b50505050508152602001600282015481525050915050919050565b6000806000838152602001908152602001600020600101549050919050565b7fe61decff6e4a5c6b5a3d3cbd28f882e595173563b49353ce5f31dba2de7f05ee6108e381612544565b600073ffffffffffffffffffffffffffffffffffffffff168473ffffffffffffffffffffffffffffffffffffffff1603610952576040517f08c379a0000000000000000000000000000000000000000000000000000000008152600401610949906133ca565b60405180910390fd5b6001600081548092919061096590613419565b919050555060004233600154604051602001610983939291906134ca565b6040516020818303038152906040528051906020012090506040518060a001604052808673ffffffffffffffffffffffffffffffffffffffff168152602001600060078111156109d6576109d5612a02565b5b815260200160001515815260200185858080601f016020809104026020016040519081016040528093929190818152602001838380828437600081840152601f19601f8201169050808301925050505050505081526020018281525060026000600154815260200190815260200160002060008201518160000160006101000a81548173ffffffffffffffffffffffffffffffffffffffff021916908373ffffffffffffffffffffffffffffffffffffffff16021790555060208201518160000160146101000a81548160ff02191690836007811115610ab957610ab8612a02565b5b021790555060408201518160000160156101000a81548160ff0219169083151502179055506060820151816001019081610af391906136e2565b50608082015181600201559050506001546003600083815260200190815260200160002081905550600660006001548152602001908152602001600020604051806080016040528060006007811115610b4f57610b4e612a02565b5b815260200186868080601f016020809104026020016040519081016040528093929190818152602001838380828437600081840152601f19601f8201169050808301925050505050505081526020013373ffffffffffffffffffffffffffffffffffffffff16815260200142815250908060018154018082558091505060019003906000526020600020906004020160009091909190915060008201518160000160006101000a81548160ff02191690836007811115610c1257610c11612a02565b5b02179055506020820151816001019081610c2c91906136e2565b5060408201518160020160006101000a81548173ffffffffffffffffffffffffffffffffffffffff021916908373ffffffffffffffffffffffffffffffffffffffff1602179055506060820151816003015550503373ffffffffffffffffffffffffffffffffffffffff16817f7fc8b6a8e7280df1c3c09e85cd0e8e66342a14b88232e86b2b9601656f2614fa604051610cc590613800565b60405180910390a38473ffffffffffffffffffffffffffffffffffffffff166001547f8ca92c70182d3487a5ee73b708d09ac562962a6ecffa317d6cd4f6beb31cae2c8686604051610d1892919061385c565b60405180910390a36001547f79fffd55b843ee7c60c7ee872ba77121146675737a0798438b7b57a44ac2cbe86000868633604051610d599493929190613880565b60405180910390a25050505050565b610d718261089a565b610d7a81612544565b610d848383612558565b50505050565b610d9261283d565b600260008381526020019081526020016000206040518060a00160405290816000820160009054906101000a900473ffffffffffffffffffffffffffffffffffffffff1673ffffffffffffffffffffffffffffffffffffffff1673ffffffffffffffffffffffffffffffffffffffff1681526020016000820160149054906101000a900460ff166007811115610e2b57610e2a612a02565b5b6007811115610e3d57610e3c612a02565b5b81526020016000820160159054906101000a900460ff16151515158152602001600182018054610e6c9061334d565b80601f0160208091040260200160405190810160405280929190818152602001828054610e989061334d565b8015610ee55780601f10610eba57610100808354040283529160200191610ee5565b820191906000526020600020905b815481529060010190602001808311610ec857829003601f168201915b505050505081526020016002820154815250509050919050565b610f07612649565b73ffffffffffffffffffffffffffffffffffffffff168173ffffffffffffffffffffffffffffffffffffffff1614610f6b576040517f6697b23200000000000000000000000000000000000000000000000000000000815260040160405180910390fd5b610f758282612651565b505050565b60036020528060005260406000206000915090505481565b600080600560008881526020019081526020016000206000876007811115610fbd57610fbc612a02565b5b6007811115610fcf57610fce612a02565b5b81526020019081526020016000205490506000801b8103610ff4576000915050611044565b611040848480806020026020016040519081016040528093929190818152602001838360200280828437600081840152601f19601f820116905080830192505050505050508287612743565b9150505b95945050505050565b7fddaa901e2fe3bda354fe0ede2785152d5c109282a613fe024a056a3e66c41bb381565b7fa49807205ce4d355092ef5a8a18f56e8913cf4a201fbe287825b095693c2177561109b81612544565b60006002600084815260200190815260200160002090508060000160159054906101000a900460ff1615611104576040517f08c379a00000000000000000000000000000000000000000000000000000000081526004016110fb9061390c565b60405180910390fd5b60078160000160146101000a81548160ff0219169083600781111561112c5761112b612a02565b5b02179055503373ffffffffffffffffffffffffffffffffffffffff1681600201547f7fc8b6a8e7280df1c3c09e85cd0e8e66342a14b88232e86b2b9601656f2614fa60405161117a90613978565b60405180910390a3827f6875ab0cd79fc59886259e999e56eb8da549fa524709389bc624972a5896995860405160405180910390a2505050565b6005602052816000526040600020602052806000526040600020600091509150505481565b7fddaa901e2fe3bda354fe0ede2785152d5c109282a613fe024a056a3e66c41bb361120381612544565b6001600781111561121757611216612a02565b5b6002600086815260200190815260200160002060000160149054906101000a900460ff16600781111561124d5761124c612a02565b5b1461128d576040517f08c379a0000000000000000000000000000000000000000000000000000000008152600401611284906139e4565b60405180910390fd5b600060026000868152602001908152602001600020905060028160000160146101000a81548160ff021916908360078111156112cc576112cb612a02565b5b021790555083838260010191826112e4929190613a0f565b506006600086815260200190815260200160002060405180608001604052806002600781111561131757611316612a02565b5b815260200186868080601f016020809104026020016040519081016040528093929190818152602001838380828437600081840152601f19601f8201169050808301925050505050505081526020013373ffffffffffffffffffffffffffffffffffffffff16815260200142815250908060018154018082558091505060019003906000526020600020906004020160009091909190915060008201518160000160006101000a81548160ff021916908360078111156113da576113d9612a02565b5b021790555060208201518160010190816113f491906136e2565b5060408201518160020160006101000a81548173ffffffffffffffffffffffffffffffffffffffff021916908373ffffffffffffffffffffffffffffffffffffffff1602179055506060820151816003015550503373ffffffffffffffffffffffffffffffffffffffff1681600201547f7fc8b6a8e7280df1c3c09e85cd0e8e66342a14b88232e86b2b9601656f2614fa60405161149190613b2b565b60405180910390a3847f79fffd55b843ee7c60c7ee872ba77121146675737a0798438b7b57a44ac2cbe860028686336040516114d09493929190613880565b60405180910390a25050505050565b60015481565b606060066000838152602001908152602001600020805480602002602001604051908101604052809291908181526020016000905b8282101561167957838290600052602060002090600402016040518060800160405290816000820160009054906101000a900460ff16600781111561156257611561612a02565b5b600781111561157457611573612a02565b5b81526020016001820180546115889061334d565b80601f01602080910402602001604051908101604052809291908181526020018280546115b49061334d565b80156116015780601f106115d657610100808354040283529160200191611601565b820191906000526020600020905b8154815290600101906020018083116115e457829003601f168201915b505050505081526020016002820160009054906101000a900473ffffffffffffffffffffffffffffffffffffffff1673ffffffffffffffffffffffffffffffffffffffff1673ffffffffffffffffffffffffffffffffffffffff1681526020016003820154815250508152602001906001019061151a565b505050509050919050565b7ffbd454f36a7e1a388bd6fc3ab10d434aa4578f811acbbcf33afb1c697486313c6116ae81612544565b600360078111156116c2576116c1612a02565b5b6002600086815260200190815260200160002060000160149054906101000a900460ff1660078111156116f8576116f7612a02565b5b14611738576040517f08c379a000000000000000000000000000000000000000000000000000000000815260040161172f90613b97565b60405180910390fd5b600060026000868152602001908152602001600020905060048160000160146101000a81548160ff0219169083600781111561177757611776612a02565b5b0217905550838382600101918261178f929190613a0f565b50600660008681526020019081526020016000206040518060800160405280600460078111156117c2576117c1612a02565b5b815260200186868080601f016020809104026020016040519081016040528093929190818152602001838380828437600081840152601f19601f8201169050808301925050505050505081526020013373ffffffffffffffffffffffffffffffffffffffff16815260200142815250908060018154018082558091505060019003906000526020600020906004020160009091909190915060008201518160000160006101000a81548160ff0219169083600781111561188557611884612a02565b5b0217905550602082015181600101908161189f91906136e2565b5060408201518160020160006101000a81548173ffffffffffffffffffffffffffffffffffffffff021916908373ffffffffffffffffffffffffffffffffffffffff1602179055506060820151816003015550503373ffffffffffffffffffffffffffffffffffffffff1681600201547f7fc8b6a8e7280df1c3c09e85cd0e8e66342a14b88232e86b2b9601656f2614fa60405161193c90613c03565b60405180910390a3847f79fffd55b843ee7c60c7ee872ba77121146675737a0798438b7b57a44ac2cbe8600486863360405161197b9493929190613880565b60405180910390a25050505050565b7fa49807205ce4d355092ef5a8a18f56e8913cf4a201fbe287825b095693c2177581565b7fe61decff6e4a5c6b5a3d3cbd28f882e595173563b49353ce5f31dba2de7f05ee81565b60046020528060005260406000206000915090505481565b600060026000838152602001908152602001600020905060056007811115611a1557611a14612a02565b5b8160000160149054906101000a900460ff166007811115611a3957611a38612a02565b5b14611a79576040517f08c379a0000000000000000000000000000000000000000000000000000000008152600401611a7090613c95565b60405180910390fd5b8060000160159054906101000a900460ff1615611acb576040517f08c379a0000000000000000000000000000000000000000000000000000000008152600401611ac290613d01565b60405180910390fd5b60008160000160009054906101000a900473ffffffffffffffffffffffffffffffffffffffff1673ffffffffffffffffffffffffffffffffffffffff163373ffffffffffffffffffffffffffffffffffffffff161490506000611b4e7fa49807205ce4d355092ef5a8a18f56e8913cf4a201fbe287825b095693c2177533611d18565b80611b7f5750611b7e7ffbd454f36a7e1a388bd6fc3ab10d434aa4578f811acbbcf33afb1c697486313c33611d18565b5b90508180611b8a5750805b611bc9576040517f08c379a0000000000000000000000000000000000000000000000000000000008152600401611bc090613d6d565b60405180910390fd5b60018360000160156101000a81548160ff02191690831515021790555060068360000160146101000a81548160ff02191690836007811115611c0e57611c0d612a02565b5b02179055503373ffffffffffffffffffffffffffffffffffffffff1683600201547f7fc8b6a8e7280df1c3c09e85cd0e8e66342a14b88232e86b2b9601656f2614fa604051611c5c90613dd9565b60405180910390a38260000160009054906101000a900473ffffffffffffffffffffffffffffffffffffffff1673ffffffffffffffffffffffffffffffffffffffff16847f6891ddc79eacea5f551daea1b822722765b992ed866f26698d8d31fa1982197e33604051611ccf9190613df9565b60405180910390a3837f79fffd55b843ee7c60c7ee872ba77121146675737a0798438b7b57a44ac2cbe8600633604051611d0a929190613e60565b60405180910390a250505050565b600080600084815260200190815260200160002060000160008373ffffffffffffffffffffffffffffffffffffffff1673ffffffffffffffffffffffffffffffffffffffff16815260200190815260200160002060009054906101000a900460ff16905092915050565b600060046000838152602001908152602001600020549050919050565b6000801b81565b60026020528060005260406000206000915090508060000160009054906101000a900473ffffffffffffffffffffffffffffffffffffffff16908060000160149054906101000a900460ff16908060000160159054906101000a900460ff1690806001018054611e159061334d565b80601f0160208091040260200160405190810160405280929190818152602001828054611e419061334d565b8015611e8e5780601f10611e6357610100808354040283529160200191611e8e565b820191906000526020600020905b815481529060010190602001808311611e7157829003601f168201915b5050505050908060020154905085565b7fa49807205ce4d355092ef5a8a18f56e8913cf4a201fbe287825b095693c21775611ec881612544565b6000600260008581526020019081526020016000209050826007811115611ef257611ef1612a02565b5b8160000160149054906101000a900460ff166007811115611f1657611f15612a02565b5b14611f56576040517f08c379a0000000000000000000000000000000000000000000000000000000008152600401611f4d90613ee8565b60405180910390fd5b60006007811115611f6a57611f69612a02565b5b836007811115611f7d57611f7c612a02565b5b03611fb45760018160000160146101000a81548160ff02191690836007811115611faa57611fa9612a02565b5b02179055506120ad565b60026007811115611fc857611fc7612a02565b5b836007811115611fdb57611fda612a02565b5b036120125760038160000160146101000a81548160ff0219169083600781111561200857612007612a02565b5b02179055506120ac565b6004600781111561202657612025612a02565b5b83600781111561203957612038612a02565b5b036120705760058160000160146101000a81548160ff0219169083600781111561206657612065612a02565b5b02179055506120ab565b6040517f08c379a00000000000000000000000000000000000000000000000000000000081526004016120a290613f7a565b60405180910390fd5b5b5b3373ffffffffffffffffffffffffffffffffffffffff1681600201547f7fc8b6a8e7280df1c3c09e85cd0e8e66342a14b88232e86b2b9601656f2614fa6040516120f690613fe6565b60405180910390a3837ff32674b104c9036b14a2a04e80d007566495fdd06961275efcf1016491d6cd078260000160149054906101000a900460ff1660405161213f9190614006565b60405180910390a250505050565b600060056000848152602001908152602001600020600083600781111561217757612176612a02565b5b600781111561218957612188612a02565b5b815260200190815260200160002054905092915050565b6121a98261089a565b6121b281612544565b6121bc8383612651565b50505050565b7fa49807205ce4d355092ef5a8a18f56e8913cf4a201fbe287825b095693c217756121ec81612544565b600073ffffffffffffffffffffffffffffffffffffffff166002600086815260200190815260200160002060000160009054906101000a900473ffffffffffffffffffffffffffffffffffffffff1673ffffffffffffffffffffffffffffffffffffffff1603612291576040517f08c379a00000000000000000000000000000000000000000000000000000000081526004016122889061406d565b60405180910390fd5b816005600086815260200190815260200160002060008560078111156122ba576122b9612a02565b5b60078111156122cc576122cb612a02565b5b81526020019081526020016000208190555081600460008681526020019081526020016000208190555082600781111561230957612308612a02565b5b847f56eb2385ade678af1e07640803bf289be7b35bca5e06e93e08f8a2f5b936d0d8846040516123399190612bce565b60405180910390a350505050565b7ffbd454f36a7e1a388bd6fc3ab10d434aa4578f811acbbcf33afb1c697486313c81565b60008282905085859050146123b5576040517f08c379a00000000000000000000000000000000000000000000000000000000081526004016123ac906140d9565b60405180910390fd5b60005b858590508110156124ca576000600560008a815260200190815260200160002060008960078111156123ed576123ec612a02565b5b60078111156123ff576123fe612a02565b5b81526020019081526020016000205490506000801b8103612425576000925050506124d0565b6124ad85858481811061243b5761243a6140f9565b5b905060200281019061244d9190614137565b80806020026020016040519081016040528093929190818152602001838360200280828437600081840152601f19601f82011690508083019250505050505050828989868181106124a1576124a06140f9565b5b90506020020135612743565b6124bc576000925050506124d0565b5080806001019150506123b8565b50600190505b9695505050505050565b60007f01ffc9a7000000000000000000000000000000000000000000000000000000007bffffffffffffffffffffffffffffffffffffffffffffffffffffffff1916827bffffffffffffffffffffffffffffffffffffffffffffffffffffffff1916149050919050565b61255581612550612649565b61275a565b50565b60006125648383611d18565b61263e57600160008085815260200190815260200160002060000160008473ffffffffffffffffffffffffffffffffffffffff1673ffffffffffffffffffffffffffffffffffffffff16815260200190815260200160002060006101000a81548160ff0219169083151502179055506125db612649565b73ffffffffffffffffffffffffffffffffffffffff168273ffffffffffffffffffffffffffffffffffffffff16847f2f8788117e7eff1d82e926ec794901d17c78024a50270940304540a733656f0d60405160405180910390a460019050612643565b600090505b92915050565b600033905090565b600061265d8383611d18565b1561273857600080600085815260200190815260200160002060000160008473ffffffffffffffffffffffffffffffffffffffff1673ffffffffffffffffffffffffffffffffffffffff16815260200190815260200160002060006101000a81548160ff0219169083151502179055506126d5612649565b73ffffffffffffffffffffffffffffffffffffffff168273ffffffffffffffffffffffffffffffffffffffff16847ff6391f5c32d9c69d2a47ea670b442974b53935d1edc7fd64eb21e047a839171b60405160405180910390a46001905061273d565b600090505b92915050565b60008261275085846127ab565b1490509392505050565b6127648282611d18565b6127a75780826040517fe2517d3f00000000000000000000000000000000000000000000000000000000815260040161279e92919061419a565b60405180910390fd5b5050565b60008082905060005b84518110156127f0576127e1828683815181106127d4576127d36140f9565b5b60200260200101516127fb565b915080806001019150506127b4565b508091505092915050565b60008183106128135761280e8284612826565b61281e565b61281d8383612826565b5b905092915050565b600082600052816020526040600020905092915050565b6040518060a00160405280600073ffffffffffffffffffffffffffffffffffffffff1681526020016000600781111561287957612878612a02565b5b815260200160001515815260200160608152602001600080191681525090565b600080fd5b600080fd5b60007fffffffff0000000000000000000000000000000000000000000000000000000082169050919050565b6128d8816128a3565b81146128e357600080fd5b50565b6000813590506128f5816128cf565b92915050565b60006020828403121561291157612910612899565b5b600061291f848285016128e6565b91505092915050565b60008115159050919050565b61293d81612928565b82525050565b60006020820190506129586000830184612934565b92915050565b6000819050919050565b6129718161295e565b811461297c57600080fd5b50565b60008135905061298e81612968565b92915050565b6000602082840312156129aa576129a9612899565b5b60006129b88482850161297f565b91505092915050565b600073ffffffffffffffffffffffffffffffffffffffff82169050919050565b60006129ec826129c1565b9050919050565b6129fc816129e1565b82525050565b7f4e487b7100000000000000000000000000000000000000000000000000000000600052602160045260246000fd5b60088110612a4257612a41612a02565b5b50565b6000819050612a5382612a31565b919050565b6000612a6382612a45565b9050919050565b612a7381612a58565b82525050565b612a8281612928565b82525050565b600081519050919050565b600082825260208201905092915050565b60005b83811015612ac2578082015181840152602081019050612aa7565b60008484015250505050565b6000601f19601f8301169050919050565b6000612aea82612a88565b612af48185612a93565b9350612b04818560208601612aa4565b612b0d81612ace565b840191505092915050565b612b218161295e565b82525050565b600060a083016000830151612b3f60008601826129f3565b506020830151612b526020860182612a6a565b506040830151612b656040860182612a79565b5060608301518482036060860152612b7d8282612adf565b9150506080830151612b926080860182612b18565b508091505092915050565b60006020820190508181036000830152612bb78184612b27565b905092915050565b612bc88161295e565b82525050565b6000602082019050612be36000830184612bbf565b92915050565b612bf2816129e1565b8114612bfd57600080fd5b50565b600081359050612c0f81612be9565b92915050565b600080fd5b600080fd5b600080fd5b60008083601f840112612c3a57612c39612c15565b5b8235905067ffffffffffffffff811115612c5757612c56612c1a565b5b602083019150836001820283011115612c7357612c72612c1f565b5b9250929050565b600080600060408486031215612c9357612c92612899565b5b6000612ca186828701612c00565b935050602084013567ffffffffffffffff811115612cc257612cc161289e565b5b612cce86828701612c24565b92509250509250925092565b60008060408385031215612cf157612cf0612899565b5b6000612cff8582860161297f565b9250506020612d1085828601612c00565b9150509250929050565b6000819050919050565b612d2d81612d1a565b8114612d3857600080fd5b50565b600081359050612d4a81612d24565b92915050565b600060208284031215612d6657612d65612899565b5b6000612d7484828501612d3b565b91505092915050565b612d8681612d1a565b82525050565b6000602082019050612da16000830184612d7d565b92915050565b60088110612db457600080fd5b50565b600081359050612dc681612da7565b92915050565b60008083601f840112612de257612de1612c15565b5b8235905067ffffffffffffffff811115612dff57612dfe612c1a565b5b602083019150836020820283011115612e1b57612e1a612c1f565b5b9250929050565b600080600080600060808688031215612e3e57612e3d612899565b5b6000612e4c88828901612d3b565b9550506020612e5d88828901612db7565b9450506040612e6e8882890161297f565b935050606086013567ffffffffffffffff811115612e8f57612e8e61289e565b5b612e9b88828901612dcc565b92509250509295509295909350565b60008060408385031215612ec157612ec0612899565b5b6000612ecf85828601612d3b565b9250506020612ee085828601612db7565b9150509250929050565b600080600060408486031215612f0357612f02612899565b5b6000612f1186828701612d3b565b935050602084013567ffffffffffffffff811115612f3257612f3161289e565b5b612f3e86828701612c24565b92509250509250925092565b600081519050919050565b600082825260208201905092915050565b6000819050602082019050919050565b612f7f81612d1a565b82525050565b6000608083016000830151612f9d6000860182612a6a565b5060208301518482036020860152612fb58282612adf565b9150506040830151612fca60408601826129f3565b506060830151612fdd6060860182612f76565b508091505092915050565b6000612ff48383612f85565b905092915050565b6000602082019050919050565b600061301482612f4a565b61301e8185612f55565b93508360208202850161303085612f66565b8060005b8581101561306c578484038952815161304d8582612fe8565b945061305883612ffc565b925060208a01995050600181019050613034565b50829750879550505050505092915050565b600060208201905081810360008301526130988184613009565b905092915050565b6130a9816129e1565b82525050565b6130b881612a58565b82525050565b600082825260208201905092915050565b60006130da82612a88565b6130e481856130be565b93506130f4818560208601612aa4565b6130fd81612ace565b840191505092915050565b600060a08201905061311d60008301886130a0565b61312a60208301876130af565b6131376040830186612934565b818103606083015261314981856130cf565b90506131586080830184612bbf565b9695505050505050565b60008060006060848603121561317b5761317a612899565b5b600061318986828701612d3b565b935050602061319a86828701612db7565b92505060406131ab8682870161297f565b9150509250925092565b60008083601f8401126131cb576131ca612c15565b5b8235905067ffffffffffffffff8111156131e8576131e7612c1a565b5b60208301915083602082028301111561320457613203612c1f565b5b9250929050565b6000806000806000806080878903121561322857613227612899565b5b600061323689828a01612d3b565b965050602061324789828a01612db7565b955050604087013567ffffffffffffffff8111156132685761326761289e565b5b61327489828a01612dcc565b9450945050606087013567ffffffffffffffff8111156132975761329661289e565b5b6132a389828a016131b5565b92509250509295509295509295565b7f4974656d206e6f7420666f756e64000000000000000000000000000000000000600082015250565b60006132e8600e836130be565b91506132f3826132b2565b602082019050919050565b60006020820190508181036000830152613317816132db565b9050919050565b7f4e487b7100000000000000000000000000000000000000000000000000000000600052602260045260246000fd5b6000600282049050600182168061336557607f821691505b6020821081036133785761337761331e565b5b50919050565b7f496e76616c69642062656e656669636961727900000000000000000000000000600082015250565b60006133b46013836130be565b91506133bf8261337e565b602082019050919050565b600060208201905081810360008301526133e3816133a7565b9050919050565b7f4e487b7100000000000000000000000000000000000000000000000000000000600052601160045260246000fd5b600061342482612d1a565b91507fffffffffffffffffffffffffffffffffffffffffffffffffffffffffffffffff8203613456576134556133ea565b5b600182019050919050565b6000819050919050565b61347c61347782612d1a565b613461565b82525050565b60008160601b9050919050565b600061349a82613482565b9050919050565b60006134ac8261348f565b9050919050565b6134c46134bf826129e1565b6134a1565b82525050565b60006134d6828661346b565b6020820191506134e682856134b3565b6014820191506134f6828461346b565b602082019150819050949350505050565b7f4e487b7100000000000000000000000000000000000000000000000000000000600052604160045260246000fd5b60008190508160005260206000209050919050565b60006020601f8301049050919050565b600082821b905092915050565b6000600883026135987fffffffffffffffffffffffffffffffffffffffffffffffffffffffffffffffff8261355b565b6135a2868361355b565b95508019841693508086168417925050509392505050565b6000819050919050565b60006135df6135da6135d584612d1a565b6135ba565b612d1a565b9050919050565b6000819050919050565b6135f9836135c4565b61360d613605826135e6565b848454613568565b825550505050565b600090565b613622613615565b61362d8184846135f0565b505050565b5b818110156136515761364660008261361a565b600181019050613633565b5050565b601f8211156136965761366781613536565b6136708461354b565b8101602085101561367f578190505b61369361368b8561354b565b830182613632565b50505b505050565b600082821c905092915050565b60006136b96000198460080261369b565b1980831691505092915050565b60006136d283836136a8565b9150826002028217905092915050565b6136eb82612a88565b67ffffffffffffffff81111561370457613703613507565b5b61370e825461334d565b613719828285613655565b600060209050601f83116001811461374c576000841561373a578287015190505b61374485826136c6565b8655506137ac565b601f19841661375a86613536565b60005b828110156137825784890151825560018201915060208501945060208101905061375d565b8683101561379f578489015161379b601f8916826136a8565b8355505b6001600288020188555050505b505050505050565b7f4352454154455f4954454d000000000000000000000000000000000000000000600082015250565b60006137ea600b836130be565b91506137f5826137b4565b602082019050919050565b60006020820190508181036000830152613819816137dd565b9050919050565b82818337600083830152505050565b600061383b83856130be565b9350613848838584613820565b61385183612ace565b840190509392505050565b6000602082019050818103600083015261387781848661382f565b90509392505050565b600060608201905061389560008301876130af565b81810360208301526138a881858761382f565b90506138b760408301846130a0565b95945050505050565b7f43616e6e6f742063616e63656c206120636c61696d6564206974656d00000000600082015250565b60006138f6601c836130be565b9150613901826138c0565b602082019050919050565b60006020820190508181036000830152613925816138e9565b9050919050565b7f43414e43454c5f4954454d000000000000000000000000000000000000000000600082015250565b6000613962600b836130be565b915061396d8261392c565b602082019050919050565b6000602082019050818103600083015261399181613955565b9050919050565b7f48616e646f766572206e6f742076657269666965642062792041646d696e0000600082015250565b60006139ce601e836130be565b91506139d982613998565b602082019050919050565b600060208201905081810360008301526139fd816139c1565b9050919050565b600082905092915050565b613a198383613a04565b67ffffffffffffffff811115613a3257613a31613507565b5b613a3c825461334d565b613a47828285613655565b6000601f831160018114613a765760008415613a64578287013590505b613a6e85826136c6565b865550613ad6565b601f198416613a8486613536565b60005b82811015613aac57848901358255600182019150602085019450602081019050613a87565b86831015613ac95784890135613ac5601f8916826136a8565b8355505b6001600288020188555050505b50505050505050565b7f5452414e53504f525445525f5355424d49540000000000000000000000000000600082015250565b6000613b156012836130be565b9150613b2082613adf565b602082019050919050565b60006020820190508181036000830152613b4481613b08565b9050919050565b7f4974656d206e6f7420696e207472616e73697400000000000000000000000000600082015250565b6000613b816013836130be565b9150613b8c82613b4b565b602082019050919050565b60006020820190508181036000830152613bb081613b74565b9050919050565b7f4449535452494255544f525f5355424d49540000000000000000000000000000600082015250565b6000613bed6012836130be565b9150613bf882613bb7565b602082019050919050565b60006020820190508181036000830152613c1c81613be0565b9050919050565b7f44656c6976657279206e6f742076657269666965642062792041646d696e207960008201527f6574000000000000000000000000000000000000000000000000000000000000602082015250565b6000613c7f6022836130be565b9150613c8a82613c23565b604082019050919050565b60006020820190508181036000830152613cae81613c72565b9050919050565b7f416c726561647920636c61696d65640000000000000000000000000000000000600082015250565b6000613ceb600f836130be565b9150613cf682613cb5565b602082019050919050565b60006020820190508181036000830152613d1a81613cde565b9050919050565b7f556e617574686f72697a65640000000000000000000000000000000000000000600082015250565b6000613d57600c836130be565b9150613d6282613d21565b602082019050919050565b60006020820190508181036000830152613d8681613d4a565b9050919050565b7f42454e45464943494152595f434c41494d000000000000000000000000000000600082015250565b6000613dc36011836130be565b9150613dce82613d8d565b602082019050919050565b60006020820190508181036000830152613df281613db6565b9050919050565b6000602082019050613e0e60008301846130a0565b92915050565b7f697066733a2f2f436c61696d6564000000000000000000000000000000000000600082015250565b6000613e4a600e836130be565b9150613e5582613e14565b602082019050919050565b6000606082019050613e7560008301856130af565b8181036020830152613e8681613e3d565b9050613e9560408301846130a0565b9392505050565b7f5374616765206d69736d6174636820666f7220766572696669636174696f6e00600082015250565b6000613ed2601f836130be565b9150613edd82613e9c565b602082019050919050565b60006020820190508181036000830152613f0181613ec5565b9050919050565b7f546869732073746167652063616e6e6f7420626520766572696669656420627960008201527f2041646d696e206469726563746c790000000000000000000000000000000000602082015250565b6000613f64602f836130be565b9150613f6f82613f08565b604082019050919050565b60006020820190508181036000830152613f9381613f57565b9050919050565b7f41444d494e5f5645524946590000000000000000000000000000000000000000600082015250565b6000613fd0600c836130be565b9150613fdb82613f9a565b602082019050919050565b60006020820190508181036000830152613fff81613fc3565b9050919050565b600060208201905061401b60008301846130af565b92915050565b7f4974656d20646f6573206e6f7420657869737400000000000000000000000000600082015250565b60006140576013836130be565b915061406282614021565b602082019050919050565b600060208201905081810360008301526140868161404a565b9050919050565b7f4172726179206c656e677468206d69736d617463680000000000000000000000600082015250565b60006140c36015836130be565b91506140ce8261408d565b602082019050919050565b600060208201905081810360008301526140f2816140b6565b9050919050565b7f4e487b7100000000000000000000000000000000000000000000000000000000600052603260045260246000fd5b600080fd5b600080fd5b600080fd5b6000808335600160200384360303811261415457614153614128565b5b80840192508235915067ffffffffffffffff8211156141765761417561412d565b5b60208301925060208202360383131561419257614191614132565b5b509250929050565b60006040820190506141af60008301856130a0565b6141bc6020830184612bbf565b939250505056fea2646970667358221220eaa23ae758232de3d80d360319fa55bbfab4038f6f2ddd1589fc2a69fb5f4ed764736f6c634300081c0033",
  "linkReferences": {},
  "deployedLinkReferences": {}
}