{
  "_format": "hh-sol-artifact-1",
  "contractName": "TransparentSubsidySystem",
  "sourceName": "contracts/TransparentSubsidySystem.sol",
  "abi": [
    {
      "inputs": [],
      "stateMutability": "nonpayable",
      "type": "constructor"
    },
    {
      "inputs": [],
      "name": "AccessControlBadConfirmation",
      "type": "error"
    },
    {
      "inputs": [
        {
          "internalType": "address",
          "name": "account",
          "type": "address"
        },
        {
          "internalType": "bytes32",
          "name": "neededRole",
          "type": "bytes32"
        }
      ],
      "name": "AccessControlUnauthorizedAccount",
      "type": "error"
    },
    {
      "anonymous": false,
      "inputs": [
        {
          "indexed": true,
          "internalType": "uint256",
          "name": "itemId",
          "type": "uint256"
        },
        {
          "indexed": false,
          "internalType": "enum TransparentSubsidySystem.Stage",
          "name": "stage",
          "type": "uint8"
        },
        {
          "indexed": false,
          "internalType": "string",
          "name": "ipfsHash",
          "type": "string"
        },
        {
          "indexed": false,
          "internalType": "address",
          "name": "uploader",
          "type": "address"
        }
      ],
      "name": "DocumentUploaded",
      "type": "event"
    },
    {
      "anonymous": false,
      "inputs": [
        {
          "indexed": true,
          "internalType": "uint256",
          "name": "itemId",
          "type": "uint256"
        }
      ],
      "name": "ItemCancelled",
      "type": "event"
    },
    {
      "anonymous": false,
      "inputs": [
        {
          "indexed": true,
          "internalType": "uint256",
          "name": "itemId",
          "type": "uint256"
        },
        {
          "indexed": true,
          "internalType": "address",
          "name": "beneficiary",
          "type": "address"
        },
        {
          "indexed": false,
          "internalType": "string",
          "name": "ipfsHash",
          "type": "string"
        }
      ],
      "name": "ItemCreated",
      "type": "event"
    },
    {
      "anonymous": false,
      "inputs": [
        {
          "indexed": true,
          "internalType": "uint256",
          "name": "itemId",
          "type": "uint256"
        },
        {
          "indexed": false,
          "internalType": "enum TransparentSubsidySystem.Stage",
          "name": "newStage",
          "type": "uint8"
        }
      ],
      "name": "ItemVerified",
      "type": "event"
    },
    {
      "anonymous": false,
      "inputs": [
        {
          "indexed": true,
          "internalType": "bytes32",
          "name": "role",
          "type": "bytes32"
        },
        {
          "indexed": true,
          "internalType": "bytes32",
          "name": "previousAdminRole",
          "type": "bytes32"
        },
        {
          "indexed": true,
          "internalType": "bytes32",
          "name": "newAdminRole",
          "type": "bytes32"
        }
      ],
      "name": "RoleAdminChanged",
      "type": "event"
    },
    {
      "anonymous": false,
      "inputs": [
        {
          "indexed": true,
          "internalType": "bytes32",
          "name": "role",
          "type": "bytes32"
        },
        {
          "indexed": true,
          "internalType": "address",
          "name": "account",
          "type": "address"
        },
        {
          "indexed": true,
          "internalType": "address",
          "name": "sender",
          "type": "address"
        }
      ],
      "name": "RoleGranted",
      "type": "event"
    },
    {
      "anonymous": false,
      "inputs": [
        {
          "indexed": true,
          "internalType": "bytes32",
          "name": "role",
          "type": "bytes32"
        },
        {
          "indexed": true,
          "internalType": "address",
          "name": "account",
          "type": "address"
        },
        {
          "indexed": true,
          "internalType": "address",
          "name": "sender",
          "type": "address"
        }
      ],
      "name": "RoleRevoked",
      "type": "event"
    },
    {
      "anonymous": false,
      "inputs": [
        {
          "indexed": true,
          "internalType": "uint256",
          "name": "itemId",
          "type": "uint256"
        },
        {
          "indexed": true,
          "internalType": "address",
          "name": "beneficiary",
          "type": "address"
        },
        {
          "indexed": false,
          "internalType": "address",
          "name": "claimedBy",
          "type": "address"
        }
      ],
      "name": "SubsidyClaimed",
      "type": "event"
    },
    {
      "inputs": [],
      "name": "ADMIN_ROLE",
      "outputs": [
        {
          "internalType": "bytes32",
          "name": "",
          "type": "bytes32"
        }
      ],
      "stateMutability": "view",
      "type": "function"
    },
    {
      "inputs": [],
      "name": "DEFAULT_ADMIN_ROLE",
      "outputs": [
        {
          "internalType": "bytes32",
          "name": "",
          "type": "bytes32"
        }
      ],
      "stateMutability": "view",
      "type": "function"
    },
    {
      "inputs": [],
      "name": "DISTRIBUTOR_ROLE",
      "outputs": [
        {
          "internalType": "bytes32",
          "name": "",
          "type": "bytes32"
        }
      ],
      "stateMutability": "view",
      "type": "function"
    },
    {
      "inputs": [],
      "name": "PROCESSOR_ROLE",
      "outputs": [
        {
          "internalType": "bytes32",
          "name": "",
          "type": "bytes32"
        }
      ],
      "stateMutability": "view",
      "type": "function"
    },
    {
      "inputs": [],
      "name": "TRANSPORTER_ROLE",
      "outputs": [
        {
          "internalType": "bytes32",
          "name": "",
          "type": "bytes32"
        }
      ],
      "stateMutability": "view",
      "type": "function"
    },
    {
      "inputs": [
        {
          "internalType": "uint256",
          "name": "itemId",
          "type": "uint256"
        },
        {
          "internalType": "enum TransparentSubsidySystem.Stage",
          "name": "expectedCurrentStage",
          "type": "uint8"
        }
      ],
      "name": "adminVerify",
      "outputs": [],
      "stateMutability": "nonpayable",
      "type": "function"
    },
    {
      "inputs": [
        {
          "internalType": "uint256",
          "name": "itemId",
          "type": "uint256"
        }
      ],
      "name": "beneficiaryClaim",
      "outputs": [],
      "stateMutability": "nonpayable",
      "type": "function"
    },
    {
      "inputs": [
        {
          "internalType": "uint256",
          "name": "itemId",
          "type": "uint256"
        }
      ],
      "name": "cancelItem",
      "outputs": [],
      "stateMutability": "nonpayable",
      "type": "function"
    },
    {
      "inputs": [
        {
          "internalType": "address",
          "name": "beneficiary",
          "type": "address"
        },
        {
          "internalType": "string",
          "name": "ipfsHash",
          "type": "string"
        }
      ],
      "name": "createItem",
      "outputs": [],
      "stateMutability": "nonpayable",
      "type": "function"
    },
    {
      "inputs": [
        {
          "internalType": "uint256",
          "name": "itemId",
          "type": "uint256"
        },
        {
          "internalType": "string",
          "name": "ipfsHash",
          "type": "string"
        }
      ],
      "name": "distributorSubmit",
      "outputs": [],
      "stateMutability": "nonpayable",
      "type": "function"
    },
    {
      "inputs": [
        {
          "internalType": "uint256",
          "name": "itemId",
          "type": "uint256"
        }
      ],
      "name": "getDocuments",
      "outputs": [
        {
          "components": [
            {
              "internalType": "enum TransparentSubsidySystem.Stage",
              "name": "stage",
              "type": "uint8"
            },
            {
              "internalType": "string",
              "name": "ipfsHash",
              "type": "string"
            },
            {
              "internalType": "address",
              "name": "uploader",
              "type": "address"
            },
            {
              "internalType": "uint256",
              "name": "timestamp",
              "type": "uint256"
            }
          ],
          "internalType": "struct TransparentSubsidySystem.Document[]",
          "name": "",
          "type": "tuple[]"
        }
      ],
      "stateMutability": "view",
      "type": "function"
    },
    {
      "inputs": [
        {
          "internalType": "uint256",
          "name": "itemId",
          "type": "uint256"
        }
      ],
      "name": "getItem",
      "outputs": [
        {
          "components": [
            {
              "internalType": "address",
              "name": "beneficiary",
              "type": "address"
            },
            {
              "internalType": "enum TransparentSubsidySystem.Stage",
              "name": "stage",
              "type": "uint8"
            },
            {
              "internalType": "bool",
              "name": "claimed",
              "type": "bool"
            },
            {
              "internalType": "string",
              "name": "currentIpfsHash",
              "type": "string"
            }
          ],
          "internalType": "struct TransparentSubsidySystem.Item",
          "name": "",
          "type": "tuple"
        }
      ],
      "stateMutability": "view",
      "type": "function"
    },
    {
      "inputs": [
        {
          "internalType": "bytes32",
          "name": "role",
          "type": "bytes32"
        }
      ],
      "name": "getRoleAdmin",
      "outputs": [
        {
          "internalType": "bytes32",
          "name": "",
          "type": "bytes32"
        }
      ],
      "stateMutability": "view",
      "type": "function"
    },
    {
      "inputs": [
        {
          "internalType": "bytes32",
          "name": "role",
          "type": "bytes32"
        },
        {
          "internalType": "address",
          "name": "account",
          "type": "address"
        }
      ],
      "name": "grantRole",
      "outputs": [],
      "stateMutability": "nonpayable",
      "type": "function"
    },
    {
      "inputs": [
        {
          "internalType": "bytes32",
          "name": "role",
          "type": "bytes32"
        },
        {
          "internalType": "address",
          "name": "account",
          "type": "address"
        }
      ],
      "name": "hasRole",
      "outputs": [
        {
          "internalType": "bool",
          "name": "",
          "type": "bool"
        }
      ],
      "stateMutability": "view",
      "type": "function"
    },
    {
      "inputs": [],
      "name": "itemCount",
      "outputs": [
        {
          "internalType": "uint256",
          "name": "",
          "type": "uint256"
        }
      ],
      "stateMutability": "view",
      "type": "function"
    },
    {
      "inputs": [
        {
          "internalType": "uint256",
          "name": "",
          "type": "uint256"
        }
      ],
      "name": "items",
      "outputs": [
        {
          "internalType": "address",
          "name": "beneficiary",
          "type": "address"
        },
        {
          "internalType": "enum TransparentSubsidySystem.Stage",
          "name": "stage",
          "type": "uint8"
        },
        {
          "internalType": "bool",
          "name": "claimed",
          "type": "bool"
        },
        {
          "internalType": "string",
          "name": "currentIpfsHash",
          "type": "string"
        }
      ],
      "stateMutability": "view",
      "type": "function"
    },
    {
      "inputs": [
        {
          "internalType": "bytes32",
          "name": "role",
          "type": "bytes32"
        },
        {
          "internalType": "address",
          "name": "callerConfirmation",
          "type": "address"
        }
      ],
      "name": "renounceRole",
      "outputs": [],
      "stateMutability": "nonpayable",
      "type": "function"
    },
    {
      "inputs": [
        {
          "internalType": "bytes32",
          "name": "role",
          "type": "bytes32"
        },
        {
          "internalType": "address",
          "name": "account",
          "type": "address"
        }
      ],
      "name": "revokeRole",
      "outputs": [],
      "stateMutability": "nonpayable",
      "type": "function"
    },
    {
      "inputs": [
        {
          "internalType": "bytes4",
          "name": "interfaceId",
          "type": "bytes4"
        }
      ],
      "name": "supportsInterface",
      "outputs": [
        {
          "internalType": "bool",
          "name": "",
          "type": "bool"
        }
      ],
      "stateMutability": "view",
      "type": "function"
    },
    {
      "inputs": [
        {
          "internalType": "uint256",
          "name": "itemId",
          "type": "uint256"
        },
        {
          "internalType": "string",
          "name": "ipfsHash",
          "type": "string"
        }
      ],
      "name": "transporterSubmit",
      "outputs": [],
      "stateMutability": "nonpayable",
      "type": "function"
    }
  ],
  "bytecode": "0x608060405234801561001057600080fd5b506100246000801b3361014b60201b60201c565b506100557fa49807205ce4d355092ef5a8a18f56e8913cf4a201fbe287825b095693c217753361014b60201b60201c565b506100a67fe61decff6e4a5c6b5a3d3cbd28f882e595173563b49353ce5f31dba2de7f05ee7fa49807205ce4d355092ef5a8a18f56e8913cf4a201fbe287825b095693c2177561024860201b60201c565b6100f67fddaa901e2fe3bda354fe0ede2785152d5c109282a613fe024a056a3e66c41bb37fa49807205ce4d355092ef5a8a18f56e8913cf4a201fbe287825b095693c2177561024860201b60201c565b6101467ffbd454f36a7e1a388bd6fc3ab10d434aa4578f811acbbcf33afb1c697486313c7fa49807205ce4d355092ef5a8a18f56e8913cf4a201fbe287825b095693c2177561024860201b60201c565b61033a565b600061015d83836102a960201b60201c565b61023d57600160008085815260200190815260200160002060000160008473ffffffffffffffffffffffffffffffffffffffff1673ffffffffffffffffffffffffffffffffffffffff16815260200190815260200160002060006101000a81548160ff0219169083151502179055506101da61031360201b60201c565b73ffffffffffffffffffffffffffffffffffffffff168273ffffffffffffffffffffffffffffffffffffffff16847f2f8788117e7eff1d82e926ec794901d17c78024a50270940304540a733656f0d60405160405180910390a460019050610242565b600090505b92915050565b60006102598361031b60201b60201c565b905081600080858152602001908152602001600020600101819055508181847fbd79b86ffe0ab8e8776151514217cd7cacd52c909f66475c3af44e129f0b00ff60405160405180910390a4505050565b600080600084815260200190815260200160002060000160008373ffffffffffffffffffffffffffffffffffffffff1673ffffffffffffffffffffffffffffffffffffffff16815260200190815260200160002060009054906101000a900460ff16905092915050565b600033905090565b6000806000838152602001908152602001600020600101549050919050565b612f02806103496000396000f3fe608060405234801561001057600080fd5b50600436106101375760003560e01c80636eb3b4e9116100b857806391d148541161007c57806391d1485414610338578063a217fddf14610368578063bfb231d214610386578063c0a78dc8146103b9578063d547741f146103d5578063f0bd87cc146103f157610137565b80636eb3b4e9146102945780637570f460146102c457806375b238fc146102e05780638222bdb2146102fe5780639145325c1461031c57610137565b806336568abe116100ff57806336568abe146102045780634eabbe771461022057806351563f8e1461023e57806366e70a431461025a5780636bfb0d011461027657610137565b806301ffc9a71461013c578063248a9ca31461016c57806326fb76c21461019c5780632f2ff15d146101b85780633129e773146101d4575b600080fd5b61015660048036038101906101519190611d75565b61040f565b6040516101639190611dbd565b60405180910390f35b61018660048036038101906101819190611e0e565b610489565b6040516101939190611e4a565b60405180910390f35b6101b660048036038101906101b19190611f28565b6104a8565b005b6101d260048036038101906101cd9190611f88565b6108ae565b005b6101ee60048036038101906101e99190611ffe565b6108d0565b6040516101fb91906121b3565b60405180910390f35b61021e60048036038101906102199190611f88565b610a3b565b005b610228610ab6565b6040516102359190611e4a565b60405180910390f35b61025860048036038101906102539190611ffe565b610ada565b005b610274600480360381019061026f91906121d5565b610bcc565b005b61027e610e81565b60405161028b9190612244565b60405180910390f35b6102ae60048036038101906102a99190611ffe565b610e87565b6040516102bb9190612393565b60405180910390f35b6102de60048036038101906102d991906121d5565b611026565b005b6102e86112db565b6040516102f59190611e4a565b60405180910390f35b6103066112ff565b6040516103139190611e4a565b60405180910390f35b61033660048036038101906103319190611ffe565b611323565b005b610352600480360381019061034d9190611f88565b611600565b60405161035f9190611dbd565b60405180910390f35b61037061166a565b60405161037d9190611e4a565b60405180910390f35b6103a0600480360381019061039b9190611ffe565b611671565b6040516103b0949392919061241d565b60405180910390f35b6103d360048036038101906103ce919061248e565b611763565b005b6103ef60048036038101906103ea9190611f88565b6119c1565b005b6103f96119e3565b6040516104069190611e4a565b60405180910390f35b60007f7965db0b000000000000000000000000000000000000000000000000000000007bffffffffffffffffffffffffffffffffffffffffffffffffffffffff1916827bffffffffffffffffffffffffffffffffffffffffffffffffffffffff19161480610482575061048182611a07565b5b9050919050565b6000806000838152602001908152602001600020600101549050919050565b7fe61decff6e4a5c6b5a3d3cbd28f882e595173563b49353ce5f31dba2de7f05ee6104d281611a71565b600073ffffffffffffffffffffffffffffffffffffffff168473ffffffffffffffffffffffffffffffffffffffff1603610541576040517f08c379a00000000000000000000000000000000000000000000000000000000081526004016105389061251a565b60405180910390fd5b6001600081548092919061055490612569565b919050555060405180608001604052808573ffffffffffffffffffffffffffffffffffffffff168152602001600060078111156105945761059361203a565b5b815260200160001515815260200184848080601f016020809104026020016040519081016040528093929190818152602001838380828437600081840152601f19601f8201169050808301925050505050505081525060026000600154815260200190815260200160002060008201518160000160006101000a81548173ffffffffffffffffffffffffffffffffffffffff021916908373ffffffffffffffffffffffffffffffffffffffff16021790555060208201518160000160146101000a81548160ff021916908360078111156106715761067061203a565b5b021790555060408201518160000160156101000a81548160ff02191690831515021790555060608201518160010190816106ab91906127ec565b509050506003600060015481526020019081526020016000206040518060800160405280600060078111156106e3576106e261203a565b5b815260200185858080601f016020809104026020016040519081016040528093929190818152602001838380828437600081840152601f19601f8201169050808301925050505050505081526020013373ffffffffffffffffffffffffffffffffffffffff16815260200142815250908060018154018082558091505060019003906000526020600020906004020160009091909190915060008201518160000160006101000a81548160ff021916908360078111156107a6576107a561203a565b5b021790555060208201518160010190816107c091906127ec565b5060408201518160020160006101000a81548173ffffffffffffffffffffffffffffffffffffffff021916908373ffffffffffffffffffffffffffffffffffffffff1602179055506060820151816003015550508373ffffffffffffffffffffffffffffffffffffffff166001547f8ca92c70182d3487a5ee73b708d09ac562962a6ecffa317d6cd4f6beb31cae2c858560405161085f9291906128fa565b60405180910390a36001547f79fffd55b843ee7c60c7ee872ba77121146675737a0798438b7b57a44ac2cbe860008585336040516108a0949392919061291e565b60405180910390a250505050565b6108b782610489565b6108c081611a71565b6108ca8383611a85565b50505050565b6108d8611cc1565b600260008381526020019081526020016000206040518060800160405290816000820160009054906101000a900473ffffffffffffffffffffffffffffffffffffffff1673ffffffffffffffffffffffffffffffffffffffff1673ffffffffffffffffffffffffffffffffffffffff1681526020016000820160149054906101000a900460ff1660078111156109715761097061203a565b5b60078111156109835761098261203a565b5b81526020016000820160159054906101000a900460ff161515151581526020016001820180546109b29061260f565b80601f01602080910402602001604051908101604052809291908181526020018280546109de9061260f565b8015610a2b5780601f10610a0057610100808354040283529160200191610a2b565b820191906000526020600020905b815481529060010190602001808311610a0e57829003601f168201915b5050505050815250509050919050565b610a43611b76565b73ffffffffffffffffffffffffffffffffffffffff168173ffffffffffffffffffffffffffffffffffffffff1614610aa7576040517f6697b23200000000000000000000000000000000000000000000000000000000815260040160405180910390fd5b610ab18282611b7e565b505050565b7fddaa901e2fe3bda354fe0ede2785152d5c109282a613fe024a056a3e66c41bb381565b7fa49807205ce4d355092ef5a8a18f56e8913cf4a201fbe287825b095693c21775610b0481611a71565b60006002600084815260200190815260200160002090508060000160159054906101000a900460ff1615610b6d576040517f08c379a0000000000000000000000000000000000000000000000000000000008152600401610b64906129aa565b60405180910390fd5b60078160000160146101000a81548160ff02191690836007811115610b9557610b9461203a565b5b0217905550827f6875ab0cd79fc59886259e999e56eb8da549fa524709389bc624972a5896995860405160405180910390a2505050565b7fddaa901e2fe3bda354fe0ede2785152d5c109282a613fe024a056a3e66c41bb3610bf681611a71565b60016007811115610c0a57610c0961203a565b5b6002600086815260200190815260200160002060000160149054906101000a900460ff166007811115610c4057610c3f61203a565b5b14610c80576040517f08c379a0000000000000000000000000000000000000000000000000000000008152600401610c7790612a16565b60405180910390fd5b600060026000868152602001908152602001600020905060028160000160146101000a81548160ff02191690836007811115610cbf57610cbe61203a565b5b02179055508383826001019182610cd7929190612a41565b5060036000868152602001908152602001600020604051806080016040528060026007811115610d0a57610d0961203a565b5b815260200186868080601f016020809104026020016040519081016040528093929190818152602001838380828437600081840152601f19601f8201169050808301925050505050505081526020013373ffffffffffffffffffffffffffffffffffffffff16815260200142815250908060018154018082558091505060019003906000526020600020906004020160009091909190915060008201518160000160006101000a81548160ff02191690836007811115610dcd57610dcc61203a565b5b02179055506020820151816001019081610de791906127ec565b5060408201518160020160006101000a81548173ffffffffffffffffffffffffffffffffffffffff021916908373ffffffffffffffffffffffffffffffffffffffff160217905550606082015181600301555050847f79fffd55b843ee7c60c7ee872ba77121146675737a0798438b7b57a44ac2cbe86002868633604051610e72949392919061291e565b60405180910390a25050505050565b60015481565b606060036000838152602001908152602001600020805480602002602001604051908101604052809291908181526020016000905b8282101561101b57838290600052602060002090600402016040518060800160405290816000820160009054906101000a900460ff166007811115610f0457610f0361203a565b5b6007811115610f1657610f1561203a565b5b8152602001600182018054610f2a9061260f565b80601f0160208091040260200160405190810160405280929190818152602001828054610f569061260f565b8015610fa35780601f10610f7857610100808354040283529160200191610fa3565b820191906000526020600020905b815481529060010190602001808311610f8657829003601f168201915b505050505081526020016002820160009054906101000a900473ffffffffffffffffffffffffffffffffffffffff1673ffffffffffffffffffffffffffffffffffffffff1673ffffffffffffffffffffffffffffffffffffffff16815260200160038201548152505081526020019060010190610ebc565b505050509050919050565b7ffbd454f36a7e1a388bd6fc3ab10d434aa4578f811acbbcf33afb1c697486313c61105081611a71565b600360078111156110645761106361203a565b5b6002600086815260200190815260200160002060000160149054906101000a900460ff16600781111561109a5761109961203a565b5b146110da576040517f08c379a00000000000000000000000000000000000000000000000000000000081526004016110d190612b5d565b60405180910390fd5b600060026000868152602001908152602001600020905060048160000160146101000a81548160ff021916908360078111156111195761111861203a565b5b02179055508383826001019182611131929190612a41565b50600360008681526020019081526020016000206040518060800160405280600460078111156111645761116361203a565b5b815260200186868080601f016020809104026020016040519081016040528093929190818152602001838380828437600081840152601f19601f8201169050808301925050505050505081526020013373ffffffffffffffffffffffffffffffffffffffff16815260200142815250908060018154018082558091505060019003906000526020600020906004020160009091909190915060008201518160000160006101000a81548160ff021916908360078111156112275761122661203a565b5b0217905550602082015181600101908161124191906127ec565b5060408201518160020160006101000a81548173ffffffffffffffffffffffffffffffffffffffff021916908373ffffffffffffffffffffffffffffffffffffffff160217905550606082015181600301555050847f79fffd55b843ee7c60c7ee872ba77121146675737a0798438b7b57a44ac2cbe860048686336040516112cc949392919061291e565b60405180910390a25050505050565b7fa49807205ce4d355092ef5a8a18f56e8913cf4a201fbe287825b095693c2177581565b7fe61decff6e4a5c6b5a3d3cbd28f882e595173563b49353ce5f31dba2de7f05ee81565b60006002600083815260200190815260200160002090506005600781111561134e5761134d61203a565b5b8160000160149054906101000a900460ff1660078111156113725761137161203a565b5b146113b2576040517f08c379a00000000000000000000000000000000000000000000000000000000081526004016113a990612bef565b60405180910390fd5b8060000160159054906101000a900460ff1615611404576040517f08c379a00000000000000000000000000000000000000000000000000000000081526004016113fb90612c5b565b60405180910390fd5b60008160000160009054906101000a900473ffffffffffffffffffffffffffffffffffffffff1673ffffffffffffffffffffffffffffffffffffffff163373ffffffffffffffffffffffffffffffffffffffff1614905060006114877fa49807205ce4d355092ef5a8a18f56e8913cf4a201fbe287825b095693c2177533611600565b806114b857506114b77ffbd454f36a7e1a388bd6fc3ab10d434aa4578f811acbbcf33afb1c697486313c33611600565b5b905081806114c35750805b611502576040517f08c379a00000000000000000000000000000000000000000000000000000000081526004016114f990612cc7565b60405180910390fd5b60018360000160156101000a81548160ff02191690831515021790555060068360000160146101000a81548160ff021916908360078111156115475761154661203a565b5b02179055508260000160009054906101000a900473ffffffffffffffffffffffffffffffffffffffff1673ffffffffffffffffffffffffffffffffffffffff16847f6891ddc79eacea5f551daea1b822722765b992ed866f26698d8d31fa1982197e336040516115b79190612ce7565b60405180910390a3837f79fffd55b843ee7c60c7ee872ba77121146675737a0798438b7b57a44ac2cbe86006336040516115f2929190612d4e565b60405180910390a250505050565b600080600084815260200190815260200160002060000160008373ffffffffffffffffffffffffffffffffffffffff1673ffffffffffffffffffffffffffffffffffffffff16815260200190815260200160002060009054906101000a900460ff16905092915050565b6000801b81565b60026020528060005260406000206000915090508060000160009054906101000a900473ffffffffffffffffffffffffffffffffffffffff16908060000160149054906101000a900460ff16908060000160159054906101000a900460ff16908060010180546116e09061260f565b80601f016020809104026020016040519081016040528092919081815260200182805461170c9061260f565b80156117595780601f1061172e57610100808354040283529160200191611759565b820191906000526020600020905b81548152906001019060200180831161173c57829003601f168201915b5050505050905084565b7fa49807205ce4d355092ef5a8a18f56e8913cf4a201fbe287825b095693c2177561178d81611a71565b60006002600085815260200190815260200160002090508260078111156117b7576117b661203a565b5b8160000160149054906101000a900460ff1660078111156117db576117da61203a565b5b1461181b576040517f08c379a000000000000000000000000000000000000000000000000000000000815260040161181290612dd6565b60405180910390fd5b6000600781111561182f5761182e61203a565b5b8360078111156118425761184161203a565b5b036118795760018160000160146101000a81548160ff0219169083600781111561186f5761186e61203a565b5b0217905550611972565b6002600781111561188d5761188c61203a565b5b8360078111156118a05761189f61203a565b5b036118d75760038160000160146101000a81548160ff021916908360078111156118cd576118cc61203a565b5b0217905550611971565b600460078111156118eb576118ea61203a565b5b8360078111156118fe576118fd61203a565b5b036119355760058160000160146101000a81548160ff0219169083600781111561192b5761192a61203a565b5b0217905550611970565b6040517f08c379a000000000000000000000000000000000000000000000000000000000815260040161196790612e68565b60405180910390fd5b5b5b837ff32674b104c9036b14a2a04e80d007566495fdd06961275efcf1016491d6cd078260000160149054906101000a900460ff166040516119b39190612e88565b60405180910390a250505050565b6119ca82610489565b6119d381611a71565b6119dd8383611b7e565b50505050565b7ffbd454f36a7e1a388bd6fc3ab10d434aa4578f811acbbcf33afb1c697486313c81565b60007f01ffc9a7000000000000000000000000000000000000000000000000000000007bffffffffffffffffffffffffffffffffffffffffffffffffffffffff1916827bffffffffffffffffffffffffffffffffffffffffffffffffffffffff1916149050919050565b611a8281611a7d611b76565b611c70565b50565b6000611a918383611600565b611b6b57600160008085815260200190815260200160002060000160008473ffffffffffffffffffffffffffffffffffffffff1673ffffffffffffffffffffffffffffffffffffffff16815260200190815260200160002060006101000a81548160ff021916908315150217905550611b08611b76565b73ffffffffffffffffffffffffffffffffffffffff168273ffffffffffffffffffffffffffffffffffffffff16847f2f8788117e7eff1d82e926ec794901d17c78024a50270940304540a733656f0d60405160405180910390a460019050611b70565b600090505b92915050565b600033905090565b6000611b8a8383611600565b15611c6557600080600085815260200190815260200160002060000160008473ffffffffffffffffffffffffffffffffffffffff1673ffffffffffffffffffffffffffffffffffffffff16815260200190815260200160002060006101000a81548160ff021916908315150217905550611c02611b76565b73ffffffffffffffffffffffffffffffffffffffff168273ffffffffffffffffffffffffffffffffffffffff16847ff6391f5c32d9c69d2a47ea670b442974b53935d1edc7fd64eb21e047a839171b60405160405180910390a460019050611c6a565b600090505b92915050565b611c7a8282611600565b611cbd5780826040517fe2517d3f000000000000000000000000000000000000000000000000000000008152600401611cb4929190612ea3565b60405180910390fd5b5050565b6040518060800160405280600073ffffffffffffffffffffffffffffffffffffffff16815260200160006007811115611cfd57611cfc61203a565b5b8152602001600015158152602001606081525090565b600080fd5b600080fd5b60007fffffffff0000000000000000000000000000000000000000000000000000000082169050919050565b611d5281611d1d565b8114611d5d57600080fd5b50565b600081359050611d6f81611d49565b92915050565b600060208284031215611d8b57611d8a611d13565b5b6000611d9984828501611d60565b91505092915050565b60008115159050919050565b611db781611da2565b82525050565b6000602082019050611dd26000830184611dae565b92915050565b6000819050919050565b611deb81611dd8565b8114611df657600080fd5b50565b600081359050611e0881611de2565b92915050565b600060208284031215611e2457611e23611d13565b5b6000611e3284828501611df9565b91505092915050565b611e4481611dd8565b82525050565b6000602082019050611e5f6000830184611e3b565b92915050565b600073ffffffffffffffffffffffffffffffffffffffff82169050919050565b6000611e9082611e65565b9050919050565b611ea081611e85565b8114611eab57600080fd5b50565b600081359050611ebd81611e97565b92915050565b600080fd5b600080fd5b600080fd5b60008083601f840112611ee857611ee7611ec3565b5b8235905067ffffffffffffffff811115611f0557611f04611ec8565b5b602083019150836001820283011115611f2157611f20611ecd565b5b9250929050565b600080600060408486031215611f4157611f40611d13565b5b6000611f4f86828701611eae565b935050602084013567ffffffffffffffff811115611f7057611f6f611d18565b5b611f7c86828701611ed2565b92509250509250925092565b60008060408385031215611f9f57611f9e611d13565b5b6000611fad85828601611df9565b9250506020611fbe85828601611eae565b9150509250929050565b6000819050919050565b611fdb81611fc8565b8114611fe657600080fd5b50565b600081359050611ff881611fd2565b92915050565b60006020828403121561201457612013611d13565b5b600061202284828501611fe9565b91505092915050565b61203481611e85565b82525050565b7f4e487b7100000000000000000000000000000000000000000000000000000000600052602160045260246000fd5b6008811061207a5761207961203a565b5b50565b600081905061208b82612069565b919050565b600061209b8261207d565b9050919050565b6120ab81612090565b82525050565b6120ba81611da2565b82525050565b600081519050919050565b600082825260208201905092915050565b60005b838110156120fa5780820151818401526020810190506120df565b60008484015250505050565b6000601f19601f8301169050919050565b6000612122826120c0565b61212c81856120cb565b935061213c8185602086016120dc565b61214581612106565b840191505092915050565b6000608083016000830151612168600086018261202b565b50602083015161217b60208601826120a2565b50604083015161218e60408601826120b1565b50606083015184820360608601526121a68282612117565b9150508091505092915050565b600060208201905081810360008301526121cd8184612150565b905092915050565b6000806000604084860312156121ee576121ed611d13565b5b60006121fc86828701611fe9565b935050602084013567ffffffffffffffff81111561221d5761221c611d18565b5b61222986828701611ed2565b92509250509250925092565b61223e81611fc8565b82525050565b60006020820190506122596000830184612235565b92915050565b600081519050919050565b600082825260208201905092915050565b6000819050602082019050919050565b61229481611fc8565b82525050565b60006080830160008301516122b260008601826120a2565b50602083015184820360208601526122ca8282612117565b91505060408301516122df604086018261202b565b5060608301516122f2606086018261228b565b508091505092915050565b6000612309838361229a565b905092915050565b6000602082019050919050565b60006123298261225f565b612333818561226a565b9350836020820285016123458561227b565b8060005b85811015612381578484038952815161236285826122fd565b945061236d83612311565b925060208a01995050600181019050612349565b50829750879550505050505092915050565b600060208201905081810360008301526123ad818461231e565b905092915050565b6123be81611e85565b82525050565b6123cd81612090565b82525050565b600082825260208201905092915050565b60006123ef826120c0565b6123f981856123d3565b93506124098185602086016120dc565b61241281612106565b840191505092915050565b600060808201905061243260008301876123b5565b61243f60208301866123c4565b61244c6040830185611dae565b818103606083015261245e81846123e4565b905095945050505050565b6008811061247657600080fd5b50565b60008135905061248881612469565b92915050565b600080604083850312156124a5576124a4611d13565b5b60006124b385828601611fe9565b92505060206124c485828601612479565b9150509250929050565b7f496e76616c69642062656e656669636961727900000000000000000000000000600082015250565b60006125046013836123d3565b915061250f826124ce565b602082019050919050565b60006020820190508181036000830152612533816124f7565b9050919050565b7f4e487b7100000000000000000000000000000000000000000000000000000000600052601160045260246000fd5b600061257482611fc8565b91507fffffffffffffffffffffffffffffffffffffffffffffffffffffffffffffffff82036125a6576125a561253a565b5b600182019050919050565b7f4e487b7100000000000000000000000000000000000000000000000000000000600052604160045260246000fd5b7f4e487b7100000000000000000000000000000000000000000000000000000000600052602260045260246000fd5b6000600282049050600182168061262757607f821691505b60208210810361263a576126396125e0565b5b50919050565b60008190508160005260206000209050919050565b60006020601f8301049050919050565b600082821b905092915050565b6000600883026126a27fffffffffffffffffffffffffffffffffffffffffffffffffffffffffffffffff82612665565b6126ac8683612665565b95508019841693508086168417925050509392505050565b6000819050919050565b60006126e96126e46126df84611fc8565b6126c4565b611fc8565b9050919050565b6000819050919050565b612703836126ce565b61271761270f826126f0565b848454612672565b825550505050565b600090565b61272c61271f565b6127378184846126fa565b505050565b5b8181101561275b57612750600082612724565b60018101905061273d565b5050565b601f8211156127a05761277181612640565b61277a84612655565b81016020851015612789578190505b61279d61279585612655565b83018261273c565b50505b505050565b600082821c905092915050565b60006127c3600019846008026127a5565b1980831691505092915050565b60006127dc83836127b2565b9150826002028217905092915050565b6127f5826120c0565b67ffffffffffffffff81111561280e5761280d6125b1565b5b612818825461260f565b61282382828561275f565b600060209050601f8311600181146128565760008415612844578287015190505b61284e85826127d0565b8655506128b6565b601f19841661286486612640565b60005b8281101561288c57848901518255600182019150602085019450602081019050612867565b868310156128a957848901516128a5601f8916826127b2565b8355505b6001600288020188555050505b505050505050565b82818337600083830152505050565b60006128d983856123d3565b93506128e68385846128be565b6128ef83612106565b840190509392505050565b600060208201905081810360008301526129158184866128cd565b90509392505050565b600060608201905061293360008301876123c4565b81810360208301526129468185876128cd565b905061295560408301846123b5565b95945050505050565b7f43616e6e6f742063616e63656c206120636c61696d6564206974656d00000000600082015250565b6000612994601c836123d3565b915061299f8261295e565b602082019050919050565b600060208201905081810360008301526129c381612987565b9050919050565b7f48616e646f766572206e6f742076657269666965642062792041646d696e0000600082015250565b6000612a00601e836123d3565b9150612a0b826129ca565b602082019050919050565b60006020820190508181036000830152612a2f816129f3565b9050919050565b600082905092915050565b612a4b8383612a36565b67ffffffffffffffff811115612a6457612a636125b1565b5b612a6e825461260f565b612a7982828561275f565b6000601f831160018114612aa85760008415612a96578287013590505b612aa085826127d0565b865550612b08565b601f198416612ab686612640565b60005b82811015612ade57848901358255600182019150602085019450602081019050612ab9565b86831015612afb5784890135612af7601f8916826127b2565b8355505b6001600288020188555050505b50505050505050565b7f4974656d206e6f7420696e207472616e73697400000000000000000000000000600082015250565b6000612b476013836123d3565b9150612b5282612b11565b602082019050919050565b60006020820190508181036000830152612b7681612b3a565b9050919050565b7f44656c6976657279206e6f742076657269666965642062792041646d696e207960008201527f6574000000000000000000000000000000000000000000000000000000000000602082015250565b6000612bd96022836123d3565b9150612be482612b7d565b604082019050919050565b60006020820190508181036000830152612c0881612bcc565b9050919050565b7f416c726561647920636c61696d65640000000000000000000000000000000000600082015250565b6000612c45600f836123d3565b9150612c5082612c0f565b602082019050919050565b60006020820190508181036000830152612c7481612c38565b9050919050565b7f556e617574686f72697a65640000000000000000000000000000000000000000600082015250565b6000612cb1600c836123d3565b9150612cbc82612c7b565b602082019050919050565b60006020820190508181036000830152612ce081612ca4565b9050919050565b6000602082019050612cfc60008301846123b5565b92915050565b7f697066733a2f2f436c61696d6564000000000000000000000000000000000000600082015250565b6000612d38600e836123d3565b9150612d4382612d02565b602082019050919050565b6000606082019050612d6360008301856123c4565b8181036020830152612d7481612d2b565b9050612d8360408301846123b5565b9392505050565b7f5374616765206d69736d6174636820666f7220766572696669636174696f6e00600082015250565b6000612dc0601f836123d3565b9150612dcb82612d8a565b602082019050919050565b60006020820190508181036000830152612def81612db3565b9050919050565b7f546869732073746167652063616e6e6f7420626520766572696669656420627960008201527f2041646d696e206469726563746c790000000000000000000000000000000000602082015250565b6000612e52602f836123d3565b9150612e5d82612df6565b604082019050919050565b60006020820190508181036000830152612e8181612e45565b9050919050565b6000602082019050612e9d60008301846123c4565b92915050565b6000604082019050612eb860008301856123b5565b612ec56020830184611e3b565b939250505056fea2646970667358221220843f35623be3babaa59ad3c614c010d02dd7b0f1fd86844861599304e1e53d4564736f6c634300081c0033",
  "linkReferences": {},
  "deployedLinkReferences": {}
}